{
  "contractName": "CoinFlip",
  "abi": [
    {
      "constant": true,
      "inputs": [
        {
          "name": "",
          "type": "bytes32"
        }
      ],
      "name": "playerOracleqQuerey",
      "outputs": [
        {
          "name": "id",
          "type": "bytes32"
        },
        {
          "name": "playerAddress",
          "type": "address"
        }
      ],
      "payable": false,
      "stateMutability": "view",
      "type": "function"
    },
    {
      "constant": true,
      "inputs": [],
      "name": "getOwner",
      "outputs": [
        {
          "name": "",
          "type": "address"
        }
      ],
      "payable": false,
      "stateMutability": "view",
      "type": "function"
    },
    {
      "constant": false,
      "inputs": [
        {
          "name": "newOwner",
          "type": "address"
        }
      ],
      "name": "changeOwner",
      "outputs": [],
      "payable": false,
      "stateMutability": "nonpayable",
      "type": "function"
    },
    {
      "inputs": [],
      "payable": false,
      "stateMutability": "nonpayable",
      "type": "constructor"
    },
    {
      "anonymous": false,
      "inputs": [
        {
          "indexed": false,
          "name": "depositedBy",
          "type": "address"
        },
        {
          "indexed": false,
          "name": "amount",
          "type": "uint256"
        }
      ],
      "name": "depositMade",
      "type": "event"
    },
    {
      "anonymous": false,
      "inputs": [
        {
          "indexed": false,
          "name": "withdrawedBy",
          "type": "address"
        },
        {
          "indexed": false,
          "name": "amount",
          "type": "uint256"
        }
      ],
      "name": "withdrawMade",
      "type": "event"
    },
    {
      "anonymous": false,
      "inputs": [
        {
          "indexed": false,
          "name": "player_address",
          "type": "address"
        },
        {
          "indexed": false,
          "name": "amount",
          "type": "uint256"
        },
        {
          "indexed": false,
          "name": "betId",
          "type": "uint256"
        }
      ],
      "name": "betInitialized",
      "type": "event"
    },
    {
      "anonymous": false,
      "inputs": [
        {
          "indexed": false,
          "name": "playerAddress",
          "type": "address"
        },
        {
          "indexed": false,
          "name": "result",
          "type": "uint256"
        },
        {
          "indexed": false,
          "name": "betId",
          "type": "uint256"
        },
        {
          "indexed": false,
          "name": "hasWon",
          "type": "bool"
        }
      ],
      "name": "coinFlipped",
      "type": "event"
    },
    {
      "anonymous": false,
      "inputs": [
        {
          "indexed": true,
          "name": "player",
          "type": "address"
        }
      ],
      "name": "newProvableQuerey",
      "type": "event"
    },
    {
      "anonymous": false,
      "inputs": [
        {
          "indexed": false,
          "name": "player",
          "type": "address"
        },
        {
          "indexed": false,
          "name": "newBalance",
          "type": "uint256"
        },
        {
          "indexed": false,
          "name": "oldBalance",
          "type": "uint256"
        }
      ],
      "name": "balanceUpdated",
      "type": "event"
    },
    {
      "anonymous": false,
      "inputs": [
        {
          "indexed": false,
          "name": "randomNumber",
          "type": "uint256"
        }
      ],
      "name": "generatedRandomNumber",
      "type": "event"
    },
    {
      "anonymous": false,
      "inputs": [
        {
          "indexed": true,
          "name": "oldOwner",
          "type": "address"
        },
        {
          "indexed": true,
          "name": "newOwner",
          "type": "address"
        }
      ],
      "name": "OwnerSet",
      "type": "event"
    },
    {
      "constant": false,
      "inputs": [],
      "name": "setBet",
      "outputs": [],
      "payable": true,
      "stateMutability": "payable",
      "type": "function"
    },
    {
      "constant": false,
      "inputs": [
        {
          "name": "_myid",
          "type": "bytes32"
        },
        {
          "name": "_result",
          "type": "string"
        }
      ],
      "name": "__callback",
      "outputs": [],
      "payable": false,
      "stateMutability": "nonpayable",
      "type": "function"
    },
    {
      "constant": false,
      "inputs": [
        {
          "name": "_queryId",
          "type": "bytes32"
        },
        {
          "name": "_result",
          "type": "uint256"
        },
        {
          "name": "_proof",
          "type": "bytes"
        }
      ],
      "name": "__callback",
      "outputs": [
        {
          "name": "",
          "type": "uint256"
        }
      ],
      "payable": false,
      "stateMutability": "nonpayable",
      "type": "function"
    },
    {
      "constant": false,
      "inputs": [
        {
          "name": "_myid",
          "type": "bytes32"
        },
        {
          "name": "_result",
          "type": "string"
        },
        {
          "name": "_proof",
          "type": "bytes"
        }
      ],
      "name": "__callback",
      "outputs": [],
      "payable": false,
      "stateMutability": "nonpayable",
      "type": "function"
    },
    {
      "constant": false,
      "inputs": [],
      "name": "testRandom",
      "outputs": [
        {
          "name": "",
          "type": "bytes32"
        }
      ],
      "payable": false,
      "stateMutability": "nonpayable",
      "type": "function"
    },
    {
      "constant": true,
      "inputs": [
        {
          "name": "randomNumber",
          "type": "uint256"
        }
      ],
      "name": "flipCoin",
      "outputs": [
        {
          "name": "",
          "type": "bool"
        }
      ],
      "payable": false,
      "stateMutability": "view",
      "type": "function"
    },
    {
      "constant": false,
      "inputs": [
        {
          "name": "randomSeed",
          "type": "bool"
        }
      ],
      "name": "settleBet",
      "outputs": [],
      "payable": true,
      "stateMutability": "payable",
      "type": "function"
    },
    {
      "constant": false,
      "inputs": [],
      "name": "withdraw",
      "outputs": [],
      "payable": true,
      "stateMutability": "payable",
      "type": "function"
    },
    {
      "constant": false,
      "inputs": [],
      "name": "deposit",
      "outputs": [],
      "payable": true,
      "stateMutability": "payable",
      "type": "function"
    },
    {
      "constant": true,
      "inputs": [],
      "name": "getResult",
      "outputs": [
        {
          "name": "",
          "type": "uint256"
        }
      ],
      "payable": false,
      "stateMutability": "view",
      "type": "function"
    },
    {
      "constant": true,
      "inputs": [],
      "name": "getBetStatus",
      "outputs": [
        {
          "name": "",
          "type": "bool"
        }
      ],
      "payable": false,
      "stateMutability": "view",
      "type": "function"
    },
    {
      "constant": true,
      "inputs": [],
      "name": "getPlayer",
      "outputs": [
        {
          "name": "",
          "type": "address"
        }
      ],
      "payable": false,
      "stateMutability": "view",
      "type": "function"
    },
    {
      "constant": true,
      "inputs": [],
      "name": "getContratcBalance",
      "outputs": [
        {
          "name": "",
          "type": "uint256"
        }
      ],
      "payable": false,
      "stateMutability": "view",
      "type": "function"
    },
    {
      "constant": true,
      "inputs": [],
      "name": "getPlayerBalance",
      "outputs": [
        {
          "name": "",
          "type": "uint256"
        }
      ],
      "payable": false,
      "stateMutability": "view",
      "type": "function"
    },
    {
      "constant": true,
      "inputs": [],
      "name": "random",
      "outputs": [
        {
          "name": "",
          "type": "uint256"
        }
      ],
      "payable": false,
      "stateMutability": "view",
      "type": "function"
    },
    {
      "constant": true,
      "inputs": [],
      "name": "getCurrentBet",
      "outputs": [
        {
          "name": "",
          "type": "uint256"
        }
      ],
      "payable": false,
      "stateMutability": "view",
      "type": "function"
    },
    {
      "constant": true,
      "inputs": [],
      "name": "getActiveBets",
      "outputs": [
        {
          "components": [
            {
              "name": "playerAddress",
              "type": "address"
            },
            {
              "name": "betAmount",
              "type": "uint256"
            },
            {
              "name": "isActive",
              "type": "bool"
            },
            {
              "name": "hasWon",
              "type": "bool"
            },
            {
              "name": "id",
              "type": "uint256"
            }
          ],
          "name": "",
          "type": "tuple[]"
        }
      ],
      "payable": false,
      "stateMutability": "view",
      "type": "function"
    }
  ],
  "bytecode": "0x60806040526000600d5534801561001557600080fd5b5033600560006101000a81548173ffffffffffffffffffffffffffffffffffffffff021916908373ffffffffffffffffffffffffffffffffffffffff160217905550600560009054906101000a900473ffffffffffffffffffffffffffffffffffffffff1673ffffffffffffffffffffffffffffffffffffffff16600073ffffffffffffffffffffffffffffffffffffffff167f342827c97908e5e2f71151c08502a66d44b6f758e3ac2f1de95f02eb95f0a73560405160405180910390a36000600c60003073ffffffffffffffffffffffffffffffffffffffff1673ffffffffffffffffffffffffffffffffffffffff16815260200190815260200160002081905550611faf806101286000396000f3fe60806040526004361061010c576000357c0100000000000000000000000000000000000000000000000000000000900480630b01517c146101115780631fa859e81461013c57806327dc297e146101675780633031935e146101905780633308f42d146101cd57806338bbfa50146101f85780633ccfd60b146102215780635ec01e4d1461022b5780635f5be1f4146102565780636b26712214610293578063893d20e8146102d1578063a6f9dae1146102fc578063ada7302014610325578063b789748514610350578063b84aa0651461037b578063c227609014610385578063d0e30db0146103a1578063d9b37faf146103ab578063de292789146103d6578063fbddd14b14610401575b600080fd5b34801561011d57600080fd5b5061012661042c565b6040516101339190611de7565b60405180910390f35b34801561014857600080fd5b50610151610473565b60405161015e9190611d68565b60405180910390f35b34801561017357600080fd5b5061018e600480360361018991908101906119ec565b6104ca565b005b34801561019c57600080fd5b506101b760048036036101b29190810190611abf565b61050d565b6040516101c49190611de7565b60405180910390f35b3480156101d957600080fd5b506101e26105ba565b6040516101ef9190611c94565b60405180910390f35b34801561020457600080fd5b5061021f600480360361021a9190810190611a40565b6105c2565b005b6102296105e6565b005b34801561023757600080fd5b5061024061078c565b60405161024d9190611de7565b60405180910390f35b34801561026257600080fd5b5061027d60048036036102789190810190611b26565b6107a0565b60405161028a9190611d68565b60405180910390f35b34801561029f57600080fd5b506102ba60048036036102b591908101906119c3565b610905565b6040516102c8929190611d9e565b60405180910390f35b3480156102dd57600080fd5b506102e6610949565b6040516102f39190611c94565b60405180910390f35b34801561030857600080fd5b50610323600480360361031e9190810190611971565b610973565b005b34801561033157600080fd5b5061033a610ac5565b6040516103479190611d46565b60405180910390f35b34801561035c57600080fd5b50610365610bc5565b6040516103729190611de7565b60405180910390f35b610383610c0f565b005b61039f600480360361039a919081019061199a565b611069565b005b6103a96114f2565b005b3480156103b757600080fd5b506103c0611659565b6040516103cd9190611de7565b60405180910390f35b3480156103e257600080fd5b506103eb6116a0565b6040516103f89190611de7565b60405180910390f35b34801561040d57600080fd5b506104166116e7565b6040516104239190611d83565b60405180910390f35b6000600c60003073ffffffffffffffffffffffffffffffffffffffff1673ffffffffffffffffffffffffffffffffffffffff16815260200190815260200160002054905090565b6000600a60003373ffffffffffffffffffffffffffffffffffffffff1673ffffffffffffffffffffffffffffffffffffffff16815260200190815260200160002060020160009054906101000a900460ff16905090565b610509828260006040519080825280601f01601f1916602001820160405280156105035781602001600182028038833980820191505090505b506105c2565b5050565b60008083905080600760003373ffffffffffffffffffffffffffffffffffffffff1673ffffffffffffffffffffffffffffffffffffffff168152602001908152602001600020819055506000600660003373ffffffffffffffffffffffffffffffffffffffff1673ffffffffffffffffffffffffffffffffffffffff16815260200190815260200160002060006101000a81548160ff021916908315150217905550809150509392505050565b600033905090565b60006001026003600080600102815260200190815260200160002081905550505050565b600560009054906101000a900473ffffffffffffffffffffffffffffffffffffffff1673ffffffffffffffffffffffffffffffffffffffff163373ffffffffffffffffffffffffffffffffffffffff16141515610678576040517f08c379a000000000000000000000000000000000000000000000000000000000815260040161066f90611dc7565b60405180910390fd5b3373ffffffffffffffffffffffffffffffffffffffff166108fc600c60003073ffffffffffffffffffffffffffffffffffffffff1673ffffffffffffffffffffffffffffffffffffffff168152602001908152602001600020549081150290604051600060405180830381858888f193505050501580156106fd573d6000803e3d6000fd5b50600c60003073ffffffffffffffffffffffffffffffffffffffff1673ffffffffffffffffffffffffffffffffffffffff16815260200190815260200160002054600c60003073ffffffffffffffffffffffffffffffffffffffff1673ffffffffffffffffffffffffffffffffffffffff16815260200190815260200160002060008282540392505081905550565b600060024281151561079a57fe5b06905090565b600080600860003373ffffffffffffffffffffffffffffffffffffffff1673ffffffffffffffffffffffffffffffffffffffff16815260200190815260200160002054905060006009600083815260200190815260200160002060010160009054906101000a900473ffffffffffffffffffffffffffffffffffffffff16905060011515600a60003373ffffffffffffffffffffffffffffffffffffffff1673ffffffffffffffffffffffffffffffffffffffff16815260200190815260200160002060020160009054906101000a900460ff16151514151561088257600080fd5b60001515600660008373ffffffffffffffffffffffffffffffffffffffff1673ffffffffffffffffffffffffffffffffffffffff16815260200190815260200160002060009054906101000a900460ff1615151415156108e157600080fd5b600060018514156108f557600190506108fa565b600090505b809350505050919050565b60096020528060005260406000206000915090508060000154908060010160009054906101000a900473ffffffffffffffffffffffffffffffffffffffff16905082565b6000600560009054906101000a900473ffffffffffffffffffffffffffffffffffffffff16905090565b600560009054906101000a900473ffffffffffffffffffffffffffffffffffffffff1673ffffffffffffffffffffffffffffffffffffffff163373ffffffffffffffffffffffffffffffffffffffff16141515610a05576040517f08c379a00000000000000000000000000000000000000000000000000000000081526004016109fc90611dc7565b60405180910390fd5b8073ffffffffffffffffffffffffffffffffffffffff16600560009054906101000a900473ffffffffffffffffffffffffffffffffffffffff1673ffffffffffffffffffffffffffffffffffffffff167f342827c97908e5e2f71151c08502a66d44b6f758e3ac2f1de95f02eb95f0a73560405160405180910390a380600560006101000a81548173ffffffffffffffffffffffffffffffffffffffff021916908373ffffffffffffffffffffffffffffffffffffffff16021790555050565b60606010805480602002602001604051908101604052809291908181526020016000905b82821015610bbc578382906000526020600020906004020160a060405190810160405290816000820160009054906101000a900473ffffffffffffffffffffffffffffffffffffffff1673ffffffffffffffffffffffffffffffffffffffff1673ffffffffffffffffffffffffffffffffffffffff168152602001600182015481526020016002820160009054906101000a900460ff161515151581526020016002820160019054906101000a900460ff1615151515815260200160038201548152505081526020019060010190610ae9565b50505050905090565b6000600a60003373ffffffffffffffffffffffffffffffffffffffff1673ffffffffffffffffffffffffffffffffffffffff16815260200190815260200160002060010154905090565b33600a60003373ffffffffffffffffffffffffffffffffffffffff1673ffffffffffffffffffffffffffffffffffffffff16815260200190815260200160002060000160006101000a81548173ffffffffffffffffffffffffffffffffffffffff021916908373ffffffffffffffffffffffffffffffffffffffff16021790555034600a60003373ffffffffffffffffffffffffffffffffffffffff1673ffffffffffffffffffffffffffffffffffffffff168152602001908152602001600020600101819055506001600a60003373ffffffffffffffffffffffffffffffffffffffff1673ffffffffffffffffffffffffffffffffffffffff16815260200190815260200160002060020160006101000a81548160ff0219169083151502179055506000600a60003373ffffffffffffffffffffffffffffffffffffffff1673ffffffffffffffffffffffffffffffffffffffff16815260200190815260200160002060020160016101000a81548160ff021916908315150217905550600d54600a60003373ffffffffffffffffffffffffffffffffffffffff1673ffffffffffffffffffffffffffffffffffffffff16815260200190815260200160002060030181905550601060a0604051908101604052803373ffffffffffffffffffffffffffffffffffffffff168152602001348152602001600115158152602001600015158152602001600d548152509080600181540180825580915050906001820390600052602060002090600402016000909192909190915060008201518160000160006101000a81548173ffffffffffffffffffffffffffffffffffffffff021916908373ffffffffffffffffffffffffffffffffffffffff1602179055506020820151816001015560408201518160020160006101000a81548160ff02191690831515021790555060608201518160020160016101000a81548160ff021916908315150217905550608082015181600301555050506001600660003373ffffffffffffffffffffffffffffffffffffffff1673ffffffffffffffffffffffffffffffffffffffff16815260200190815260200160002060006101000a81548160ff021916908315150217905550600a60003373ffffffffffffffffffffffffffffffffffffffff1673ffffffffffffffffffffffffffffffffffffffff16815260200190815260200160002060010154600c60003073ffffffffffffffffffffffffffffffffffffffff1673ffffffffffffffffffffffffffffffffffffffff16815260200190815260200160002060008282540192505081905550600d60008154809291906001019190505550610fe86117a3565b7fac9d43fa410f8a3a6ed7172f9b2457ef415c56d30b4aaabf64a6a8e632772b5733600a60003373ffffffffffffffffffffffffffffffffffffffff1673ffffffffffffffffffffffffffffffffffffffff16815260200190815260200160002060010154600d5460405161105f93929190611cd8565b60405180910390a1565b6000600b60003373ffffffffffffffffffffffffffffffffffffffff1673ffffffffffffffffffffffffffffffffffffffff1681526020019081526020016000205490506000600c60003073ffffffffffffffffffffffffffffffffffffffff1673ffffffffffffffffffffffffffffffffffffffff1681526020019081526020016000205490506000600860003373ffffffffffffffffffffffffffffffffffffffff1673ffffffffffffffffffffffffffffffffffffffff16815260200190815260200160002054905060006009600083815260200190815260200160002060010160009054906101000a900473ffffffffffffffffffffffffffffffffffffffff1690506000600a60008373ffffffffffffffffffffffffffffffffffffffff1673ffffffffffffffffffffffffffffffffffffffff16815260200190815260200160002060010154905085156112b7576001600a60008473ffffffffffffffffffffffffffffffffffffffff1673ffffffffffffffffffffffffffffffffffffffff16815260200190815260200160002060020160016101000a81548160ff02191690831515021790555080600202600c60003073ffffffffffffffffffffffffffffffffffffffff1673ffffffffffffffffffffffffffffffffffffffff168152602001908152602001600020600082825403925050819055503373ffffffffffffffffffffffffffffffffffffffff166108fc826002029081150290604051600060405180830381858888f193505050501580156112b1573d6000803e3d6000fd5b50611313565b6000600a60008473ffffffffffffffffffffffffffffffffffffffff1673ffffffffffffffffffffffffffffffffffffffff16815260200190815260200160002060020160016101000a81548160ff0219169083151502179055505b600760003373ffffffffffffffffffffffffffffffffffffffff1673ffffffffffffffffffffffffffffffffffffffff16815260200190815260200160002060009055600960008481526020019081526020016000206000808201600090556001820160006101000a81549073ffffffffffffffffffffffffffffffffffffffff021916905550506000600a60008473ffffffffffffffffffffffffffffffffffffffff1673ffffffffffffffffffffffffffffffffffffffff16815260200190815260200160002060020160006101000a81548160ff0219169083151502179055507f92133653a2c523cb4f9d23d7f48803ba3f3cc68ff25f728d0fe190d067598bee33600b60003373ffffffffffffffffffffffffffffffffffffffff1673ffffffffffffffffffffffffffffffffffffffff168152602001908152602001600020548760405161146893929190611cd8565b60405180910390a17f92133653a2c523cb4f9d23d7f48803ba3f3cc68ff25f728d0fe190d067598bee30600c60003073ffffffffffffffffffffffffffffffffffffffff1673ffffffffffffffffffffffffffffffffffffffff16815260200190815260200160002054866040516114e293929190611d0f565b60405180910390a1505050505050565b600560009054906101000a900473ffffffffffffffffffffffffffffffffffffffff1673ffffffffffffffffffffffffffffffffffffffff163373ffffffffffffffffffffffffffffffffffffffff16141515611584576040517f08c379a000000000000000000000000000000000000000000000000000000000815260040161157b90611dc7565b60405180910390fd5b34600b60003373ffffffffffffffffffffffffffffffffffffffff1673ffffffffffffffffffffffffffffffffffffffff1681526020019081526020016000206000828254019250508190555034600c60003073ffffffffffffffffffffffffffffffffffffffff1673ffffffffffffffffffffffffffffffffffffffff168152602001908152602001600020600082825401925050819055507f14558f60a55f03caac2b3dabdda0b51b20b0e22ce09a2c28cd1dc18e873578e8333460405161164f929190611caf565b60405180910390a1565b6000600c60003073ffffffffffffffffffffffffffffffffffffffff1673ffffffffffffffffffffffffffffffffffffffff16815260200190815260200160002054905090565b6000600760003373ffffffffffffffffffffffffffffffffffffffff1673ffffffffffffffffffffffffffffffffffffffff16815260200190815260200160002054905090565b6000806116f261078c565b9050600033604051602001808273ffffffffffffffffffffffffffffffffffffffff1673ffffffffffffffffffffffffffffffffffffffff166c0100000000000000000000000002815260140191505060405160208183030381529060405280519060200120905061179a81836040805190810160405280600481526020017f746573740000000000000000000000000000000000000000000000000000000081525061050d565b50809250505090565b6000809050600062030d40905060006117ba6116e7565b9050806009600083815260200190815260200160002060000181905550336009600083815260200190815260200160002060010160006101000a81548173ffffffffffffffffffffffffffffffffffffffff021916908373ffffffffffffffffffffffffffffffffffffffff16021790555080600860003373ffffffffffffffffffffffffffffffffffffffff1673ffffffffffffffffffffffffffffffffffffffff16815260200190815260200160002081905550505050565b60006118818235611efe565b905092915050565b60006118958235611f10565b905092915050565b60006118a98235611f1c565b905092915050565b600082601f83011215156118c457600080fd5b81356118d76118d282611e2f565b611e02565b915080825260208301602083018583830111156118f357600080fd5b6118fe838284611f66565b50505092915050565b600082601f830112151561191a57600080fd5b813561192d61192882611e5b565b611e02565b9150808252602083016020830185838301111561194957600080fd5b611954838284611f66565b50505092915050565b60006119698235611f26565b905092915050565b60006020828403121561198357600080fd5b600061199184828501611875565b91505092915050565b6000602082840312156119ac57600080fd5b60006119ba84828501611889565b91505092915050565b6000602082840312156119d557600080fd5b60006119e38482850161189d565b91505092915050565b600080604083850312156119ff57600080fd5b6000611a0d8582860161189d565b925050602083013567ffffffffffffffff811115611a2a57600080fd5b611a3685828601611907565b9150509250929050565b600080600060608486031215611a5557600080fd5b6000611a638682870161189d565b935050602084013567ffffffffffffffff811115611a8057600080fd5b611a8c86828701611907565b925050604084013567ffffffffffffffff811115611aa957600080fd5b611ab5868287016118b1565b9150509250925092565b600080600060608486031215611ad457600080fd5b6000611ae28682870161189d565b9350506020611af38682870161195d565b925050604084013567ffffffffffffffff811115611b1057600080fd5b611b1c868287016118b1565b9150509250925092565b600060208284031215611b3857600080fd5b6000611b468482850161195d565b91505092915050565b611b5881611f30565b82525050565b611b6781611eac565b82525050565b6000611b7882611e94565b808452602084019350611b8a83611e87565b60005b82811015611bbc57611ba0868351611c1d565b611ba982611e9f565b915060a086019550600181019050611b8d565b50849250505092915050565b611bd181611ebe565b82525050565b611be081611eca565b82525050565b6000601382527f43616c6c6572206973206e6f74206f776e6572000000000000000000000000006020830152604082019050919050565b60a082016000820151611c336000850182611b5e565b506020820151611c466020850182611c85565b506040820151611c596040850182611bc8565b506060820151611c6c6060850182611bc8565b506080820151611c7f6080850182611c85565b50505050565b611c8e81611ef4565b82525050565b6000602082019050611ca96000830184611b5e565b92915050565b6000604082019050611cc46000830185611b4f565b611cd16020830184611c85565b9392505050565b6000606082019050611ced6000830186611b4f565b611cfa6020830185611c85565b611d076040830184611c85565b949350505050565b6000606082019050611d246000830186611b5e565b611d316020830185611c85565b611d3e6040830184611c85565b949350505050565b60006020820190508181036000830152611d608184611b6d565b905092915050565b6000602082019050611d7d6000830184611bc8565b92915050565b6000602082019050611d986000830184611bd7565b92915050565b6000604082019050611db36000830185611bd7565b611dc06020830184611b5e565b9392505050565b60006020820190508181036000830152611de081611be6565b9050919050565b6000602082019050611dfc6000830184611c85565b92915050565b6000604051905081810181811067ffffffffffffffff82111715611e2557600080fd5b8060405250919050565b600067ffffffffffffffff821115611e4657600080fd5b601f19601f8301169050602081019050919050565b600067ffffffffffffffff821115611e7257600080fd5b601f19601f8301169050602081019050919050565b6000602082019050919050565b600081519050919050565b6000602082019050919050565b6000611eb782611ed4565b9050919050565b60008115159050919050565b6000819050919050565b600073ffffffffffffffffffffffffffffffffffffffff82169050919050565b6000819050919050565b6000611f0982611ed4565b9050919050565b60008115159050919050565b6000819050919050565b6000819050919050565b6000611f3b82611f42565b9050919050565b6000611f4d82611f54565b9050919050565b6000611f5f82611ed4565b9050919050565b8281833760008383015250505056fea265627a7a7230582063d7d04a16fd9702853e4b9a02bd66bb0c42b298dca642e0bdeb960fd8ef9afc6c6578706572696d656e74616cf50037",
  "source": "// SPDX-License-Identifier: MIT\r\npragma solidity >=0.4.22 <0.9.0;\r\npragma experimental ABIEncoderV2;\r\n\r\nimport \"./ProovableABI.sol\";\r\nimport \"./OnlyOwner.sol\";\r\n\r\n//make deosit contract function\r\n//change withdrawal function to withdraw all and set to onlyOwner\r\n//change the setBet function to payable and depsoit in amount\r\n//when bet is set update contract balance to inrease by bet amount\r\n//set flip function to payable so we can do a transfer. if the\r\n//bet is a win subtratc 2 * betAmount from conract balance\r\n//and transfer 2 * betAmount to player address\r\ncontract CoinFlip is usingProvable, Owner {\r\n\r\n\r\n    // *************************************************************************************************\r\n    // *            -------------------CONTRACT EVENTS--------------------------                       *                                                                            *\r\n    // *************************************************************************************************\r\n\r\n    event depositMade(address depositedBy, uint amount);\r\n    event withdrawMade(address withdrawedBy, uint amount);\r\n    event betInitialized(address player_address, uint amount, uint betId);\r\n    event coinFlipped(address playerAddress, uint result, uint betId, bool hasWon);\r\n    event newProvableQuerey(address indexed player);\r\n    event balanceUpdated(address player, uint newBalance, uint oldBalance);\r\n    event generatedRandomNumber(uint randomNumber);\r\n\r\n\r\n    // *************************************************************************************************\r\n    // *            -------------------DATA STRUCTURES--------------------------                       *                                                                            *\r\n    // *************************************************************************************************\r\n\r\n    struct Player {\r\n        address playerAddress;\r\n        uint256 betAmount;\r\n        bool isActive;\r\n        bool hasWon;\r\n        uint id;\r\n    }\r\n\r\n    struct OracleQuery {\r\n        bytes32 id;\r\n        address playerAddress;\r\n  }\r\n    \r\n    mapping(address => bool) waitingForOracle;          //stores result of the oracle RN fetch request for a player true/false\r\n    mapping(address => uint) result;                    //stores the result of the oracles random number for a player\r\n    mapping(address => bytes32) qid;                    //stores the oracle querey iD for a player\r\n    mapping(bytes32 => OracleQuery) public playerOracleqQuerey;     //oracle querey\r\n    mapping(address => Player) player;                  //player struct has attributes such as address, betAmount, player ID etc\r\n    mapping(address => uint256) playerbalance;          //player balance mapping\r\n    mapping(address => uint256) contratcBalance;        //contratc balance mappping\r\n\r\n\r\n    //initial vars set id globally increment each time a player is made\r\n    //NUM random bytes is how much bytes we request from the oracle 1 = range(0, 256) bytes\r\n    //initilaise Player array which will store each instance of a player bet for lookups\r\n    uint  private _id = 0;\r\n    uint amt;\r\n    uint private constant NUM_RANDOM_BYTES_REQUESTED = 1;\r\n    uint private contractBalance;\r\n    Player[] betLog;\r\n    \r\n\r\n    // *************************************************************************************************\r\n    // *            -------------------CONSTRUCTORS & MODIFIERS--------------------------                       *                                                                            *\r\n    // *************************************************************************************************\r\n\r\n    //init contratc balance to 0\r\n    constructor() public {\r\n       \r\n        contratcBalance[address(this)] = 0;\r\n\r\n    }\r\n    \r\n    //modifier for the bet Conditions function. cannot create a bet smaller than 0.01 eth\r\n    //the betAmiunt must be less thatn half of the contratc bal or else they payout is not possible\r\n    //no player can have more than one bet ongoing handle this with an isActive attribute\r\n    modifier betConditions {\r\n        require(amt >= 0.001 ether, \"Insuffisant amount, please increase your bet!\");\r\n        require(amt <= contratcBalance[address(this)] / 2, \"You can't bet more than half the contracts bal\");\r\n        _;\r\n    }\r\n    \r\n\r\n    // *************************************************************************************************\r\n    // *            -------------------COINFLIP ALGORITHM--------------------------                    *                                                                            *\r\n    // *************************************************************************************************\r\n\r\n\r\n    \r\n    function setBet() public payable  {\r\n\r\n        // require(playerbalance[msg.sender] > 0);\r\n        // require(amount >= 0.001, \"Insuffisant amount, please increase your bet!\");\r\n        // require(amount <= contratcBalance[address(this)] / 2, \"You can't bet more than half the contracts bal\");\r\n\r\n        //initalize a player\r\n        player[msg.sender].playerAddress = msg.sender;\r\n        player[msg.sender].betAmount = msg.value;\r\n        player[msg.sender].isActive = true;\r\n        player[msg.sender].hasWon = false;\r\n        player[msg.sender].id = _id;\r\n\r\n        //push the player to the betLog\r\n        betLog.push(Player(msg.sender, msg.value, true, false, _id));\r\n\r\n        //set waiting for oracle result to true\r\n        //and update balances / id accordingly\r\n    \twaitingForOracle[msg.sender] = true;\r\n        contratcBalance[address(this)] += player[msg.sender].betAmount;\r\n        // contratcBalance[address(this)] += player[msg.sender].betAmount;\r\n        _id++;\r\n\r\n        //call the update function which is responsible for handlu=ing the\r\n        //oracle querey request to get a external trully random number\r\n        _update();\r\n        \r\n        emit betInitialized(msg.sender, player[msg.sender].betAmount, _id);\r\n    }\r\n\r\n    //update funcion\r\n    function _update() internal {\r\n\r\n        //set execution delay to 0 and set the gas required\r\n        //to pay for the oracle for submitting a querey\r\n        uint QUERY_EXECUTION_DELAY = 0;\r\n        uint GAS_FOR_CALLBACK =200000;\r\n\r\n        //submit the oracle querey, this function is called from\r\n        //the provableABI contratc\r\n        //bytes32 query_id = provable_newRandomDSQuery(QUERY_EXECUTION_DELAY, NUM_RANDOM_BYTES_REQUESTED, GAS_FOR_CALLBACK);\r\n        bytes32 query_id = testRandom();\r\n\r\n        //after the oracle querey is settled store the result in the player\r\n        //Oracle querey struct allows us to distingish between players\r\n        playerOracleqQuerey[query_id].id = query_id;\r\n        playerOracleqQuerey[query_id].playerAddress = msg.sender;\r\n        qid[msg.sender] = query_id;\r\n\r\n        //emit LogNewProvableQuery(msg.sender);\r\n    }\r\n\r\n    //call back function is called by the oracle once the querey has been settled. \r\n    //thia function is caled via the provableABI contract. It finalises the random result\r\n    function __callback(bytes32 _queryId, uint _result, bytes memory _proof) public returns(uint) {\r\n        //require(msg.sender == provable_cbAddress());\r\n\r\n        //store the oracle generated random num\r\n        //update the player result mapping accordingly\r\n        //set waiting for oracle to false\r\n        uint randomNumber = _result;\r\n        result[msg.sender] = randomNumber;\r\n        waitingForOracle[msg.sender] = false;\r\n        // if (provable_randomDS_proofVerify__returnCode(_queryId, _result, _proof) == 0){\r\n        // uint randomNumber = uint(keccak256(abi.encodePacked(_result)))%2;\r\n        // settleBet(randomNumber, _queryId);\r\n        // emit GeneratedRandomNumber(randomNumber);\r\n        //}\r\n        // flipCoin(randomNumber);\r\n        return(randomNumber);\r\n    }\r\n\r\n    //testing function which mimics the oracle querey func\r\n    function testRandom() public returns (bytes32) {\r\n\r\n        uint randomSeed = random();\r\n        bytes32 quereyId = bytes32(keccak256(abi.encodePacked(msg.sender)));\r\n        __callback(quereyId, randomSeed, bytes(\"test\"));\r\n        return quereyId;\r\n\r\n        emit  generatedRandomNumber(randomSeed); \r\n    }\r\n   \r\n    //update tomorrow to have the flip function update struct values\r\n    //have another funcion which is then called that puts into play the effects\r\n    function flipCoin(uint randomNumber) public view returns(bool) {\r\n        \r\n        //cannot flip the coin if the player is still waiting for the \r\n        //oracles result handle that here\r\n        bytes32 quereyId = qid[msg.sender];\r\n        address playerAddress = playerOracleqQuerey[quereyId].playerAddress;\r\n        require(player[msg.sender].isActive == true);\r\n        require(waitingForOracle[playerAddress] == false);\r\n        bool betWin;\r\n        \r\n        //finalise flip\r\n        if (randomNumber == 1) {\r\n            betWin = true;\r\n        }\r\n        else {\r\n            betWin = false;\r\n        }\r\n\r\n        // emit coinFlipped(msg.sender, randomNumber, player[msg.sender].id, player[msg.sender].hasWon);\r\n      \r\n        return(betWin);\r\n    }\r\n\r\n    \r\n    //this function takes the result from the flipCoin function and settles the bet\r\n    //decreases player balance if coinflip is 0 and increases player bal in the\r\n    //coinFlip result is 1\r\n    function settleBet(bool randomSeed) public payable {\r\n\r\n        //store old player balance for events\r\n        uint256 oldPlayerBalance = playerbalance[msg.sender];\r\n        uint256 oldContractBalance = contratcBalance[address(this)];\r\n\r\n        bytes32 quereyId = qid[msg.sender];\r\n        address playerAddress = playerOracleqQuerey[quereyId].playerAddress;\r\n        uint betAmount = player[playerAddress].betAmount;\r\n\r\n        //update player balances respectively depending\r\n        //on the coinflip result\r\n        if(randomSeed) {\r\n           player[playerAddress].hasWon = true;\r\n        //    contratcBalance[address(this)] -= 2 * betAmount;\r\n           contratcBalance[address(this)] -= 2 * betAmount;\r\n           msg.sender.transfer(2 * betAmount);\r\n        }   \r\n        else {\r\n            player[playerAddress].hasWon = false;\r\n            // contratcBalance[address(this)] += betAmount;\r\n            // playerbalance[playerAddress] -= 2 * betAmount;\r\n        }\r\n\r\n        //delete player result for fresh new bet\r\n        //delete player oracle querey for fresh bet also\r\n        delete(result[msg.sender]);\r\n        delete(playerOracleqQuerey[quereyId]);\r\n        player[playerAddress].isActive = false;\r\n\r\n        emit balanceUpdated(msg.sender, playerbalance[msg.sender], oldPlayerBalance);\r\n        emit balanceUpdated(address(this), contratcBalance[address(this)], oldContractBalance);\r\n\r\n        \r\n        \r\n    }\r\n\r\n\r\n    // *************************************************************************************************\r\n    // *            -------------------DEPOSIT/WITHDRAWABLE FUNCTIONS--------------------------        *                                                                            *\r\n    // *************************************************************************************************\r\n\r\n    function withdraw() public payable isOwner {\r\n\r\n        // require(playerbalance[msg.sender] != 0);\r\n        // msg.value = 1 + amount * 10 ** 18;\r\n        \r\n        //playerbalance[msg.sender] -= amount;\r\n       \r\n        msg.sender.transfer(contratcBalance[address(this)]);\r\n        contratcBalance[address(this)]-= contratcBalance[address(this)];\r\n\r\n        //emit withdrawMade(msg.sender, amount);\r\n\r\n    }\r\n\r\n    function deposit() public payable isOwner {\r\n        playerbalance[msg.sender] += msg.value;\r\n        contratcBalance[address(this)] += msg.value;\r\n\r\n        emit depositMade(msg.sender, msg.value);\r\n    }\r\n\r\n\r\n    // *************************************************************************************************\r\n    // *            ------------------_HELPER FUNCTIONS--------------------------                      *                                                                            *\r\n    // *************************************************************************************************\r\n\r\n    //return oracle result\r\n    function getResult() public view returns (uint) {\r\n        return result[msg.sender];\r\n    }\r\n\r\n    //get Bet status, is player playing or not\r\n    function getBetStatus() public view returns(bool) {\r\n        return player[msg.sender].isActive;\r\n    }\r\n\r\n    //return msg.sender\r\n    function getPlayer() public view returns(address) {\r\n      \r\n        return msg.sender;\r\n    }\r\n    \r\n    //get contraqtc bal\r\n    function getContratcBalance() public view returns(uint) {\r\n      \r\n        return contratcBalance[address(this)];\r\n    }\r\n    \r\n     //get player bal\r\n    function getPlayerBalance() public view returns(uint) {\r\n        return contratcBalance[address(this)];\r\n    }\r\n    \r\n    //old random generater function\r\n    function random() public view returns(uint) {\r\n        return block.timestamp % 2;\r\n    }\r\n    \r\n    //return the players bet\r\n    function getCurrentBet() public view returns(uint) {\r\n        return player[msg.sender].betAmount;\r\n    }\r\n    \r\n    //return the bet Log of all bet histroys    \r\n    function getActiveBets() public view returns(Player[] memory) {\r\n        return betLog;\r\n    }\r\n}\r\n",
  "sourcePath": "C:/Users/evanm/OneDrive/Documents/EthereumProgramming/Solidity-201/CoinFlipDapp/BackEnd/contracts/CoinFlip.sol",
  "compiler": {
    "name": "solc",
    "version": "0.5.1+commit.c8a2cb62.Emscripten.clang"
  },
  "schemaVersion": "3.3.4",
  "updatedAt": "2021-06-07T14:14:24.922Z",
  "networkType": "ethereum",
  "devdoc": {
    "methods": {
      "__callback(bytes32,string)": {
        "details": "The following `__callback` functions are just placeholders ideally\r     meant to be defined in child contract when proofs are used.\r     The function bodies simply silence compiler warnings.\r"
      },
      "changeOwner(address)": {
        "details": "Change owner\r",
        "params": {
          "newOwner": "address of new owner\r"
        }
      },
      "getOwner()": {
        "details": "Return owner address\r",
        "return": "address of owner\r"
      }
    }
  },
  "userdoc": {
    "methods": {}
  }
}