{
  "contractName": "CoinFlip",
  "abi": [
    {
      "inputs": [],
      "stateMutability": "nonpayable",
      "type": "constructor"
    },
    {
      "anonymous": false,
      "inputs": [
        {
          "indexed": true,
          "internalType": "address",
          "name": "player",
          "type": "address"
        },
        {
          "indexed": false,
          "internalType": "bool",
          "name": "won",
          "type": "bool"
        },
        {
          "indexed": false,
          "internalType": "uint256",
          "name": "amountWon",
          "type": "uint256"
        }
      ],
      "name": "FlipResult",
      "type": "event"
    },
    {
      "anonymous": false,
      "inputs": [
        {
          "indexed": true,
          "internalType": "address",
          "name": "player",
          "type": "address"
        }
      ],
      "name": "LogNewProvableQuery",
      "type": "event"
    },
    {
      "anonymous": false,
      "inputs": [
        {
          "indexed": true,
          "internalType": "address",
          "name": "oldOwner",
          "type": "address"
        },
        {
          "indexed": true,
          "internalType": "address",
          "name": "newOwner",
          "type": "address"
        }
      ],
      "name": "OwnerSet",
      "type": "event"
    },
    {
      "anonymous": false,
      "inputs": [
        {
          "indexed": false,
          "internalType": "address",
          "name": "player",
          "type": "address"
        },
        {
          "indexed": false,
          "internalType": "uint256",
          "name": "newBalance",
          "type": "uint256"
        },
        {
          "indexed": false,
          "internalType": "uint256",
          "name": "oldBalance",
          "type": "uint256"
        }
      ],
      "name": "balanceUpdated",
      "type": "event"
    },
    {
      "anonymous": false,
      "inputs": [
        {
          "indexed": false,
          "internalType": "address",
          "name": "player_address",
          "type": "address"
        },
        {
          "indexed": false,
          "internalType": "uint256",
          "name": "amount",
          "type": "uint256"
        },
        {
          "indexed": false,
          "internalType": "uint256",
          "name": "betId",
          "type": "uint256"
        }
      ],
      "name": "betInitialized",
      "type": "event"
    },
    {
      "anonymous": false,
      "inputs": [
        {
          "indexed": false,
          "internalType": "address",
          "name": "playerAddress",
          "type": "address"
        },
        {
          "indexed": false,
          "internalType": "uint256",
          "name": "betId",
          "type": "uint256"
        },
        {
          "indexed": false,
          "internalType": "bool",
          "name": "hasWon",
          "type": "bool"
        }
      ],
      "name": "coinFlipped",
      "type": "event"
    },
    {
      "anonymous": false,
      "inputs": [
        {
          "indexed": false,
          "internalType": "address",
          "name": "depositedBy",
          "type": "address"
        },
        {
          "indexed": false,
          "internalType": "uint256",
          "name": "amount",
          "type": "uint256"
        }
      ],
      "name": "depositMade",
      "type": "event"
    },
    {
      "anonymous": false,
      "inputs": [
        {
          "indexed": false,
          "internalType": "uint256",
          "name": "randomNumber",
          "type": "uint256"
        }
      ],
      "name": "generatedRandomNumber",
      "type": "event"
    },
    {
      "anonymous": false,
      "inputs": [
        {
          "indexed": false,
          "internalType": "address",
          "name": "withdrawedBy",
          "type": "address"
        },
        {
          "indexed": false,
          "internalType": "uint256",
          "name": "amount",
          "type": "uint256"
        }
      ],
      "name": "withdrawMade",
      "type": "event"
    },
    {
      "inputs": [],
      "name": "RandomResult",
      "outputs": [
        {
          "internalType": "uint256",
          "name": "",
          "type": "uint256"
        }
      ],
      "stateMutability": "view",
      "type": "function"
    },
    {
      "inputs": [
        {
          "internalType": "address",
          "name": "newOwner",
          "type": "address"
        }
      ],
      "name": "changeOwner",
      "outputs": [],
      "stateMutability": "nonpayable",
      "type": "function"
    },
    {
      "inputs": [],
      "name": "getOwner",
      "outputs": [
        {
          "internalType": "address",
          "name": "",
          "type": "address"
        }
      ],
      "stateMutability": "view",
      "type": "function"
    },
    {
      "inputs": [
        {
          "internalType": "uint256",
          "name": "",
          "type": "uint256"
        }
      ],
      "name": "playerOracleqQuerey",
      "outputs": [
        {
          "internalType": "bytes32",
          "name": "id",
          "type": "bytes32"
        },
        {
          "internalType": "address",
          "name": "playerAddress",
          "type": "address"
        }
      ],
      "stateMutability": "view",
      "type": "function"
    },
    {
      "inputs": [
        {
          "internalType": "bytes32",
          "name": "requestId",
          "type": "bytes32"
        },
        {
          "internalType": "uint256",
          "name": "randomness",
          "type": "uint256"
        }
      ],
      "name": "rawFulfillRandomness",
      "outputs": [],
      "stateMutability": "nonpayable",
      "type": "function"
    },
    {
      "inputs": [
        {
          "internalType": "uint256",
          "name": "_betType",
          "type": "uint256"
        }
      ],
      "name": "setBet",
      "outputs": [],
      "stateMutability": "payable",
      "type": "function"
    },
    {
      "inputs": [],
      "name": "flipCoin",
      "outputs": [],
      "stateMutability": "nonpayable",
      "type": "function"
    },
    {
      "inputs": [],
      "name": "settleBet",
      "outputs": [],
      "stateMutability": "payable",
      "type": "function"
    },
    {
      "inputs": [],
      "name": "withdraw",
      "outputs": [],
      "stateMutability": "payable",
      "type": "function"
    },
    {
      "inputs": [],
      "name": "deposit",
      "outputs": [],
      "stateMutability": "payable",
      "type": "function"
    },
    {
      "inputs": [],
      "name": "Flipped",
      "outputs": [
        {
          "internalType": "bool",
          "name": "",
          "type": "bool"
        }
      ],
      "stateMutability": "view",
      "type": "function"
    },
    {
      "inputs": [],
      "name": "notWaiting",
      "outputs": [
        {
          "internalType": "bool",
          "name": "",
          "type": "bool"
        }
      ],
      "stateMutability": "nonpayable",
      "type": "function"
    },
    {
      "inputs": [],
      "name": "canCelBet",
      "outputs": [],
      "stateMutability": "nonpayable",
      "type": "function"
    },
    {
      "inputs": [],
      "name": "getBetType",
      "outputs": [
        {
          "internalType": "uint256",
          "name": "",
          "type": "uint256"
        }
      ],
      "stateMutability": "view",
      "type": "function"
    },
    {
      "inputs": [],
      "name": "getRandomNumber",
      "outputs": [
        {
          "internalType": "uint256",
          "name": "",
          "type": "uint256"
        }
      ],
      "stateMutability": "view",
      "type": "function"
    },
    {
      "inputs": [],
      "name": "getBetStatus",
      "outputs": [
        {
          "internalType": "bool",
          "name": "",
          "type": "bool"
        }
      ],
      "stateMutability": "view",
      "type": "function"
    },
    {
      "inputs": [],
      "name": "getQueryLog",
      "outputs": [
        {
          "components": [
            {
              "internalType": "bytes32",
              "name": "id",
              "type": "bytes32"
            },
            {
              "internalType": "address",
              "name": "playerAddress",
              "type": "address"
            }
          ],
          "internalType": "struct CoinFlip.OracleQuery[]",
          "name": "",
          "type": "tuple[]"
        }
      ],
      "stateMutability": "view",
      "type": "function"
    },
    {
      "inputs": [],
      "name": "hasWon",
      "outputs": [
        {
          "internalType": "bool",
          "name": "",
          "type": "bool"
        }
      ],
      "stateMutability": "view",
      "type": "function"
    },
    {
      "inputs": [],
      "name": "getPlayer",
      "outputs": [
        {
          "internalType": "address",
          "name": "",
          "type": "address"
        }
      ],
      "stateMutability": "view",
      "type": "function"
    },
    {
      "inputs": [],
      "name": "getContratcBalance",
      "outputs": [
        {
          "internalType": "uint256",
          "name": "",
          "type": "uint256"
        }
      ],
      "stateMutability": "view",
      "type": "function"
    },
    {
      "inputs": [],
      "name": "getCurrentBet",
      "outputs": [
        {
          "internalType": "uint256",
          "name": "",
          "type": "uint256"
        }
      ],
      "stateMutability": "view",
      "type": "function"
    },
    {
      "inputs": [],
      "name": "getActiveBets",
      "outputs": [
        {
          "components": [
            {
              "internalType": "address",
              "name": "playerAddress",
              "type": "address"
            },
            {
              "internalType": "uint256",
              "name": "betAmount",
              "type": "uint256"
            },
            {
              "internalType": "bool",
              "name": "hasWon",
              "type": "bool"
            },
            {
              "internalType": "string",
              "name": "bet_type",
              "type": "string"
            },
            {
              "internalType": "uint256",
              "name": "id",
              "type": "uint256"
            }
          ],
          "internalType": "struct CoinFlip.Player[]",
          "name": "",
          "type": "tuple[]"
        }
      ],
      "stateMutability": "view",
      "type": "function"
    }
  ],
  "bytecode": "0x60c06040526000600c5534801561001557600080fd5b5073dd3782915140c8f3b190b5d67eac6dc5760c46e973a36085f69e2889c224210f603d836748e7dc00888173ffffffffffffffffffffffffffffffffffffffff1660a08173ffffffffffffffffffffffffffffffffffffffff1660601b815250508073ffffffffffffffffffffffffffffffffffffffff1660808173ffffffffffffffffffffffffffffffffffffffff1660601b81525050505033600160006101000a81548173ffffffffffffffffffffffffffffffffffffffff021916908373ffffffffffffffffffffffffffffffffffffffff160217905550600160009054906101000a900473ffffffffffffffffffffffffffffffffffffffff1673ffffffffffffffffffffffffffffffffffffffff16600073ffffffffffffffffffffffffffffffffffffffff167f342827c97908e5e2f71151c08502a66d44b6f758e3ac2f1de95f02eb95f0a73560405160405180910390a36000600760003073ffffffffffffffffffffffffffffffffffffffff1673ffffffffffffffffffffffffffffffffffffffff168152602001908152602001600020819055507f6c3699283bda56ad74f6b855546325b68d482e983852a7a82979cc4807b641f460001b600e8190555067016345785d8a0000600f8190555060805160601c60a05160601c613a4861021f6000398061180452806129c25250806125f652806129865250613a486000f3fe6080604052600436106101355760003560e01c8063893d20e8116100ab578063b78974851161006f578063b78974851461037c578063d0e30db0146103a7578063d9b37faf146103b1578063dbdff2c1146103dc578063e271af1714610407578063e8399cc61461044557610135565b8063893d20e8146102ca5780638e4bf820146102f557806394985ddd146102ff578063a6f9dae114610328578063ada730201461035157610135565b80633308f42d116100fd5780633308f42d146101fd5780633a506992146102285780633ccfd60b1461025357806347fd79f11461025d578063799ae2231461028857806380435e8f1461029f57610135565b80630275b9531461013a57806309c56023146101655780630b20382a146101905780631fa859e8146101a757806320a9158d146101d2575b600080fd5b34801561014657600080fd5b5061014f610461565b60405161015c91906135e2565b60405180910390f35b34801561017157600080fd5b5061017a61050c565b60405161018791906137bd565b60405180910390f35b34801561019c57600080fd5b506101a5610553565b005b3480156101b357600080fd5b506101bc6107fc565b6040516101c991906135e2565b60405180910390f35b3480156101de57600080fd5b506101e7610850565b6040516101f491906135e2565b60405180910390f35b34801561020957600080fd5b506102126108a7565b60405161021f9190613477565b60405180910390f35b34801561023457600080fd5b5061023d6108af565b60405161024a919061359e565b60405180910390f35b61025b61096e565b005b34801561026957600080fd5b50610272610b8a565b60405161027f91906137bd565b60405180910390f35b34801561029457600080fd5b5061029d610b90565b005b3480156102ab57600080fd5b506102b4610dfa565b6040516102c191906135e2565b60405180910390f35b3480156102d657600080fd5b506102df610e4e565b6040516102ec9190613477565b60405180910390f35b6102fd610e78565b005b34801561030b57600080fd5b5061032660048036038101906103219190612df1565b611802565b005b34801561033457600080fd5b5061034f600480360381019061034a9190612d9f565b61189e565b005b34801561035d57600080fd5b506103666119ee565b60405161037391906135c0565b60405180910390f35b34801561038857600080fd5b50610391611b74565b60405161039e91906137bd565b60405180910390f35b6103af611bbe565b005b3480156103bd57600080fd5b506103c6611cd6565b6040516103d391906137bd565b60405180910390f35b3480156103e857600080fd5b506103f1611d1d565b6040516103fe91906137bd565b60405180910390f35b34801561041357600080fd5b5061042e60048036038101906104299190612e2d565b611d27565b60405161043c929190613626565b60405180910390f35b61045f600480360381019061045a9190612e2d565b611d6b565b005b600080600360003373ffffffffffffffffffffffffffffffffffffffff1673ffffffffffffffffffffffffffffffffffffffff16815260200190815260200160002060006101000a81548160ff021916908315150217905550600360003373ffffffffffffffffffffffffffffffffffffffff1673ffffffffffffffffffffffffffffffffffffffff16815260200190815260200160002060009054906101000a900460ff16905090565b6000600860003373ffffffffffffffffffffffffffffffffffffffff1673ffffffffffffffffffffffffffffffffffffffff16815260200190815260200160002054905090565b60006010805490501161056557600080fd5b60011515600460003373ffffffffffffffffffffffffffffffffffffffff1673ffffffffffffffffffffffffffffffffffffffff16815260200190815260200160002060009054906101000a900460ff161515146105c257600080fd5b60001515600960003373ffffffffffffffffffffffffffffffffffffffff1673ffffffffffffffffffffffffffffffffffffffff16815260200190815260200160002060009054906101000a900460ff1615151461061f57600080fd5b60001515600360003373ffffffffffffffffffffffffffffffffffffffff1673ffffffffffffffffffffffffffffffffffffffff16815260200190815260200160002060009054906101000a900460ff1615151461067c57600080fd5b6000600460003373ffffffffffffffffffffffffffffffffffffffff1673ffffffffffffffffffffffffffffffffffffffff16815260200190815260200160002060006101000a81548160ff021916908315150217905550600660003373ffffffffffffffffffffffffffffffffffffffff1673ffffffffffffffffffffffffffffffffffffffff16815260200190815260200160002060010154600760003073ffffffffffffffffffffffffffffffffffffffff1673ffffffffffffffffffffffffffffffffffffffff168152602001908152602001600020600082825403925050819055503373ffffffffffffffffffffffffffffffffffffffff166108fc600660003373ffffffffffffffffffffffffffffffffffffffff1673ffffffffffffffffffffffffffffffffffffffff168152602001908152602001600020600101549081150290604051600060405180830381858888f193505050501580156107eb573d6000803e3d6000fd5b50601060006107fa9190612bab565b565b6000600460003373ffffffffffffffffffffffffffffffffffffffff1673ffffffffffffffffffffffffffffffffffffffff16815260200190815260200160002060009054906101000a900460ff16905090565b6000600660003373ffffffffffffffffffffffffffffffffffffffff1673ffffffffffffffffffffffffffffffffffffffff16815260200190815260200160002060020160009054906101000a900460ff16905090565b600033905090565b60606011805480602002602001604051908101604052809291908181526020016000905b828210156109655783829060005260206000209060020201604051806040016040529081600082015481526020016001820160009054906101000a900473ffffffffffffffffffffffffffffffffffffffff1673ffffffffffffffffffffffffffffffffffffffff1673ffffffffffffffffffffffffffffffffffffffff1681525050815260200190600101906108d3565b50505050905090565b600160009054906101000a900473ffffffffffffffffffffffffffffffffffffffff1673ffffffffffffffffffffffffffffffffffffffff163373ffffffffffffffffffffffffffffffffffffffff16146109fe576040517f08c379a00000000000000000000000000000000000000000000000000000000081526004016109f5906136dd565b60405180910390fd5b3373ffffffffffffffffffffffffffffffffffffffff166108fc600760003073ffffffffffffffffffffffffffffffffffffffff1673ffffffffffffffffffffffffffffffffffffffff168152602001908152602001600020549081150290604051600060405180830381858888f19350505050158015610a83573d6000803e3d6000fd5b50600760003073ffffffffffffffffffffffffffffffffffffffff1673ffffffffffffffffffffffffffffffffffffffff16815260200190815260200160002054600760003073ffffffffffffffffffffffffffffffffffffffff1673ffffffffffffffffffffffffffffffffffffffff168152602001908152602001600020600082825403925050819055507f45a5602c79d2f9db9cdf3d61199b5f0176590cbc0fdb04e0734f97a000b9796733600760003073ffffffffffffffffffffffffffffffffffffffff1673ffffffffffffffffffffffffffffffffffffffff16815260200190815260200160002054604051610b80929190613492565b60405180910390a1565b600b5481565b60011515600460003373ffffffffffffffffffffffffffffffffffffffff1673ffffffffffffffffffffffffffffffffffffffff16815260200190815260200160002060009054906101000a900460ff16151514610bed57600080fd5b60001515600360003373ffffffffffffffffffffffffffffffffffffffff1673ffffffffffffffffffffffffffffffffffffffff16815260200190815260200160002060009054906101000a900460ff16151514610c4a57600080fd5b6001600360003373ffffffffffffffffffffffffffffffffffffffff1673ffffffffffffffffffffffffffffffffffffffff16815260200190815260200160002060006101000a81548160ff0219169083151502179055506001600960003373ffffffffffffffffffffffffffffffffffffffff1673ffffffffffffffffffffffffffffffffffffffff16815260200190815260200160002060006101000a81548160ff021916908315150217905550610d2e3342604051602001610d1092919061341f565b6040516020818303038152906040528051906020012060001c6125ef565b507fd6389208150097bf0cf1ab325675a453d742e9f5fff1167dc44b983fade37d0533600660003373ffffffffffffffffffffffffffffffffffffffff1673ffffffffffffffffffffffffffffffffffffffff16815260200190815260200160002060040154600460003373ffffffffffffffffffffffffffffffffffffffff1673ffffffffffffffffffffffffffffffffffffffff16815260200190815260200160002060009054906101000a900460ff16604051610df0939291906134bb565b60405180910390a1565b6000600960003373ffffffffffffffffffffffffffffffffffffffff1673ffffffffffffffffffffffffffffffffffffffff16815260200190815260200160002060009054906101000a900460ff16905090565b6000600160009054906101000a900473ffffffffffffffffffffffffffffffffffffffff16905090565b60011515600960003373ffffffffffffffffffffffffffffffffffffffff1673ffffffffffffffffffffffffffffffffffffffff16815260200190815260200160002060009054906101000a900460ff16151514610ed557600080fd5b600460003373ffffffffffffffffffffffffffffffffffffffff1673ffffffffffffffffffffffffffffffffffffffff16815260200190815260200160002060009054906101000a900460ff16610f2b57600080fd5b60001515600360003373ffffffffffffffffffffffffffffffffffffffff1673ffffffffffffffffffffffffffffffffffffffff16815260200190815260200160002060009054906101000a900460ff16151514610f8857600080fd5b6001600b541415611028576001600660003373ffffffffffffffffffffffffffffffffffffffff1673ffffffffffffffffffffffffffffffffffffffff16815260200190815260200160002060020160006101000a81548160ff02191690831515021790555060016010600c5481548110610fff57fe5b906000526020600020906005020160020160006101000a81548160ff0219169083151502179055505b6000600760003073ffffffffffffffffffffffffffffffffffffffff1673ffffffffffffffffffffffffffffffffffffffff1681526020019081526020016000205490506000600660003373ffffffffffffffffffffffffffffffffffffffff1673ffffffffffffffffffffffffffffffffffffffff168152602001908152602001600020600101549050600660003373ffffffffffffffffffffffffffffffffffffffff1673ffffffffffffffffffffffffffffffffffffffff16815260200190815260200160002060020160009054906101000a900460ff16801561114e57506000600860003373ffffffffffffffffffffffffffffffffffffffff1673ffffffffffffffffffffffffffffffffffffffff16815260200190815260200160002054145b156112ca57600660003373ffffffffffffffffffffffffffffffffffffffff1673ffffffffffffffffffffffffffffffffffffffff16815260200190815260200160002060010154600202600760003073ffffffffffffffffffffffffffffffffffffffff1673ffffffffffffffffffffffffffffffffffffffff168152602001908152602001600020600082825403925050819055503373ffffffffffffffffffffffffffffffffffffffff166108fc600660003373ffffffffffffffffffffffffffffffffffffffff1673ffffffffffffffffffffffffffffffffffffffff168152602001908152602001600020600101546002029081150290604051600060405180830381858888f19350505050158015611270573d6000803e3d6000fd5b503373ffffffffffffffffffffffffffffffffffffffff167f1f2ff94143ec2e58ace01e22de3975718247435e2d23d05b66eb402230d8281e6001600284026040516112bd9291906135fd565b60405180910390a26116d4565b600660003373ffffffffffffffffffffffffffffffffffffffff1673ffffffffffffffffffffffffffffffffffffffff16815260200190815260200160002060020160009054906101000a900460ff1615801561136657506000600860003373ffffffffffffffffffffffffffffffffffffffff1673ffffffffffffffffffffffffffffffffffffffff16815260200190815260200160002054145b156113c4573373ffffffffffffffffffffffffffffffffffffffff167f1f2ff94143ec2e58ace01e22de3975718247435e2d23d05b66eb402230d8281e6001600284026040516113b79291906135fd565b60405180910390a26116d3565b600660003373ffffffffffffffffffffffffffffffffffffffff1673ffffffffffffffffffffffffffffffffffffffff16815260200190815260200160002060020160009054906101000a900460ff16801561145f57506001600860003373ffffffffffffffffffffffffffffffffffffffff1673ffffffffffffffffffffffffffffffffffffffff16815260200190815260200160002054145b156115db57600660003373ffffffffffffffffffffffffffffffffffffffff1673ffffffffffffffffffffffffffffffffffffffff16815260200190815260200160002060010154600402600760003073ffffffffffffffffffffffffffffffffffffffff1673ffffffffffffffffffffffffffffffffffffffff168152602001908152602001600020600082825403925050819055503373ffffffffffffffffffffffffffffffffffffffff166108fc600660003373ffffffffffffffffffffffffffffffffffffffff1673ffffffffffffffffffffffffffffffffffffffff168152602001908152602001600020600101546004029081150290604051600060405180830381858888f19350505050158015611581573d6000803e3d6000fd5b503373ffffffffffffffffffffffffffffffffffffffff167f1f2ff94143ec2e58ace01e22de3975718247435e2d23d05b66eb402230d8281e6001600284026040516115ce9291906135fd565b60405180910390a26116d2565b600660003373ffffffffffffffffffffffffffffffffffffffff1673ffffffffffffffffffffffffffffffffffffffff16815260200190815260200160002060020160009054906101000a900460ff1615801561167757506001600860003373ffffffffffffffffffffffffffffffffffffffff1673ffffffffffffffffffffffffffffffffffffffff16815260200190815260200160002054145b156116d1573373ffffffffffffffffffffffffffffffffffffffff167f1f2ff94143ec2e58ace01e22de3975718247435e2d23d05b66eb402230d8281e6001600284026040516116c89291906135fd565b60405180910390a25b5b5b5b6000600360003373ffffffffffffffffffffffffffffffffffffffff1673ffffffffffffffffffffffffffffffffffffffff16815260200190815260200160002060006101000a81548160ff0219169083151502179055506000600460003373ffffffffffffffffffffffffffffffffffffffff1673ffffffffffffffffffffffffffffffffffffffff16815260200190815260200160002060006101000a81548160ff0219169083151502179055507f92133653a2c523cb4f9d23d7f48803ba3f3cc68ff25f728d0fe190d067598bee30600760003073ffffffffffffffffffffffffffffffffffffffff1673ffffffffffffffffffffffffffffffffffffffff16815260200190815260200160002054846040516117f693929190613567565b60405180910390a15050565b7f000000000000000000000000000000000000000000000000000000000000000073ffffffffffffffffffffffffffffffffffffffff163373ffffffffffffffffffffffffffffffffffffffff1614611890576040517f08c379a00000000000000000000000000000000000000000000000000000000081526004016118879061375d565b60405180910390fd5b61189a82826126f4565b5050565b600160009054906101000a900473ffffffffffffffffffffffffffffffffffffffff1673ffffffffffffffffffffffffffffffffffffffff163373ffffffffffffffffffffffffffffffffffffffff161461192e576040517f08c379a0000000000000000000000000000000000000000000000000000000008152600401611925906136dd565b60405180910390fd5b8073ffffffffffffffffffffffffffffffffffffffff16600160009054906101000a900473ffffffffffffffffffffffffffffffffffffffff1673ffffffffffffffffffffffffffffffffffffffff167f342827c97908e5e2f71151c08502a66d44b6f758e3ac2f1de95f02eb95f0a73560405160405180910390a380600160006101000a81548173ffffffffffffffffffffffffffffffffffffffff021916908373ffffffffffffffffffffffffffffffffffffffff16021790555050565b60606010805480602002602001604051908101604052809291908181526020016000905b82821015611b6b57838290600052602060002090600502016040518060a00160405290816000820160009054906101000a900473ffffffffffffffffffffffffffffffffffffffff1673ffffffffffffffffffffffffffffffffffffffff1673ffffffffffffffffffffffffffffffffffffffff168152602001600182015481526020016002820160009054906101000a900460ff16151515158152602001600382018054600181600116156101000203166002900480601f016020809104026020016040519081016040528092919081815260200182805460018160011615610100020316600290048015611b495780601f10611b1e57610100808354040283529160200191611b49565b820191906000526020600020905b815481529060010190602001808311611b2c57829003601f168201915b5050505050815260200160048201548152505081526020019060010190611a12565b50505050905090565b6000600660003373ffffffffffffffffffffffffffffffffffffffff1673ffffffffffffffffffffffffffffffffffffffff16815260200190815260200160002060010154905090565b600160009054906101000a900473ffffffffffffffffffffffffffffffffffffffff1673ffffffffffffffffffffffffffffffffffffffff163373ffffffffffffffffffffffffffffffffffffffff1614611c4e576040517f08c379a0000000000000000000000000000000000000000000000000000000008152600401611c45906136dd565b60405180910390fd5b34600760003073ffffffffffffffffffffffffffffffffffffffff1673ffffffffffffffffffffffffffffffffffffffff168152602001908152602001600020600082825401925050819055507f14558f60a55f03caac2b3dabdda0b51b20b0e22ce09a2c28cd1dc18e873578e83334604051611ccc929190613492565b60405180910390a1565b6000600760003073ffffffffffffffffffffffffffffffffffffffff1673ffffffffffffffffffffffffffffffffffffffff16815260200190815260200160002054905090565b6000600b54905090565b60056020528060005260406000206000915090508060000154908060010160009054906101000a900473ffffffffffffffffffffffffffffffffffffffff16905082565b66038d7ea4c68000341015611db5576040517f08c379a0000000000000000000000000000000000000000000000000000000008152600401611dac9061379d565b60405180910390fd5b60001515600460003373ffffffffffffffffffffffffffffffffffffffff1673ffffffffffffffffffffffffffffffffffffffff16815260200190815260200160002060009054906101000a900460ff16151514611e48576040517f08c379a0000000000000000000000000000000000000000000000000000000008152600401611e3f906136bd565b60405180910390fd5b6001600860003373ffffffffffffffffffffffffffffffffffffffff1673ffffffffffffffffffffffffffffffffffffffff168152602001908152602001600020541415611f21576002600760003073ffffffffffffffffffffffffffffffffffffffff1673ffffffffffffffffffffffffffffffffffffffff1681526020019081526020016000205481611ed957fe5b04341115611f1c576040517f08c379a0000000000000000000000000000000000000000000000000000000008152600401611f139061373d565b60405180910390fd5b611fae565b6004600760003073ffffffffffffffffffffffffffffffffffffffff1673ffffffffffffffffffffffffffffffffffffffff1681526020019081526020016000205481611f6a57fe5b04341115611fad576040517f08c379a0000000000000000000000000000000000000000000000000000000008152600401611fa49061377d565b60405180910390fd5b5b6060600182141561203b576040518060400160405280600581526020017f486561647300000000000000000000000000000000000000000000000000000081525090506001600860003373ffffffffffffffffffffffffffffffffffffffff1673ffffffffffffffffffffffffffffffffffffffff168152602001908152602001600020819055506120b9565b6040518060400160405280600581526020017f5461696c7300000000000000000000000000000000000000000000000000000081525090506000600860003373ffffffffffffffffffffffffffffffffffffffff1673ffffffffffffffffffffffffffffffffffffffff168152602001908152602001600020819055505b33600660003373ffffffffffffffffffffffffffffffffffffffff1673ffffffffffffffffffffffffffffffffffffffff16815260200190815260200160002060000160006101000a81548173ffffffffffffffffffffffffffffffffffffffff021916908373ffffffffffffffffffffffffffffffffffffffff16021790555034600660003373ffffffffffffffffffffffffffffffffffffffff1673ffffffffffffffffffffffffffffffffffffffff168152602001908152602001600020600101819055506000600660003373ffffffffffffffffffffffffffffffffffffffff1673ffffffffffffffffffffffffffffffffffffffff16815260200190815260200160002060020160006101000a81548160ff02191690831515021790555080600660003373ffffffffffffffffffffffffffffffffffffffff1673ffffffffffffffffffffffffffffffffffffffff1681526020019081526020016000206003019080519060200190612232929190612bcf565b50600c54600660003373ffffffffffffffffffffffffffffffffffffffff1673ffffffffffffffffffffffffffffffffffffffff1681526020019081526020016000206004018190555060106040518060a001604052803373ffffffffffffffffffffffffffffffffffffffff168152602001348152602001600015158152602001838152602001600c54815250908060018154018082558091505060019003906000526020600020906005020160009091909190915060008201518160000160006101000a81548173ffffffffffffffffffffffffffffffffffffffff021916908373ffffffffffffffffffffffffffffffffffffffff1602179055506020820151816001015560408201518160020160006101000a81548160ff0219169083151502179055506060820151816003019080519060200190612376929190612bcf565b506080820151816004015550506001600460003373ffffffffffffffffffffffffffffffffffffffff1673ffffffffffffffffffffffffffffffffffffffff16815260200190815260200160002060006101000a81548160ff0219169083151502179055506000600960003373ffffffffffffffffffffffffffffffffffffffff1673ffffffffffffffffffffffffffffffffffffffff16815260200190815260200160002060006101000a81548160ff0219169083151502179055506000600360003373ffffffffffffffffffffffffffffffffffffffff1673ffffffffffffffffffffffffffffffffffffffff16815260200190815260200160002060006101000a81548160ff021916908315150217905550600660003373ffffffffffffffffffffffffffffffffffffffff1673ffffffffffffffffffffffffffffffffffffffff16815260200190815260200160002060010154600760003073ffffffffffffffffffffffffffffffffffffffff1673ffffffffffffffffffffffffffffffffffffffff16815260200190815260200160002060008282540192505081905550600c600081548092919060010191905055507fac9d43fa410f8a3a6ed7172f9b2457ef415c56d30b4aaabf64a6a8e632772b5733600660003373ffffffffffffffffffffffffffffffffffffffff1673ffffffffffffffffffffffffffffffffffffffff16815260200190815260200160002060010154600660003373ffffffffffffffffffffffffffffffffffffffff1673ffffffffffffffffffffffffffffffffffffffff168152602001908152602001600020600401546040516125e3939291906134f2565b60405180910390a15050565b6000600f547f000000000000000000000000000000000000000000000000000000000000000073ffffffffffffffffffffffffffffffffffffffff166370a08231306040518263ffffffff1660e01b815260040161264d9190613477565b60206040518083038186803b15801561266557600080fd5b505afa158015612679573d6000803e3d6000fd5b505050506040513d601f19601f8201168201806040525081019061269d9190612e56565b10156126de576040517f08c379a00000000000000000000000000000000000000000000000000000000081526004016126d59061371d565b60405180910390fd5b6126ed600e54600f5484612982565b9050919050565b81600260003373ffffffffffffffffffffffffffffffffffffffff1673ffffffffffffffffffffffffffffffffffffffff168152602001908152602001600020819055503360056000600660003373ffffffffffffffffffffffffffffffffffffffff1673ffffffffffffffffffffffffffffffffffffffff16815260200190815260200160002060040154815260200190815260200160002060010160006101000a81548173ffffffffffffffffffffffffffffffffffffffff021916908373ffffffffffffffffffffffffffffffffffffffff1602179055508160056000600660003373ffffffffffffffffffffffffffffffffffffffff1673ffffffffffffffffffffffffffffffffffffffff16815260200190815260200160002060040154815260200190815260200160002060000181905550601160405180604001604052808481526020013373ffffffffffffffffffffffffffffffffffffffff1681525090806001815401808255809150506001900390600052602060002090600202016000909190919091506000820151816000015560208201518160010160006101000a81548173ffffffffffffffffffffffffffffffffffffffff021916908373ffffffffffffffffffffffffffffffffffffffff16021790555050506000600860003373ffffffffffffffffffffffffffffffffffffffff1673ffffffffffffffffffffffffffffffffffffffff168152602001908152602001600020541415612933576002818161292757fe5b06600b81905550612945565b6004818161293d57fe5b06600b819055505b7fc13d60fe9dffdb6908d2d446cd18134373a51db0738ee04f296eeb9128121cbc600b5460405161297691906137bd565b60405180910390a15050565b60007f000000000000000000000000000000000000000000000000000000000000000073ffffffffffffffffffffffffffffffffffffffff16634000aea07f00000000000000000000000000000000000000000000000000000000000000008587866040516020016129f592919061364f565b6040516020818303038152906040526040518463ffffffff1660e01b8152600401612a2293929190613529565b602060405180830381600087803b158015612a3c57600080fd5b505af1158015612a50573d6000803e3d6000fd5b505050506040513d601f19601f82011682018060405250810190612a749190612dc8565b506000612a958584306000808a815260200190815260200160002054612ae7565b9050612abd600160008088815260200190815260200160002054612b2390919063ffffffff16565b60008087815260200190815260200160002081905550612add8582612b78565b9150509392505050565b600084848484604051602001612b009493929190613678565b6040516020818303038152906040528051906020012060001c9050949350505050565b600080828401905083811015612b6e576040517f08c379a0000000000000000000000000000000000000000000000000000000008152600401612b65906136fd565b60405180910390fd5b8091505092915050565b60008282604051602001612b8d92919061344b565b60405160208183030381529060405280519060200120905092915050565b5080546000825560050290600052602060002090810190612bcc9190612c4f565b50565b828054600181600116156101000203166002900490600052602060002090601f016020900481019282601f10612c1057805160ff1916838001178555612c3e565b82800160010185558215612c3e579182015b82811115612c3d578251825591602001919060010190612c22565b5b509050612c4b9190612cc9565b5090565b612cc691905b80821115612cc257600080820160006101000a81549073ffffffffffffffffffffffffffffffffffffffff021916905560018201600090556002820160006101000a81549060ff0219169055600382016000612cb19190612cee565b600482016000905550600501612c55565b5090565b90565b612ceb91905b80821115612ce7576000816000905550600101612ccf565b5090565b90565b50805460018160011615610100020316600290046000825580601f10612d145750612d33565b601f016020900490600052602060002090810190612d329190612cc9565b5b50565b600081359050612d45816139b6565b92915050565b600081519050612d5a816139cd565b92915050565b600081359050612d6f816139e4565b92915050565b600081359050612d84816139fb565b92915050565b600081519050612d99816139fb565b92915050565b600060208284031215612db157600080fd5b6000612dbf84828501612d36565b91505092915050565b600060208284031215612dda57600080fd5b6000612de884828501612d4b565b91505092915050565b60008060408385031215612e0457600080fd5b6000612e1285828601612d60565b9250506020612e2385828601612d75565b9150509250929050565b600060208284031215612e3f57600080fd5b6000612e4d84828501612d75565b91505092915050565b600060208284031215612e6857600080fd5b6000612e7684828501612d8a565b91505092915050565b6000612e8b8383613345565b60408301905092915050565b6000612ea38383613374565b905092915050565b612eb4816138f7565b82525050565b612ecb612ec6826138a5565b613960565b82525050565b612eda81613893565b82525050565b612ee981613893565b82525050565b6000612efa826137f8565b612f04818561383e565b9350612f0f836137d8565b8060005b83811015612f40578151612f278882612e7f565b9750612f3283613824565b925050600181019050612f13565b5085935050505092915050565b6000612f5882613803565b612f62818561384f565b935083602082028501612f74856137e8565b8060005b85811015612fb05784840389528151612f918582612e97565b9450612f9c83613831565b925060208a01995050600181019050612f78565b50829750879550505050505092915050565b612fcb816138b7565b82525050565b612fda816138b7565b82525050565b612fe9816138c3565b82525050565b612ff8816138c3565b82525050565b61300f61300a826138c3565b613972565b82525050565b60006130208261380e565b61302a8185613860565b935061303a81856020860161392d565b61304381613998565b840191505092915050565b600061305982613819565b6130638185613871565b935061307381856020860161392d565b61307c81613998565b840191505092915050565b6000613094602e83613882565b91507f43616e6e6f742068617665206d6f7265207468616e206f6e652061637469766560008301527f2062657420617420612074696d650000000000000000000000000000000000006020830152604082019050919050565b60006130fa601383613882565b91507f43616c6c6572206973206e6f74206f776e6572000000000000000000000000006000830152602082019050919050565b600061313a601b83613882565b91507f536166654d6174683a206164646974696f6e206f766572666c6f7700000000006000830152602082019050919050565b600061317a602b83613882565b91507f4e6f7420656e6f756768204c494e4b202d2066696c6c20636f6e74726163742060008301527f77697468206661756365740000000000000000000000000000000000000000006020830152604082019050919050565b60006131e0602e83613882565b91507f596f752063616e277420626574206d6f7265207468616e2068616c662074686560008301527f20636f6e7472616374732062616c0000000000000000000000000000000000006020830152604082019050919050565b6000613246601f83613882565b91507f4f6e6c7920565246436f6f7264696e61746f722063616e2066756c66696c6c006000830152602082019050919050565b6000613286603383613882565b91507f596f752063616e277420626574206d6f7265207468616e20312071756172746560008301527f722074686520636f6e7472616374732062616c000000000000000000000000006020830152604082019050919050565b60006132ec602d83613882565b91507f496e737566666973616e7420616d6f756e742c20706c6561736520696e63726560008301527f61736520796f75722062657421000000000000000000000000000000000000006020830152604082019050919050565b60408201600082015161335b6000850182612fe0565b50602082015161336e6020850182612ed1565b50505050565b600060a08301600083015161338c6000860182612ed1565b50602083015161339f60208601826133ea565b5060408301516133b26040860182612fc2565b50606083015184820360608601526133ca828261304e565b91505060808301516133df60808601826133ea565b508091505092915050565b6133f3816138ed565b82525050565b613402816138ed565b82525050565b613419613414826138ed565b61398e565b82525050565b600061342b8285612eba565b60148201915061343b8284613408565b6020820191508190509392505050565b60006134578285612ffe565b6020820191506134678284613408565b6020820191508190509392505050565b600060208201905061348c6000830184612ee0565b92915050565b60006040820190506134a76000830185612eab565b6134b460208301846133f9565b9392505050565b60006060820190506134d06000830186612eab565b6134dd60208301856133f9565b6134ea6040830184612fd1565b949350505050565b60006060820190506135076000830186612eab565b61351460208301856133f9565b61352160408301846133f9565b949350505050565b600060608201905061353e6000830186612ee0565b61354b60208301856133f9565b818103604083015261355d8184613015565b9050949350505050565b600060608201905061357c6000830186612ee0565b61358960208301856133f9565b61359660408301846133f9565b949350505050565b600060208201905081810360008301526135b88184612eef565b905092915050565b600060208201905081810360008301526135da8184612f4d565b905092915050565b60006020820190506135f76000830184612fd1565b92915050565b60006040820190506136126000830185612fd1565b61361f60208301846133f9565b9392505050565b600060408201905061363b6000830185612fef565b6136486020830184612ee0565b9392505050565b60006040820190506136646000830185612fef565b61367160208301846133f9565b9392505050565b600060808201905061368d6000830187612fef565b61369a60208301866133f9565b6136a76040830185612ee0565b6136b460608301846133f9565b95945050505050565b600060208201905081810360008301526136d681613087565b9050919050565b600060208201905081810360008301526136f6816130ed565b9050919050565b600060208201905081810360008301526137168161312d565b9050919050565b600060208201905081810360008301526137368161316d565b9050919050565b60006020820190508181036000830152613756816131d3565b9050919050565b6000602082019050818103600083015261377681613239565b9050919050565b6000602082019050818103600083015261379681613279565b9050919050565b600060208201905081810360008301526137b6816132df565b9050919050565b60006020820190506137d260008301846133f9565b92915050565b6000819050602082019050919050565b6000819050602082019050919050565b600081519050919050565b600081519050919050565b600081519050919050565b600081519050919050565b6000602082019050919050565b6000602082019050919050565b600082825260208201905092915050565b600082825260208201905092915050565b600082825260208201905092915050565b600082825260208201905092915050565b600082825260208201905092915050565b600061389e826138cd565b9050919050565b60006138b0826138cd565b9050919050565b60008115159050919050565b6000819050919050565b600073ffffffffffffffffffffffffffffffffffffffff82169050919050565b6000819050919050565b600061390282613909565b9050919050565b60006139148261391b565b9050919050565b6000613926826138cd565b9050919050565b60005b8381101561394b578082015181840152602081019050613930565b8381111561395a576000848401525b50505050565b600061396b8261397c565b9050919050565b6000819050919050565b6000613987826139a9565b9050919050565b6000819050919050565b6000601f19601f8301169050919050565b60008160601b9050919050565b6139bf81613893565b81146139ca57600080fd5b50565b6139d6816138b7565b81146139e157600080fd5b50565b6139ed816138c3565b81146139f857600080fd5b50565b613a04816138ed565b8114613a0f57600080fd5b5056fea264697066735822122004d172cbbc68310703da02d45eaf35a8455b028786862e95810ff461c4c773de64736f6c63430006060033",
  "immutableReferences": {
    "1563": [
      {
        "length": 32,
        "start": 9718
      },
      {
        "length": 32,
        "start": 10630
      }
    ],
    "1565": [
      {
        "length": 32,
        "start": 6148
      },
      {
        "length": 32,
        "start": 10690
      }
    ]
  },
  "source": "// SPDX-License-Identifier: MIT\r\npragma solidity >=0.4.22 <0.9.0;\r\npragma experimental ABIEncoderV2;\r\n\r\n// import \"https://raw.githubusercontent.com/smartcontractkit/chainlink/master/evm-contracts/src/v0.6/VRFConsumerBase.sol\";\r\nimport \"./VRFConsumerBase.sol\";\r\nimport \"./OnlyOwner.sol\";\r\n\r\ncontract CoinFlip is VRFConsumerBase, Owner{\r\n\r\n\r\n    // *************************************************************************************************\r\n    // *            -------------------CONTRACT EVENTS--------------------------                       *                                                                            *\r\n    // *************************************************************************************************\r\n\r\n    event depositMade(address depositedBy, uint amount);\r\n    event withdrawMade(address withdrawedBy, uint amount);\r\n    event betInitialized(address player_address, uint amount, uint betId);\r\n    event coinFlipped(address playerAddress, uint betId, bool hasWon);\r\n    event FlipResult(address indexed player, bool won, uint amountWon);\r\n    event LogNewProvableQuery(address indexed player);\r\n    event balanceUpdated(address player, uint newBalance, uint oldBalance);\r\n    event  generatedRandomNumber(uint256 randomNumber);\r\n\r\n\r\n    // *************************************************************************************************\r\n    // *            -------------------DATA STRUCTURES--------------------------                       *                                                                            *\r\n    // *************************************************************************************************\r\n\r\n    struct Player {\r\n        address playerAddress;\r\n        uint256 betAmount;\r\n        bool hasWon;\r\n        string bet_type;\r\n        uint id;\r\n    }\r\n\r\n    struct OracleQuery {\r\n        bytes32 id;\r\n        address playerAddress;\r\n  }\r\n    \r\n    mapping(address => bytes32) oracleQuereyID;\r\n    mapping(address => bool) waitingForOracle;          //stores result of the oracle RN fetch request for a player true/false\r\n    mapping(address => bool) isActive;                    //stores the result of the oracles random number for a player\r\n    mapping(uint => OracleQuery) public playerOracleqQuerey;     //oracle querey\r\n    mapping(address => Player) player;                  //player struct has attributes such as address, betAmount, player ID\r\n    mapping(address => uint256) contratcBalance;        //contratc balance mappping\r\n    mapping(address => uint) betType;\r\n    mapping(address => bool) flipped; \r\n    mapping(address => uint) outcome;\r\n    \r\n\r\n    //initial vars set id globally increment each time a player is made\r\n    //NUM random bytes is how much bytes we request from the oracle 1 = range(0, 256) bytes\r\n    //initilaise Player array which will store each instance of a player bet for lookups\r\n    uint256 public RandomResult;\r\n    uint  private _id = 0;\r\n    uint private contractBalance;\r\n    bytes32 internal keyHash;\r\n    uint256 internal fee;\r\n    Player[] betLog;\r\n    OracleQuery[] queryLog;\r\n    \r\n\r\n    // *************************************************************************************************\r\n    // *            -------------------CONSTRUCTORS & MODIFIERS--------------------------                       *                                                                            *\r\n    // *************************************************************************************************\r\n\r\n    //We initialise the contract balance to zero and we also define th ekeyHash and fee which are\r\n    //required to query the chainlink oracle for a random number. We also need the chainlink token address as\r\n    //the oracle fee is paid in chainlink not ether\r\n    constructor() VRFConsumerBase( 0xdD3782915140c8f3b190B5D67eAc6dc5760C46E9, 0xa36085F69e2889c224210F603D836748e7dC0088) public {\r\n        \r\n        \r\n        contratcBalance[address(this)] = 0;\r\n        \r\n        {\r\n        keyHash = 0x6c3699283bda56ad74f6b855546325b68d482e983852a7a82979cc4807b641f4;\r\n        fee = 0.1 * 10 ** 18; // 0.1 LINK (Varies by network)\r\n        }\r\n    \r\n\r\n    }\r\n    \r\n    // modifier for the bet Conditions function. cannot create a bet smaller than 0.01 eth\r\n    // the betAmiunt must be less thatn half of the contratc bal or else they payout is not possible\r\n    // no player can have more than one bet ongoing handle this with an isActive attribute\r\n    modifier betConditions {\r\n        require(msg.value >= 0.001 ether, \"Insuffisant amount, please increase your bet!\");\r\n        require(isActive[msg.sender] == false, \"Cannot have more than one active bet at a time\");\r\n        if(betType[msg.sender] == 1) {\r\n            require(msg.value <= contratcBalance[address(this)] / 2, \"You can't bet more than half the contracts bal\");\r\n        }\r\n        else {\r\n            require(msg.value <= contratcBalance[address(this)] / 4, \"You can't bet more than 1 quarter the contracts bal\");\r\n        }\r\n        \r\n        _;\r\n    }\r\n    \r\n    \r\n     // *************************************************************************************************\r\n    // *       -------------------CHAINLINK ORACLE FUNCS FOR RANDOMNESS--------------------------       *                                                                            *\r\n    // **************************************************************************************************\r\n    \r\n\r\n    //this function is called in the flip con fuctiom below. When this function is resolved by\r\n    //the chainlink oracle then the callback function (fullfil randomness) below is called and\r\n    //the random number is settled for use in the settleBet function which gets called after \r\n    //flipCoin(). This function requires us to send the \"fee\" to the chainlink oracle for using it.\r\n    //This fee is paid in chainlink. See constructor\r\n    function getRandomNumber(uint256 userProvidedSeed) private returns (bytes32 requestId) {\r\n        require(LINK.balanceOf(address(this)) >= fee, \"Not enough LINK - fill contract with faucet\");\r\n        return requestRandomness(keyHash, fee, userProvidedSeed);\r\n    }\r\n\r\n    /**\r\n     * Callback function used by VRF Coordinator\r\n     */\r\n     //here we store the oracle request id in the playerOracle mapping and we also push \r\n     //the oracle request id and the address of the oracle caller to the queryLog which is \r\n     //an array which keeps track of all of the players who requested a random number off\r\n     //of the oracle. We then define the random number. Its either a 0 or 1 if the bet is set \r\n     //to type 1 (50/50) and its either 0, 1 2, 3 or 4 for bet type 2 (25% odds)\r\n    function fulfillRandomness(bytes32 requestId, uint256 randomness) internal override {\r\n        \r\n        \r\n        oracleQuereyID[msg.sender] = requestId;\r\n        playerOracleqQuerey[player[msg.sender].id].playerAddress = msg.sender;\r\n        playerOracleqQuerey[player[msg.sender].id].id = requestId;\r\n        queryLog.push(OracleQuery(requestId, msg.sender));\r\n        if (betType[msg.sender] == 0) {\r\n            RandomResult = randomness % 2;\r\n\r\n        }\r\n        else {\r\n            RandomResult = randomness % 4;\r\n\r\n        }\r\n\r\n        emit  generatedRandomNumber(RandomResult);\r\n    }\r\n\r\n    \r\n    \r\n    \r\n    // *************************************************************************************************\r\n    // *            -------------------COINFLIP MAIN ALGORITHM--------------------------                    *                                                                            *\r\n    // *************************************************************************************************\r\n\r\n    \r\n    //the set bet function creates an instance of the player struct and assigns \r\n    //the strct attributes to the player who calls the function. Such as player address\r\n    //player ID, etc. This function also takes in the bet type 1 = 50% odds and 0 = 25% odds.\r\n    //We then set the bet mapping to the passed in bet type for later referance. We also push the \r\n    //created player instance to the betLog array. We set the isActive and waitingForOracle mapping\r\n    //for the function caller (msg.sender) to true and flase respectively. and since the function\r\n    //is payable we increment the cotract baalance by the betAmount passed in by msg.sender. The bet\r\n    //amdount is equal to msg.value\r\n    function setBet(uint _betType) public betConditions payable  {\r\n\r\n        //initalize a player#\r\n        string memory result;\r\n        if(_betType == 1) {\r\n            result = \"Heads\";\r\n            betType[msg.sender] = 1;\r\n        }else {\r\n            result = \"Tails\";\r\n            betType[msg.sender] = 0;\r\n        }\r\n        \r\n        player[msg.sender].playerAddress = msg.sender;\r\n        player[msg.sender].betAmount = msg.value;\r\n        player[msg.sender].hasWon = false;\r\n        player[msg.sender].bet_type = result;\r\n        player[msg.sender].id = _id;\r\n\r\n        //push the player to the betLog\r\n        betLog.push(Player(msg.sender, msg.value, false, result, _id));\r\n        isActive[msg.sender] = true;\r\n        flipped[msg.sender] = false;\r\n        waitingForOracle[msg.sender] = false;\r\n\r\n        //set waiting for oracle result to true\r\n        //and update balances / id accordingly\r\n        contratcBalance[address(this)] += player[msg.sender].betAmount;\r\n        // contratcBalance[address(this)] += player[msg.sender].betAmount;\r\n        _id++;\r\n        \r\n        emit betInitialized(msg.sender, player[msg.sender].betAmount, player[msg.sender].id);\r\n       \r\n    }\r\n\r\n    \r\n    //Once the setBet function is called we can then call the flip coin function. The reason we\r\n    //set isActive[msg.sender] = false, and waitingForOracle[msg.sender] = false is because we should\r\n    //not be able to flip the coin either if the player has not created a bet and if the player is waiting\r\n    //for the oracle result. We then set waiting For Oracle[msg.sender] = true because once we flip the coin\r\n    //we are waiting for the random oracle result. We call the oracle with the generateRandomNumber function\r\n    //which tales in a seed (this seed can be any interger it doesnt matter).\r\n    function flipCoin() public {\r\n        \r\n        require(isActive[msg.sender] == true);\r\n        require(waitingForOracle[msg.sender] == false);\r\n        \r\n        \r\n        waitingForOracle[msg.sender] = true;\r\n        flipped[msg.sender] = true;\r\n        getRandomNumber(uint256(keccak256(abi.encodePacked(msg.sender, block.timestamp))));\r\n        \r\n        emit coinFlipped(msg.sender, player[msg.sender].id, isActive[msg.sender]);\r\n      \r\n    }\r\n\r\n    \r\n    //After we call the flip coin function we can call the settle bet function which settles the\r\n    //bet and updates the player and contratc balance depending on the result generated from the\r\n    //chainlink oracle. The reason we set waitingForOracle[msg.sender] = true in the flipCoin function\r\n    //is because we should not be able to call settlBet until the coin is flipped. We also should not be\r\n    //able to call this function is isActive[msg.sender] == false, as that would mean the player has not\r\n    //created a bet. If the random result is 1 then we set player[msg.sender].hasWon == true. It is set to \r\n    //false by default so there is no need to make an elif satement. We then settle the bet for the two bet types\r\n    //for (50/50) if the player wins we deduct the contract balance by 2 * betAmount and transfer 2 * betAmount\r\n    //to the player. If they loose we just emit the avent since the player initiall bet is already part of the\r\n    //contract balance. If the bet type is (25/75) then we do the same process only we update both balances\r\n    //by 4 * betAmount since is the payer chooses this bet option then they win 4 times initial bet because the\r\n    //odds are loweer. At the end of the function we set isActive and waiting for Oracle to false so that the\r\n    //player can make a new bet\r\n    function settleBet() public payable  {\r\n        \r\n        require(flipped[msg.sender] == true);\r\n        require(isActive[msg.sender]);\r\n        require(waitingForOracle[msg.sender] == false);\r\n        \r\n        if (RandomResult == 1) {\r\n            player[msg.sender].hasWon = true;\r\n            betLog[_id].hasWon = true;\r\n        }\r\n        \r\n    \r\n        uint256 oldContractBalance = contratcBalance[address(this)];\r\n        uint betAmount = player[msg.sender].betAmount;\r\n\r\n        //update player balances respectively depending\r\n        if (player[msg.sender].hasWon && betType[msg.sender] == 0) {\r\n            \r\n            contratcBalance[address(this)] -= 2 * player[msg.sender].betAmount;\r\n            msg.sender.transfer(2 * player[msg.sender].betAmount);\r\n            emit FlipResult (msg.sender, true, betAmount * 2);\r\n            \r\n        }\r\n        else if (!player[msg.sender].hasWon && betType[msg.sender] == 0) {\r\n            emit FlipResult (msg.sender, true, betAmount * 2);\r\n            \r\n        }\r\n        else if (player[msg.sender].hasWon && betType[msg.sender] == 1) {\r\n            \r\n            contratcBalance[address(this)] -= 4 * player[msg.sender].betAmount;\r\n            msg.sender.transfer(4 * player[msg.sender].betAmount);\r\n            emit FlipResult (msg.sender, true, betAmount * 2);\r\n            \r\n        }\r\n        else if (!player[msg.sender].hasWon && betType[msg.sender] == 1) {\r\n            emit FlipResult (msg.sender, true, betAmount * 2);\r\n            \r\n        }\r\n\r\n        waitingForOracle[msg.sender] = false;\r\n        isActive[msg.sender] = false;\r\n\r\n        // emit balanceUpdated(msg.sender, playerbalance[msg.sender], oldPlayerBalance);\r\n        emit balanceUpdated(address(this), contratcBalance[address(this)], oldContractBalance);\r\n        \r\n        \r\n    }\r\n\r\n\r\n\r\n    // *************************************************************************************************\r\n    // *            -------------------DEPOSIT/WITHDRAWABLE FUNCTIONS--------------------------        *                                                                            *\r\n    // *************************************************************************************************\r\n\r\n    //this function lets the admin or contratc creator withdraw the entire contratc balance\r\n    function withdraw() public payable isOwner  {\r\n       \r\n        msg.sender.transfer(contratcBalance[address(this)]);\r\n        contratcBalance[address(this)]-= contratcBalance[address(this)];\r\n\r\n        emit withdrawMade(msg.sender, contratcBalance[address(this)]);\r\n\r\n    }\r\n    \r\n\r\n    //this function lets the contract creator deposit funds into the contract\r\n    function deposit() public payable isOwner {\r\n        // playerbalance[msg.sender] += msg.value;\r\n        contratcBalance[address(this)] += msg.value;\r\n\r\n        emit depositMade(msg.sender, msg.value);\r\n    }\r\n\r\n\r\n    // *************************************************************************************************\r\n    // *            ------------------_HELPER FUNCTIONS--------------------------                      *                                                                            *\r\n    // *************************************************************************************************\r\n    \r\n    \r\n    //function that stores infromataion on if the coin has been flipped of not\r\n    //for the player\r\n     function Flipped() public view returns (bool) {\r\n        return flipped[msg.sender];\r\n    }\r\n    \r\n    //function that stores information on whether the player is waiting for\r\n    //the oracle random number \r\n    function notWaiting() public returns (bool) {\r\n        waitingForOracle[msg.sender] = false;\r\n        return waitingForOracle[msg.sender];\r\n        \r\n    }\r\n\r\n    //function that lets the player cancel their bet. A player can ONLY camcel an bet\r\n    //if one, they have made a bet with the setBet function and two, they have not flipped\r\n    //coin. I.e isActive[msg.sender] == true and waitingForOracle[msg.sender] == flase. If they\r\n    //cancel they get transfered back their bet amount\r\n     function canCelBet() public {\r\n        \r\n        require(betLog.length > 0);\r\n        require(isActive[msg.sender] == true);\r\n        require(flipped[msg.sender] == false);\r\n        require(waitingForOracle[msg.sender] == false);\r\n        isActive[msg.sender] = false;\r\n        \r\n        contratcBalance[address(this)] -= player[msg.sender].betAmount;\r\n        msg.sender.transfer(player[msg.sender].betAmount);\r\n        \r\n        delete(betLog);\r\n        \r\n    }\r\n    \r\n    //function that returns the players bet type\r\n    function getBetType() public view returns (uint) {\r\n        return betType[msg.sender];\r\n    }\r\n   \r\n\r\n    //get Bet status, is player playing or not\r\n    function getRandomNumber() public view returns(uint) {\r\n        return RandomResult;\r\n    }\r\n\r\n    //Function that gets the players bet status retrns isActive mapping\r\n    function getBetStatus() public view returns(bool) {\r\n        return isActive[msg.sender];\r\n    }\r\n    \r\n    //returns the oracle querey log for all players\r\n    function getQueryLog() public view returns(OracleQuery[] memory) {\r\n        return queryLog;\r\n    }\r\n  \r\n\r\n    //function that returns the status of the players winnings\r\n    function hasWon() public view returns(bool) {\r\n        return player[msg.sender].hasWon;\r\n    }\r\n\r\n    //return msg.sender\r\n    function getPlayer() public view returns(address) {\r\n      \r\n        return msg.sender;\r\n    }\r\n    \r\n    //returns the contract balance\r\n    function getContratcBalance() public view returns(uint) {\r\n      \r\n        return contratcBalance[address(this)];\r\n    }\r\n \r\n    \r\n    //return the players bet amount\r\n    function getCurrentBet() public view returns(uint) {\r\n        return player[msg.sender].betAmount;\r\n    }\r\n    \r\n    //return the bet Log of all bet histroys   \r\n    function getActiveBets() public view returns(Player[] memory) {\r\n        return betLog;\r\n    }\r\n}\r\n",
  "sourcePath": "C:/Users/evanm/OneDrive/Documents/EthereumProgramming/Solidity-201/CoinFlipDapp/BackEnd/contracts/CoinFlip.sol",
  "compiler": {
    "name": "solc",
    "version": "0.6.6+commit.6c089d02.Emscripten.clang"
  },
  "schemaVersion": "3.3.4",
  "updatedAt": "2021-06-13T17:41:20.248Z",
  "devdoc": {
    "methods": {
      "changeOwner(address)": {
        "details": "Change owner",
        "params": {
          "newOwner": "address of new owner"
        }
      },
      "getOwner()": {
        "details": "Return owner address",
        "returns": {
          "_0": "address of owner"
        }
      }
    }
  },
  "userdoc": {
    "methods": {}
  }
}