{
  "contractName": "CoinFlip",
  "abi": [
    {
      "inputs": [],
      "stateMutability": "nonpayable",
      "type": "constructor"
    },
    {
      "anonymous": false,
      "inputs": [
        {
          "indexed": true,
          "internalType": "address",
          "name": "player",
          "type": "address"
        },
        {
          "indexed": false,
          "internalType": "bool",
          "name": "won",
          "type": "bool"
        },
        {
          "indexed": false,
          "internalType": "uint256",
          "name": "amountWon",
          "type": "uint256"
        }
      ],
      "name": "FlipResult",
      "type": "event"
    },
    {
      "anonymous": false,
      "inputs": [
        {
          "indexed": true,
          "internalType": "address",
          "name": "player",
          "type": "address"
        }
      ],
      "name": "LogNewProvableQuery",
      "type": "event"
    },
    {
      "anonymous": false,
      "inputs": [
        {
          "indexed": true,
          "internalType": "address",
          "name": "oldOwner",
          "type": "address"
        },
        {
          "indexed": true,
          "internalType": "address",
          "name": "newOwner",
          "type": "address"
        }
      ],
      "name": "OwnerSet",
      "type": "event"
    },
    {
      "anonymous": false,
      "inputs": [
        {
          "indexed": false,
          "internalType": "address",
          "name": "player",
          "type": "address"
        },
        {
          "indexed": false,
          "internalType": "uint256",
          "name": "newBalance",
          "type": "uint256"
        },
        {
          "indexed": false,
          "internalType": "uint256",
          "name": "oldBalance",
          "type": "uint256"
        }
      ],
      "name": "balanceUpdated",
      "type": "event"
    },
    {
      "anonymous": false,
      "inputs": [
        {
          "indexed": false,
          "internalType": "address",
          "name": "player_address",
          "type": "address"
        },
        {
          "indexed": false,
          "internalType": "uint256",
          "name": "amount",
          "type": "uint256"
        },
        {
          "indexed": false,
          "internalType": "uint256",
          "name": "betId",
          "type": "uint256"
        }
      ],
      "name": "betInitialized",
      "type": "event"
    },
    {
      "anonymous": false,
      "inputs": [
        {
          "indexed": false,
          "internalType": "address",
          "name": "playerAddress",
          "type": "address"
        },
        {
          "indexed": false,
          "internalType": "uint256",
          "name": "betId",
          "type": "uint256"
        },
        {
          "indexed": false,
          "internalType": "bool",
          "name": "hasWon",
          "type": "bool"
        }
      ],
      "name": "coinFlipped",
      "type": "event"
    },
    {
      "anonymous": false,
      "inputs": [
        {
          "indexed": false,
          "internalType": "address",
          "name": "depositedBy",
          "type": "address"
        },
        {
          "indexed": false,
          "internalType": "uint256",
          "name": "amount",
          "type": "uint256"
        }
      ],
      "name": "depositMade",
      "type": "event"
    },
    {
      "anonymous": false,
      "inputs": [
        {
          "indexed": false,
          "internalType": "uint256",
          "name": "randomNumber",
          "type": "uint256"
        }
      ],
      "name": "generatedRandomNumber",
      "type": "event"
    },
    {
      "anonymous": false,
      "inputs": [
        {
          "indexed": false,
          "internalType": "address",
          "name": "withdrawedBy",
          "type": "address"
        },
        {
          "indexed": false,
          "internalType": "uint256",
          "name": "amount",
          "type": "uint256"
        }
      ],
      "name": "withdrawMade",
      "type": "event"
    },
    {
      "inputs": [],
      "name": "RandomResult",
      "outputs": [
        {
          "internalType": "uint256",
          "name": "",
          "type": "uint256"
        }
      ],
      "stateMutability": "view",
      "type": "function",
      "constant": true
    },
    {
      "inputs": [
        {
          "internalType": "address",
          "name": "newOwner",
          "type": "address"
        }
      ],
      "name": "changeOwner",
      "outputs": [],
      "stateMutability": "nonpayable",
      "type": "function"
    },
    {
      "inputs": [],
      "name": "getOwner",
      "outputs": [
        {
          "internalType": "address",
          "name": "",
          "type": "address"
        }
      ],
      "stateMutability": "view",
      "type": "function",
      "constant": true
    },
    {
      "inputs": [
        {
          "internalType": "uint256",
          "name": "",
          "type": "uint256"
        }
      ],
      "name": "playerOracleqQuerey",
      "outputs": [
        {
          "internalType": "bytes32",
          "name": "id",
          "type": "bytes32"
        },
        {
          "internalType": "address",
          "name": "playerAddress",
          "type": "address"
        }
      ],
      "stateMutability": "view",
      "type": "function",
      "constant": true
    },
    {
      "inputs": [
        {
          "internalType": "bytes32",
          "name": "requestId",
          "type": "bytes32"
        },
        {
          "internalType": "uint256",
          "name": "randomness",
          "type": "uint256"
        }
      ],
      "name": "rawFulfillRandomness",
      "outputs": [],
      "stateMutability": "nonpayable",
      "type": "function"
    },
    {
      "inputs": [],
      "name": "setBet",
      "outputs": [],
      "stateMutability": "payable",
      "type": "function",
      "payable": true
    },
    {
      "inputs": [],
      "name": "flipCoin",
      "outputs": [],
      "stateMutability": "nonpayable",
      "type": "function"
    },
    {
      "inputs": [],
      "name": "settleBet",
      "outputs": [],
      "stateMutability": "payable",
      "type": "function",
      "payable": true
    },
    {
      "inputs": [],
      "name": "withdraw",
      "outputs": [],
      "stateMutability": "payable",
      "type": "function",
      "payable": true
    },
    {
      "inputs": [],
      "name": "deposit",
      "outputs": [],
      "stateMutability": "payable",
      "type": "function",
      "payable": true
    },
    {
      "inputs": [],
      "name": "Flipped",
      "outputs": [
        {
          "internalType": "bool",
          "name": "",
          "type": "bool"
        }
      ],
      "stateMutability": "view",
      "type": "function",
      "constant": true
    },
    {
      "inputs": [],
      "name": "notWaiting",
      "outputs": [
        {
          "internalType": "bool",
          "name": "",
          "type": "bool"
        }
      ],
      "stateMutability": "nonpayable",
      "type": "function"
    },
    {
      "inputs": [
        {
          "internalType": "uint256",
          "name": "typeOfBet",
          "type": "uint256"
        }
      ],
      "name": "chooseBetType",
      "outputs": [
        {
          "internalType": "uint256",
          "name": "",
          "type": "uint256"
        }
      ],
      "stateMutability": "nonpayable",
      "type": "function"
    },
    {
      "inputs": [],
      "name": "canCelBet",
      "outputs": [],
      "stateMutability": "nonpayable",
      "type": "function"
    },
    {
      "inputs": [],
      "name": "getBetTyp",
      "outputs": [
        {
          "internalType": "uint256",
          "name": "",
          "type": "uint256"
        }
      ],
      "stateMutability": "view",
      "type": "function",
      "constant": true
    },
    {
      "inputs": [],
      "name": "getRandomNumber",
      "outputs": [
        {
          "internalType": "uint256",
          "name": "",
          "type": "uint256"
        }
      ],
      "stateMutability": "view",
      "type": "function",
      "constant": true
    },
    {
      "inputs": [],
      "name": "getBetStatus",
      "outputs": [
        {
          "internalType": "bool",
          "name": "",
          "type": "bool"
        }
      ],
      "stateMutability": "view",
      "type": "function",
      "constant": true
    },
    {
      "inputs": [],
      "name": "getQueryLog",
      "outputs": [
        {
          "components": [
            {
              "internalType": "bytes32",
              "name": "id",
              "type": "bytes32"
            },
            {
              "internalType": "address",
              "name": "playerAddress",
              "type": "address"
            }
          ],
          "internalType": "struct CoinFlip.OracleQuery[]",
          "name": "",
          "type": "tuple[]"
        }
      ],
      "stateMutability": "view",
      "type": "function",
      "constant": true
    },
    {
      "inputs": [],
      "name": "hasWon",
      "outputs": [
        {
          "internalType": "bool",
          "name": "",
          "type": "bool"
        }
      ],
      "stateMutability": "view",
      "type": "function",
      "constant": true
    },
    {
      "inputs": [],
      "name": "getPlayer",
      "outputs": [
        {
          "internalType": "address",
          "name": "",
          "type": "address"
        }
      ],
      "stateMutability": "view",
      "type": "function",
      "constant": true
    },
    {
      "inputs": [],
      "name": "getContratcBalance",
      "outputs": [
        {
          "internalType": "uint256",
          "name": "",
          "type": "uint256"
        }
      ],
      "stateMutability": "view",
      "type": "function",
      "constant": true
    },
    {
      "inputs": [],
      "name": "getCurrentBet",
      "outputs": [
        {
          "internalType": "uint256",
          "name": "",
          "type": "uint256"
        }
      ],
      "stateMutability": "view",
      "type": "function",
      "constant": true
    },
    {
      "inputs": [],
      "name": "getActiveBets",
      "outputs": [
        {
          "components": [
            {
              "internalType": "address",
              "name": "playerAddress",
              "type": "address"
            },
            {
              "internalType": "uint256",
              "name": "betAmount",
              "type": "uint256"
            },
            {
              "internalType": "bool",
              "name": "hasWon",
              "type": "bool"
            },
            {
              "internalType": "string",
              "name": "bet_type",
              "type": "string"
            },
            {
              "internalType": "uint256",
              "name": "id",
              "type": "uint256"
            }
          ],
          "internalType": "struct CoinFlip.Player[]",
          "name": "",
          "type": "tuple[]"
        }
      ],
      "stateMutability": "view",
      "type": "function",
      "constant": true
    }
  ],
  "bytecode": "0x60c06040526000600b5534801561001557600080fd5b5073dd3782915140c8f3b190b5d67eac6dc5760c46e973a36085f69e2889c224210f603d836748e7dc00888173ffffffffffffffffffffffffffffffffffffffff1660a08173ffffffffffffffffffffffffffffffffffffffff1660601b815250508073ffffffffffffffffffffffffffffffffffffffff1660808173ffffffffffffffffffffffffffffffffffffffff1660601b81525050505033600160006101000a81548173ffffffffffffffffffffffffffffffffffffffff021916908373ffffffffffffffffffffffffffffffffffffffff160217905550600160009054906101000a900473ffffffffffffffffffffffffffffffffffffffff1673ffffffffffffffffffffffffffffffffffffffff16600073ffffffffffffffffffffffffffffffffffffffff167f342827c97908e5e2f71151c08502a66d44b6f758e3ac2f1de95f02eb95f0a73560405160405180910390a36000600760003073ffffffffffffffffffffffffffffffffffffffff1673ffffffffffffffffffffffffffffffffffffffff168152602001908152602001600020819055507f6c3699283bda56ad74f6b855546325b68d482e983852a7a82979cc4807b641f460001b600d8190555067016345785d8a0000600e8190555060805160601c60a05160601c613a4661021f600039806117a952806129c052508061265352806129845250613a466000f3fe6080604052600436106101405760003560e01c8063893d20e8116100b6578063b84aa0651161006f578063b84aa065146103b2578063d0e30db0146103bc578063d9b37faf146103c6578063dbdff2c1146103f1578063e271af171461041c578063ec9b97771461045a57610140565b8063893d20e8146102d55780638e4bf8201461030057806394985ddd1461030a578063a6f9dae114610333578063ada730201461035c578063b78974851461038757610140565b80633308f42d116101085780633308f42d146102085780633a506992146102335780633ccfd60b1461025e57806347fd79f114610268578063799ae2231461029357806380435e8f146102aa57610140565b80630275b953146101455780630b20382a146101705780631fa859e81461018757806320a9158d146101b2578063258b235c146101dd575b600080fd5b34801561015157600080fd5b5061015a610497565b60405161016791906135e0565b60405180910390f35b34801561017c57600080fd5b50610185610542565b005b34801561019357600080fd5b5061019c6107eb565b6040516101a991906135e0565b60405180910390f35b3480156101be57600080fd5b506101c761083f565b6040516101d491906135e0565b60405180910390f35b3480156101e957600080fd5b506101f2610896565b6040516101ff91906137bb565b60405180910390f35b34801561021457600080fd5b5061021d6108dd565b60405161022a9190613475565b60405180910390f35b34801561023f57600080fd5b506102486108e5565b604051610255919061359c565b60405180910390f35b6102666109a4565b005b34801561027457600080fd5b5061027d610bc0565b60405161028a91906137bb565b60405180910390f35b34801561029f57600080fd5b506102a8610bc6565b005b3480156102b657600080fd5b506102bf610e30565b6040516102cc91906135e0565b60405180910390f35b3480156102e157600080fd5b506102ea610e84565b6040516102f79190613475565b60405180910390f35b610308610eae565b005b34801561031657600080fd5b50610331600480360381019061032c9190612def565b6117a7565b005b34801561033f57600080fd5b5061035a60048036038101906103559190612d9d565b611843565b005b34801561036857600080fd5b50610371611993565b60405161037e91906135be565b60405180910390f35b34801561039357600080fd5b5061039c611b19565b6040516103a991906137bb565b60405180910390f35b6103ba611b63565b005b6103c4612361565b005b3480156103d257600080fd5b506103db612479565b6040516103e891906137bb565b60405180910390f35b3480156103fd57600080fd5b506104066124c0565b60405161041391906137bb565b60405180910390f35b34801561042857600080fd5b50610443600480360381019061043e9190612e2b565b6124ca565b604051610451929190613624565b60405180910390f35b34801561046657600080fd5b50610481600480360381019061047c9190612e2b565b61250e565b60405161048e91906137bb565b60405180910390f35b600080600360003373ffffffffffffffffffffffffffffffffffffffff1673ffffffffffffffffffffffffffffffffffffffff16815260200190815260200160002060006101000a81548160ff021916908315150217905550600360003373ffffffffffffffffffffffffffffffffffffffff1673ffffffffffffffffffffffffffffffffffffffff16815260200190815260200160002060009054906101000a900460ff16905090565b6000600f805490501161055457600080fd5b60011515600460003373ffffffffffffffffffffffffffffffffffffffff1673ffffffffffffffffffffffffffffffffffffffff16815260200190815260200160002060009054906101000a900460ff161515146105b157600080fd5b60001515600960003373ffffffffffffffffffffffffffffffffffffffff1673ffffffffffffffffffffffffffffffffffffffff16815260200190815260200160002060009054906101000a900460ff1615151461060e57600080fd5b60001515600360003373ffffffffffffffffffffffffffffffffffffffff1673ffffffffffffffffffffffffffffffffffffffff16815260200190815260200160002060009054906101000a900460ff1615151461066b57600080fd5b6000600460003373ffffffffffffffffffffffffffffffffffffffff1673ffffffffffffffffffffffffffffffffffffffff16815260200190815260200160002060006101000a81548160ff021916908315150217905550600660003373ffffffffffffffffffffffffffffffffffffffff1673ffffffffffffffffffffffffffffffffffffffff16815260200190815260200160002060010154600760003073ffffffffffffffffffffffffffffffffffffffff1673ffffffffffffffffffffffffffffffffffffffff168152602001908152602001600020600082825403925050819055503373ffffffffffffffffffffffffffffffffffffffff166108fc600660003373ffffffffffffffffffffffffffffffffffffffff1673ffffffffffffffffffffffffffffffffffffffff168152602001908152602001600020600101549081150290604051600060405180830381858888f193505050501580156107da573d6000803e3d6000fd5b50600f60006107e99190612ba9565b565b6000600460003373ffffffffffffffffffffffffffffffffffffffff1673ffffffffffffffffffffffffffffffffffffffff16815260200190815260200160002060009054906101000a900460ff16905090565b6000600660003373ffffffffffffffffffffffffffffffffffffffff1673ffffffffffffffffffffffffffffffffffffffff16815260200190815260200160002060020160009054906101000a900460ff16905090565b6000600860003373ffffffffffffffffffffffffffffffffffffffff1673ffffffffffffffffffffffffffffffffffffffff16815260200190815260200160002054905090565b600033905090565b60606010805480602002602001604051908101604052809291908181526020016000905b8282101561099b5783829060005260206000209060020201604051806040016040529081600082015481526020016001820160009054906101000a900473ffffffffffffffffffffffffffffffffffffffff1673ffffffffffffffffffffffffffffffffffffffff1673ffffffffffffffffffffffffffffffffffffffff168152505081526020019060010190610909565b50505050905090565b600160009054906101000a900473ffffffffffffffffffffffffffffffffffffffff1673ffffffffffffffffffffffffffffffffffffffff163373ffffffffffffffffffffffffffffffffffffffff1614610a34576040517f08c379a0000000000000000000000000000000000000000000000000000000008152600401610a2b906136db565b60405180910390fd5b3373ffffffffffffffffffffffffffffffffffffffff166108fc600760003073ffffffffffffffffffffffffffffffffffffffff1673ffffffffffffffffffffffffffffffffffffffff168152602001908152602001600020549081150290604051600060405180830381858888f19350505050158015610ab9573d6000803e3d6000fd5b50600760003073ffffffffffffffffffffffffffffffffffffffff1673ffffffffffffffffffffffffffffffffffffffff16815260200190815260200160002054600760003073ffffffffffffffffffffffffffffffffffffffff1673ffffffffffffffffffffffffffffffffffffffff168152602001908152602001600020600082825403925050819055507f45a5602c79d2f9db9cdf3d61199b5f0176590cbc0fdb04e0734f97a000b9796733600760003073ffffffffffffffffffffffffffffffffffffffff1673ffffffffffffffffffffffffffffffffffffffff16815260200190815260200160002054604051610bb6929190613490565b60405180910390a1565b600a5481565b60011515600460003373ffffffffffffffffffffffffffffffffffffffff1673ffffffffffffffffffffffffffffffffffffffff16815260200190815260200160002060009054906101000a900460ff16151514610c2357600080fd5b60001515600360003373ffffffffffffffffffffffffffffffffffffffff1673ffffffffffffffffffffffffffffffffffffffff16815260200190815260200160002060009054906101000a900460ff16151514610c8057600080fd5b6001600360003373ffffffffffffffffffffffffffffffffffffffff1673ffffffffffffffffffffffffffffffffffffffff16815260200190815260200160002060006101000a81548160ff0219169083151502179055506001600960003373ffffffffffffffffffffffffffffffffffffffff1673ffffffffffffffffffffffffffffffffffffffff16815260200190815260200160002060006101000a81548160ff021916908315150217905550610d643342604051602001610d4692919061341d565b6040516020818303038152906040528051906020012060001c61264c565b507fd6389208150097bf0cf1ab325675a453d742e9f5fff1167dc44b983fade37d0533600660003373ffffffffffffffffffffffffffffffffffffffff1673ffffffffffffffffffffffffffffffffffffffff16815260200190815260200160002060040154600460003373ffffffffffffffffffffffffffffffffffffffff1673ffffffffffffffffffffffffffffffffffffffff16815260200190815260200160002060009054906101000a900460ff16604051610e26939291906134b9565b60405180910390a1565b6000600960003373ffffffffffffffffffffffffffffffffffffffff1673ffffffffffffffffffffffffffffffffffffffff16815260200190815260200160002060009054906101000a900460ff16905090565b6000600160009054906101000a900473ffffffffffffffffffffffffffffffffffffffff16905090565b60011515600960003373ffffffffffffffffffffffffffffffffffffffff1673ffffffffffffffffffffffffffffffffffffffff16815260200190815260200160002060009054906101000a900460ff16151514610f0b57600080fd5b600460003373ffffffffffffffffffffffffffffffffffffffff1673ffffffffffffffffffffffffffffffffffffffff16815260200190815260200160002060009054906101000a900460ff16610f6157600080fd5b60001515600360003373ffffffffffffffffffffffffffffffffffffffff1673ffffffffffffffffffffffffffffffffffffffff16815260200190815260200160002060009054906101000a900460ff16151514610fbe57600080fd5b6001600a541415611025576001600660003373ffffffffffffffffffffffffffffffffffffffff1673ffffffffffffffffffffffffffffffffffffffff16815260200190815260200160002060020160006101000a81548160ff0219169083151502179055505b6000600760003073ffffffffffffffffffffffffffffffffffffffff1673ffffffffffffffffffffffffffffffffffffffff1681526020019081526020016000205490506000600660003373ffffffffffffffffffffffffffffffffffffffff1673ffffffffffffffffffffffffffffffffffffffff168152602001908152602001600020600101549050600660003373ffffffffffffffffffffffffffffffffffffffff1673ffffffffffffffffffffffffffffffffffffffff16815260200190815260200160002060020160009054906101000a900460ff16801561114b57506001600860003373ffffffffffffffffffffffffffffffffffffffff1673ffffffffffffffffffffffffffffffffffffffff16815260200190815260200160002054145b156112c757600660003373ffffffffffffffffffffffffffffffffffffffff1673ffffffffffffffffffffffffffffffffffffffff16815260200190815260200160002060010154600202600760003073ffffffffffffffffffffffffffffffffffffffff1673ffffffffffffffffffffffffffffffffffffffff168152602001908152602001600020600082825403925050819055503373ffffffffffffffffffffffffffffffffffffffff166108fc600660003373ffffffffffffffffffffffffffffffffffffffff1673ffffffffffffffffffffffffffffffffffffffff168152602001908152602001600020600101546002029081150290604051600060405180830381858888f1935050505015801561126d573d6000803e3d6000fd5b503373ffffffffffffffffffffffffffffffffffffffff167f1f2ff94143ec2e58ace01e22de3975718247435e2d23d05b66eb402230d8281e6001600284026040516112ba9291906135fb565b60405180910390a26116d1565b600660003373ffffffffffffffffffffffffffffffffffffffff1673ffffffffffffffffffffffffffffffffffffffff16815260200190815260200160002060020160009054906101000a900460ff1615801561136357506001600860003373ffffffffffffffffffffffffffffffffffffffff1673ffffffffffffffffffffffffffffffffffffffff16815260200190815260200160002054145b156113c1573373ffffffffffffffffffffffffffffffffffffffff167f1f2ff94143ec2e58ace01e22de3975718247435e2d23d05b66eb402230d8281e6001600284026040516113b49291906135fb565b60405180910390a26116d0565b600660003373ffffffffffffffffffffffffffffffffffffffff1673ffffffffffffffffffffffffffffffffffffffff16815260200190815260200160002060020160009054906101000a900460ff16801561145c57506000600860003373ffffffffffffffffffffffffffffffffffffffff1673ffffffffffffffffffffffffffffffffffffffff16815260200190815260200160002054145b156115d857600660003373ffffffffffffffffffffffffffffffffffffffff1673ffffffffffffffffffffffffffffffffffffffff16815260200190815260200160002060010154600402600760003073ffffffffffffffffffffffffffffffffffffffff1673ffffffffffffffffffffffffffffffffffffffff168152602001908152602001600020600082825403925050819055503373ffffffffffffffffffffffffffffffffffffffff166108fc600660003373ffffffffffffffffffffffffffffffffffffffff1673ffffffffffffffffffffffffffffffffffffffff168152602001908152602001600020600101546004029081150290604051600060405180830381858888f1935050505015801561157e573d6000803e3d6000fd5b503373ffffffffffffffffffffffffffffffffffffffff167f1f2ff94143ec2e58ace01e22de3975718247435e2d23d05b66eb402230d8281e6001600284026040516115cb9291906135fb565b60405180910390a26116cf565b600660003373ffffffffffffffffffffffffffffffffffffffff1673ffffffffffffffffffffffffffffffffffffffff16815260200190815260200160002060020160009054906101000a900460ff1615801561167457506001600860003373ffffffffffffffffffffffffffffffffffffffff1673ffffffffffffffffffffffffffffffffffffffff16815260200190815260200160002054145b156116ce573373ffffffffffffffffffffffffffffffffffffffff167f1f2ff94143ec2e58ace01e22de3975718247435e2d23d05b66eb402230d8281e6001600284026040516116c59291906135fb565b60405180910390a25b5b5b5b6000600460003373ffffffffffffffffffffffffffffffffffffffff1673ffffffffffffffffffffffffffffffffffffffff16815260200190815260200160002060006101000a81548160ff0219169083151502179055507f92133653a2c523cb4f9d23d7f48803ba3f3cc68ff25f728d0fe190d067598bee30600760003073ffffffffffffffffffffffffffffffffffffffff1673ffffffffffffffffffffffffffffffffffffffff168152602001908152602001600020548460405161179b93929190613565565b60405180910390a15050565b7f000000000000000000000000000000000000000000000000000000000000000073ffffffffffffffffffffffffffffffffffffffff163373ffffffffffffffffffffffffffffffffffffffff1614611835576040517f08c379a000000000000000000000000000000000000000000000000000000000815260040161182c9061375b565b60405180910390fd5b61183f8282612751565b5050565b600160009054906101000a900473ffffffffffffffffffffffffffffffffffffffff1673ffffffffffffffffffffffffffffffffffffffff163373ffffffffffffffffffffffffffffffffffffffff16146118d3576040517f08c379a00000000000000000000000000000000000000000000000000000000081526004016118ca906136db565b60405180910390fd5b8073ffffffffffffffffffffffffffffffffffffffff16600160009054906101000a900473ffffffffffffffffffffffffffffffffffffffff1673ffffffffffffffffffffffffffffffffffffffff167f342827c97908e5e2f71151c08502a66d44b6f758e3ac2f1de95f02eb95f0a73560405160405180910390a380600160006101000a81548173ffffffffffffffffffffffffffffffffffffffff021916908373ffffffffffffffffffffffffffffffffffffffff16021790555050565b6060600f805480602002602001604051908101604052809291908181526020016000905b82821015611b1057838290600052602060002090600502016040518060a00160405290816000820160009054906101000a900473ffffffffffffffffffffffffffffffffffffffff1673ffffffffffffffffffffffffffffffffffffffff1673ffffffffffffffffffffffffffffffffffffffff168152602001600182015481526020016002820160009054906101000a900460ff16151515158152602001600382018054600181600116156101000203166002900480601f016020809104026020016040519081016040528092919081815260200182805460018160011615610100020316600290048015611aee5780601f10611ac357610100808354040283529160200191611aee565b820191906000526020600020905b815481529060010190602001808311611ad157829003601f168201915b50505050508152602001600482015481525050815260200190600101906119b7565b50505050905090565b6000600660003373ffffffffffffffffffffffffffffffffffffffff1673ffffffffffffffffffffffffffffffffffffffff16815260200190815260200160002060010154905090565b66038d7ea4c68000341015611bad576040517f08c379a0000000000000000000000000000000000000000000000000000000008152600401611ba49061379b565b60405180910390fd5b60001515600460003373ffffffffffffffffffffffffffffffffffffffff1673ffffffffffffffffffffffffffffffffffffffff16815260200190815260200160002060009054906101000a900460ff16151514611c40576040517f08c379a0000000000000000000000000000000000000000000000000000000008152600401611c37906136bb565b60405180910390fd5b6001600860003373ffffffffffffffffffffffffffffffffffffffff1673ffffffffffffffffffffffffffffffffffffffff168152602001908152602001600020541415611d19576002600760003073ffffffffffffffffffffffffffffffffffffffff1673ffffffffffffffffffffffffffffffffffffffff1681526020019081526020016000205481611cd157fe5b04341115611d14576040517f08c379a0000000000000000000000000000000000000000000000000000000008152600401611d0b9061373b565b60405180910390fd5b611da6565b6004600760003073ffffffffffffffffffffffffffffffffffffffff1673ffffffffffffffffffffffffffffffffffffffff1681526020019081526020016000205481611d6257fe5b04341115611da5576040517f08c379a0000000000000000000000000000000000000000000000000000000008152600401611d9c9061377b565b60405180910390fd5b5b60606000611db2610896565b90506001811415611dfa576040518060400160405280600581526020017f48656164730000000000000000000000000000000000000000000000000000008152509150611e33565b6040518060400160405280600581526020017f5461696c7300000000000000000000000000000000000000000000000000000081525091505b33600660003373ffffffffffffffffffffffffffffffffffffffff1673ffffffffffffffffffffffffffffffffffffffff16815260200190815260200160002060000160006101000a81548173ffffffffffffffffffffffffffffffffffffffff021916908373ffffffffffffffffffffffffffffffffffffffff16021790555034600660003373ffffffffffffffffffffffffffffffffffffffff1673ffffffffffffffffffffffffffffffffffffffff168152602001908152602001600020600101819055506000600660003373ffffffffffffffffffffffffffffffffffffffff1673ffffffffffffffffffffffffffffffffffffffff16815260200190815260200160002060020160006101000a81548160ff02191690831515021790555081600660003373ffffffffffffffffffffffffffffffffffffffff1673ffffffffffffffffffffffffffffffffffffffff1681526020019081526020016000206003019080519060200190611fac929190612bcd565b50600b54600660003373ffffffffffffffffffffffffffffffffffffffff1673ffffffffffffffffffffffffffffffffffffffff16815260200190815260200160002060040181905550600f6040518060a001604052803373ffffffffffffffffffffffffffffffffffffffff168152602001348152602001600015158152602001848152602001600b54815250908060018154018082558091505060019003906000526020600020906005020160009091909190915060008201518160000160006101000a81548173ffffffffffffffffffffffffffffffffffffffff021916908373ffffffffffffffffffffffffffffffffffffffff1602179055506020820151816001015560408201518160020160006101000a81548160ff02191690831515021790555060608201518160030190805190602001906120f0929190612bcd565b506080820151816004015550506001600460003373ffffffffffffffffffffffffffffffffffffffff1673ffffffffffffffffffffffffffffffffffffffff16815260200190815260200160002060006101000a81548160ff0219169083151502179055506000600960003373ffffffffffffffffffffffffffffffffffffffff1673ffffffffffffffffffffffffffffffffffffffff16815260200190815260200160002060006101000a81548160ff02191690831515021790555060001515600360003373ffffffffffffffffffffffffffffffffffffffff1673ffffffffffffffffffffffffffffffffffffffff16815260200190815260200160002060009054906101000a90505050600660003373ffffffffffffffffffffffffffffffffffffffff1673ffffffffffffffffffffffffffffffffffffffff16815260200190815260200160002060010154600760003073ffffffffffffffffffffffffffffffffffffffff1673ffffffffffffffffffffffffffffffffffffffff16815260200190815260200160002060008282540192505081905550600b600081548092919060010191905055507fac9d43fa410f8a3a6ed7172f9b2457ef415c56d30b4aaabf64a6a8e632772b5733600660003373ffffffffffffffffffffffffffffffffffffffff1673ffffffffffffffffffffffffffffffffffffffff16815260200190815260200160002060010154600660003373ffffffffffffffffffffffffffffffffffffffff1673ffffffffffffffffffffffffffffffffffffffff16815260200190815260200160002060040154604051612355939291906134f0565b60405180910390a15050565b600160009054906101000a900473ffffffffffffffffffffffffffffffffffffffff1673ffffffffffffffffffffffffffffffffffffffff163373ffffffffffffffffffffffffffffffffffffffff16146123f1576040517f08c379a00000000000000000000000000000000000000000000000000000000081526004016123e8906136db565b60405180910390fd5b34600760003073ffffffffffffffffffffffffffffffffffffffff1673ffffffffffffffffffffffffffffffffffffffff168152602001908152602001600020600082825401925050819055507f14558f60a55f03caac2b3dabdda0b51b20b0e22ce09a2c28cd1dc18e873578e8333460405161246f929190613490565b60405180910390a1565b6000600760003073ffffffffffffffffffffffffffffffffffffffff1673ffffffffffffffffffffffffffffffffffffffff16815260200190815260200160002054905090565b6000600a54905090565b60056020528060005260406000206000915090508060000154908060010160009054906101000a900473ffffffffffffffffffffffffffffffffffffffff16905082565b6000801515600460003373ffffffffffffffffffffffffffffffffffffffff1673ffffffffffffffffffffffffffffffffffffffff16815260200190815260200160002060009054906101000a900460ff1615151461256c57600080fd5b60018214156125bf576001600860003373ffffffffffffffffffffffffffffffffffffffff1673ffffffffffffffffffffffffffffffffffffffff16815260200190815260200160002081905550612605565b6000600860003373ffffffffffffffffffffffffffffffffffffffff1673ffffffffffffffffffffffffffffffffffffffff168152602001908152602001600020819055505b600860003373ffffffffffffffffffffffffffffffffffffffff1673ffffffffffffffffffffffffffffffffffffffff168152602001908152602001600020549050919050565b6000600e547f000000000000000000000000000000000000000000000000000000000000000073ffffffffffffffffffffffffffffffffffffffff166370a08231306040518263ffffffff1660e01b81526004016126aa9190613475565b60206040518083038186803b1580156126c257600080fd5b505afa1580156126d6573d6000803e3d6000fd5b505050506040513d601f19601f820116820180604052508101906126fa9190612e54565b101561273b576040517f08c379a00000000000000000000000000000000000000000000000000000000081526004016127329061371b565b60405180910390fd5b61274a600d54600e5484612980565b9050919050565b81600260003373ffffffffffffffffffffffffffffffffffffffff1673ffffffffffffffffffffffffffffffffffffffff168152602001908152602001600020819055503360056000600660003373ffffffffffffffffffffffffffffffffffffffff1673ffffffffffffffffffffffffffffffffffffffff16815260200190815260200160002060040154815260200190815260200160002060010160006101000a81548173ffffffffffffffffffffffffffffffffffffffff021916908373ffffffffffffffffffffffffffffffffffffffff1602179055508160056000600660003373ffffffffffffffffffffffffffffffffffffffff1673ffffffffffffffffffffffffffffffffffffffff16815260200190815260200160002060040154815260200190815260200160002060000181905550601060405180604001604052808481526020013373ffffffffffffffffffffffffffffffffffffffff1681525090806001815401808255809150506001900390600052602060002090600202016000909190919091506000820151816000015560208201518160010160006101000a81548173ffffffffffffffffffffffffffffffffffffffff021916908373ffffffffffffffffffffffffffffffffffffffff16021790555050506002818161293c57fe5b06600a819055507fc13d60fe9dffdb6908d2d446cd18134373a51db0738ee04f296eeb9128121cbc600a5460405161297491906137bb565b60405180910390a15050565b60007f000000000000000000000000000000000000000000000000000000000000000073ffffffffffffffffffffffffffffffffffffffff16634000aea07f00000000000000000000000000000000000000000000000000000000000000008587866040516020016129f392919061364d565b6040516020818303038152906040526040518463ffffffff1660e01b8152600401612a2093929190613527565b602060405180830381600087803b158015612a3a57600080fd5b505af1158015612a4e573d6000803e3d6000fd5b505050506040513d601f19601f82011682018060405250810190612a729190612dc6565b506000612a938584306000808a815260200190815260200160002054612ae5565b9050612abb600160008088815260200190815260200160002054612b2190919063ffffffff16565b60008087815260200190815260200160002081905550612adb8582612b76565b9150509392505050565b600084848484604051602001612afe9493929190613676565b6040516020818303038152906040528051906020012060001c9050949350505050565b600080828401905083811015612b6c576040517f08c379a0000000000000000000000000000000000000000000000000000000008152600401612b63906136fb565b60405180910390fd5b8091505092915050565b60008282604051602001612b8b929190613449565b60405160208183030381529060405280519060200120905092915050565b5080546000825560050290600052602060002090810190612bca9190612c4d565b50565b828054600181600116156101000203166002900490600052602060002090601f016020900481019282601f10612c0e57805160ff1916838001178555612c3c565b82800160010185558215612c3c579182015b82811115612c3b578251825591602001919060010190612c20565b5b509050612c499190612cc7565b5090565b612cc491905b80821115612cc057600080820160006101000a81549073ffffffffffffffffffffffffffffffffffffffff021916905560018201600090556002820160006101000a81549060ff0219169055600382016000612caf9190612cec565b600482016000905550600501612c53565b5090565b90565b612ce991905b80821115612ce5576000816000905550600101612ccd565b5090565b90565b50805460018160011615610100020316600290046000825580601f10612d125750612d31565b601f016020900490600052602060002090810190612d309190612cc7565b5b50565b600081359050612d43816139b4565b92915050565b600081519050612d58816139cb565b92915050565b600081359050612d6d816139e2565b92915050565b600081359050612d82816139f9565b92915050565b600081519050612d97816139f9565b92915050565b600060208284031215612daf57600080fd5b6000612dbd84828501612d34565b91505092915050565b600060208284031215612dd857600080fd5b6000612de684828501612d49565b91505092915050565b60008060408385031215612e0257600080fd5b6000612e1085828601612d5e565b9250506020612e2185828601612d73565b9150509250929050565b600060208284031215612e3d57600080fd5b6000612e4b84828501612d73565b91505092915050565b600060208284031215612e6657600080fd5b6000612e7484828501612d88565b91505092915050565b6000612e898383613343565b60408301905092915050565b6000612ea18383613372565b905092915050565b612eb2816138f5565b82525050565b612ec9612ec4826138a3565b61395e565b82525050565b612ed881613891565b82525050565b612ee781613891565b82525050565b6000612ef8826137f6565b612f02818561383c565b9350612f0d836137d6565b8060005b83811015612f3e578151612f258882612e7d565b9750612f3083613822565b925050600181019050612f11565b5085935050505092915050565b6000612f5682613801565b612f60818561384d565b935083602082028501612f72856137e6565b8060005b85811015612fae5784840389528151612f8f8582612e95565b9450612f9a8361382f565b925060208a01995050600181019050612f76565b50829750879550505050505092915050565b612fc9816138b5565b82525050565b612fd8816138b5565b82525050565b612fe7816138c1565b82525050565b612ff6816138c1565b82525050565b61300d613008826138c1565b613970565b82525050565b600061301e8261380c565b613028818561385e565b935061303881856020860161392b565b61304181613996565b840191505092915050565b600061305782613817565b613061818561386f565b935061307181856020860161392b565b61307a81613996565b840191505092915050565b6000613092602e83613880565b91507f43616e6e6f742068617665206d6f7265207468616e206f6e652061637469766560008301527f2062657420617420612074696d650000000000000000000000000000000000006020830152604082019050919050565b60006130f8601383613880565b91507f43616c6c6572206973206e6f74206f776e6572000000000000000000000000006000830152602082019050919050565b6000613138601b83613880565b91507f536166654d6174683a206164646974696f6e206f766572666c6f7700000000006000830152602082019050919050565b6000613178602b83613880565b91507f4e6f7420656e6f756768204c494e4b202d2066696c6c20636f6e74726163742060008301527f77697468206661756365740000000000000000000000000000000000000000006020830152604082019050919050565b60006131de602e83613880565b91507f596f752063616e277420626574206d6f7265207468616e2068616c662074686560008301527f20636f6e7472616374732062616c0000000000000000000000000000000000006020830152604082019050919050565b6000613244601f83613880565b91507f4f6e6c7920565246436f6f7264696e61746f722063616e2066756c66696c6c006000830152602082019050919050565b6000613284603383613880565b91507f596f752063616e277420626574206d6f7265207468616e20312071756172746560008301527f722074686520636f6e7472616374732062616c000000000000000000000000006020830152604082019050919050565b60006132ea602d83613880565b91507f496e737566666973616e7420616d6f756e742c20706c6561736520696e63726560008301527f61736520796f75722062657421000000000000000000000000000000000000006020830152604082019050919050565b6040820160008201516133596000850182612fde565b50602082015161336c6020850182612ecf565b50505050565b600060a08301600083015161338a6000860182612ecf565b50602083015161339d60208601826133e8565b5060408301516133b06040860182612fc0565b50606083015184820360608601526133c8828261304c565b91505060808301516133dd60808601826133e8565b508091505092915050565b6133f1816138eb565b82525050565b613400816138eb565b82525050565b613417613412826138eb565b61398c565b82525050565b60006134298285612eb8565b6014820191506134398284613406565b6020820191508190509392505050565b60006134558285612ffc565b6020820191506134658284613406565b6020820191508190509392505050565b600060208201905061348a6000830184612ede565b92915050565b60006040820190506134a56000830185612ea9565b6134b260208301846133f7565b9392505050565b60006060820190506134ce6000830186612ea9565b6134db60208301856133f7565b6134e86040830184612fcf565b949350505050565b60006060820190506135056000830186612ea9565b61351260208301856133f7565b61351f60408301846133f7565b949350505050565b600060608201905061353c6000830186612ede565b61354960208301856133f7565b818103604083015261355b8184613013565b9050949350505050565b600060608201905061357a6000830186612ede565b61358760208301856133f7565b61359460408301846133f7565b949350505050565b600060208201905081810360008301526135b68184612eed565b905092915050565b600060208201905081810360008301526135d88184612f4b565b905092915050565b60006020820190506135f56000830184612fcf565b92915050565b60006040820190506136106000830185612fcf565b61361d60208301846133f7565b9392505050565b60006040820190506136396000830185612fed565b6136466020830184612ede565b9392505050565b60006040820190506136626000830185612fed565b61366f60208301846133f7565b9392505050565b600060808201905061368b6000830187612fed565b61369860208301866133f7565b6136a56040830185612ede565b6136b260608301846133f7565b95945050505050565b600060208201905081810360008301526136d481613085565b9050919050565b600060208201905081810360008301526136f4816130eb565b9050919050565b600060208201905081810360008301526137148161312b565b9050919050565b600060208201905081810360008301526137348161316b565b9050919050565b60006020820190508181036000830152613754816131d1565b9050919050565b6000602082019050818103600083015261377481613237565b9050919050565b6000602082019050818103600083015261379481613277565b9050919050565b600060208201905081810360008301526137b4816132dd565b9050919050565b60006020820190506137d060008301846133f7565b92915050565b6000819050602082019050919050565b6000819050602082019050919050565b600081519050919050565b600081519050919050565b600081519050919050565b600081519050919050565b6000602082019050919050565b6000602082019050919050565b600082825260208201905092915050565b600082825260208201905092915050565b600082825260208201905092915050565b600082825260208201905092915050565b600082825260208201905092915050565b600061389c826138cb565b9050919050565b60006138ae826138cb565b9050919050565b60008115159050919050565b6000819050919050565b600073ffffffffffffffffffffffffffffffffffffffff82169050919050565b6000819050919050565b600061390082613907565b9050919050565b600061391282613919565b9050919050565b6000613924826138cb565b9050919050565b60005b8381101561394957808201518184015260208101905061392e565b83811115613958576000848401525b50505050565b60006139698261397a565b9050919050565b6000819050919050565b6000613985826139a7565b9050919050565b6000819050919050565b6000601f19601f8301169050919050565b60008160601b9050919050565b6139bd81613891565b81146139c857600080fd5b50565b6139d4816138b5565b81146139df57600080fd5b50565b6139eb816138c1565b81146139f657600080fd5b50565b613a02816138eb565b8114613a0d57600080fd5b5056fea264697066735822122025ced8fb1ccc82e9dca0da7aa2de8d555b357cc6d59ba5221d42314a369ee18964736f6c63430006060033",
  "immutableReferences": {
    "1422": [
      {
        "length": 32,
        "start": 9811
      },
      {
        "length": 32,
        "start": 10628
      }
    ],
    "1424": [
      {
        "length": 32,
        "start": 6057
      },
      {
        "length": 32,
        "start": 10688
      }
    ]
  },
  "source": "// SPDX-License-Identifier: MIT\r\npragma solidity >=0.4.22 <0.9.0;\r\npragma experimental ABIEncoderV2;\r\n\r\n// import \"https://raw.githubusercontent.com/smartcontractkit/chainlink/master/evm-contracts/src/v0.6/VRFConsumerBase.sol\";\r\nimport \"./VRFConsumerBase.sol\";\r\nimport \"./OnlyOwner.sol\";\r\n\r\ncontract CoinFlip is VRFConsumerBase, Owner{\r\n\r\n\r\n    // *************************************************************************************************\r\n    // *            -------------------CONTRACT EVENTS--------------------------                       *                                                                            *\r\n    // *************************************************************************************************\r\n\r\n    event depositMade(address depositedBy, uint amount);\r\n    event withdrawMade(address withdrawedBy, uint amount);\r\n    event betInitialized(address player_address, uint amount, uint betId);\r\n    event coinFlipped(address playerAddress, uint betId, bool hasWon);\r\n    event FlipResult(address indexed player, bool won, uint amountWon);\r\n    event LogNewProvableQuery(address indexed player);\r\n    event balanceUpdated(address player, uint newBalance, uint oldBalance);\r\n    event  generatedRandomNumber(uint256 randomNumber);\r\n\r\n\r\n    // *************************************************************************************************\r\n    // *            -------------------DATA STRUCTURES--------------------------                       *                                                                            *\r\n    // *************************************************************************************************\r\n\r\n    struct Player {\r\n        address playerAddress;\r\n        uint256 betAmount;\r\n        bool hasWon;\r\n        string bet_type;\r\n        uint id;\r\n    }\r\n\r\n    struct OracleQuery {\r\n        bytes32 id;\r\n        address playerAddress;\r\n  }\r\n    \r\n    mapping(address => bytes32) oracleQuereyID;\r\n    mapping(address => bool) waitingForOracle;          //stores result of the oracle RN fetch request for a player true/false\r\n    mapping(address => bool) isActive;                    //stores the result of the oracles random number for a player\r\n    mapping(uint => OracleQuery) public playerOracleqQuerey;     //oracle querey\r\n    mapping(address => Player) player;                  //player struct has attributes such as address, betAmount, player ID\r\n    mapping(address => uint256) contratcBalance;        //contratc balance mappping\r\n    mapping(address => uint) betType;\r\n    mapping(address => bool) flipped;\r\n\r\n    //initial vars set id globally increment each time a player is made\r\n    //NUM random bytes is how much bytes we request from the oracle 1 = range(0, 256) bytes\r\n    //initilaise Player array which will store each instance of a player bet for lookups\r\n    uint256 public RandomResult;\r\n    uint  private _id = 0;\r\n    uint private contractBalance;\r\n    bytes32 internal keyHash;\r\n    uint256 internal fee;\r\n    Player[] betLog;\r\n    OracleQuery[] queryLog;\r\n    \r\n\r\n    // *************************************************************************************************\r\n    // *            -------------------CONSTRUCTORS & MODIFIERS--------------------------                       *                                                                            *\r\n    // *************************************************************************************************\r\n\r\n    //init contratc balance to 0\r\n    constructor() VRFConsumerBase( 0xdD3782915140c8f3b190B5D67eAc6dc5760C46E9, 0xa36085F69e2889c224210F603D836748e7dC0088) public {\r\n        \r\n       \r\n        contratcBalance[address(this)] = 0;\r\n        \r\n        {\r\n        keyHash = 0x6c3699283bda56ad74f6b855546325b68d482e983852a7a82979cc4807b641f4;\r\n        fee = 0.1 * 10 ** 18; // 0.1 LINK (Varies by network)\r\n        }\r\n    \r\n\r\n    }\r\n    \r\n    // modifier for the bet Conditions function. cannot create a bet smaller than 0.01 eth\r\n    // the betAmiunt must be less thatn half of the contratc bal or else they payout is not possible\r\n    // no player can have more than one bet ongoing handle this with an isActive attribute\r\n    modifier betConditions {\r\n        require(msg.value >= 0.001 ether, \"Insuffisant amount, please increase your bet!\");\r\n        require(isActive[msg.sender] == false, \"Cannot have more than one active bet at a time\");\r\n        if(betType[msg.sender] == 1) {\r\n            require(msg.value <= contratcBalance[address(this)] / 2, \"You can't bet more than half the contracts bal\");\r\n        }\r\n        else {\r\n            require(msg.value <= contratcBalance[address(this)] / 4, \"You can't bet more than 1 quarter the contracts bal\");\r\n        }\r\n        \r\n        _;\r\n    }\r\n    \r\n    \r\n     // *************************************************************************************************\r\n    // *       -------------------CHAINLINK ORACLE FUNCS FOR RANDOMNESS--------------------------       *                                                                            *\r\n    // **************************************************************************************************\r\n    \r\n\r\n    //this function is called in the flip con fuctiom below. When this function is resolved by\r\n    //the chainlink oracle then the callback function (fullfil randomness) below is called and\r\n    //the random number is settled for use in the settleBet function which gets called after \r\n    //flipCoin()\r\n    function getRandomNumber(uint256 userProvidedSeed) private returns (bytes32 requestId) {\r\n        require(LINK.balanceOf(address(this)) >= fee, \"Not enough LINK - fill contract with faucet\");\r\n        return requestRandomness(keyHash, fee, userProvidedSeed);\r\n    }\r\n\r\n    /**\r\n     * Callback function used by VRF Coordinator\r\n     */\r\n    function fulfillRandomness(bytes32 requestId, uint256 randomness) internal override {\r\n        \r\n        // waitingForOracle[msg.sender] = true;\r\n        oracleQuereyID[msg.sender] = requestId;\r\n        playerOracleqQuerey[player[msg.sender].id].playerAddress = msg.sender;\r\n        playerOracleqQuerey[player[msg.sender].id].id = requestId;\r\n        queryLog.push(OracleQuery(requestId, msg.sender));\r\n        RandomResult = randomness % 2;\r\n       \r\n\r\n        emit  generatedRandomNumber(RandomResult);\r\n    }\r\n    \r\n    \r\n    // *************************************************************************************************\r\n    // *            -------------------COINFLIP MAIN ALGORITHM--------------------------                    *                                                                            *\r\n    // *************************************************************************************************\r\n\r\n    \r\n    \r\n    function setBet() public betConditions payable  {\r\n\r\n        //initalize a player#\r\n        string memory betTy;\r\n        uint result = getBetTyp();\r\n        if(result == 1) {\r\n            betTy = \"Heads\";\r\n        }else {\r\n            betTy = \"Tails\";\r\n        }\r\n        \r\n        player[msg.sender].playerAddress = msg.sender;\r\n        player[msg.sender].betAmount = msg.value;\r\n        player[msg.sender].hasWon = false;\r\n        player[msg.sender].bet_type = betTy;\r\n        player[msg.sender].id = _id;\r\n\r\n        //push the player to the betLog\r\n        betLog.push(Player(msg.sender, msg.value, false, betTy, _id));\r\n        isActive[msg.sender] = true;\r\n        flipped[msg.sender] = false;\r\n        waitingForOracle[msg.sender] == false;\r\n\r\n        //set waiting for oracle result to true\r\n        //and update balances / id accordingly\r\n        contratcBalance[address(this)] += player[msg.sender].betAmount;\r\n        // contratcBalance[address(this)] += player[msg.sender].betAmount;\r\n        _id++;\r\n        \r\n        emit betInitialized(msg.sender, player[msg.sender].betAmount, player[msg.sender].id);\r\n       \r\n    }\r\n\r\n    \r\n    //update tomorrow to have the flip function update struct values\r\n    //have another funcion which is then called that puts into play the effects\r\n    function flipCoin() public {\r\n        \r\n        require(isActive[msg.sender] == true);\r\n        require(waitingForOracle[msg.sender] == false);\r\n        \r\n         //call the update function which is responsible for handlu=ing the\r\n        //oracle querey request to get a external trully random number\r\n        waitingForOracle[msg.sender] = true;\r\n        flipped[msg.sender] = true;\r\n        getRandomNumber(uint256(keccak256(abi.encodePacked(msg.sender, block.timestamp))));\r\n        \r\n        emit coinFlipped(msg.sender, player[msg.sender].id, isActive[msg.sender]);\r\n      \r\n    }\r\n\r\n    \r\n    //this function takes the result from the flipCoin function and settles the bet\r\n    //decreases player balance if coinflip is 0 and increases player bal in the\r\n    //coinFlip result is 1\r\n    function settleBet() public payable  {\r\n        \r\n        require(flipped[msg.sender] == true);\r\n        require(isActive[msg.sender]);\r\n        require(waitingForOracle[msg.sender] == false);\r\n        // RandomResult = 1;\r\n        if (RandomResult == 1) {\r\n            player[msg.sender].hasWon = true;\r\n            // betLog[_id].hasWon = true;\r\n        }\r\n        \r\n        //store old player balance for events\r\n        // uint256 oldPlayerBalance = playerbalance[msg.sender];\r\n        uint256 oldContractBalance = contratcBalance[address(this)];\r\n        // uint256 betAmount = player[msg.sender].betAmount;\r\n\r\n     \r\n        // address playerAddress = playerOracleqQuerey[player[msg.sender].id].playerAddress;\r\n        uint betAmount = player[msg.sender].betAmount;\r\n\r\n        //update player balances respectively depending\r\n        if (player[msg.sender].hasWon && betType[msg.sender] == 1) {\r\n            \r\n            contratcBalance[address(this)] -= 2 * player[msg.sender].betAmount;\r\n            msg.sender.transfer(2 * player[msg.sender].betAmount);\r\n            emit FlipResult (msg.sender, true, betAmount * 2);\r\n            \r\n        }\r\n        else if (!player[msg.sender].hasWon && betType[msg.sender] == 1) {\r\n            emit FlipResult (msg.sender, true, betAmount * 2);\r\n            \r\n        }\r\n        else if (player[msg.sender].hasWon && betType[msg.sender] == 0) {\r\n            \r\n            contratcBalance[address(this)] -= 4 * player[msg.sender].betAmount;\r\n            msg.sender.transfer(4 * player[msg.sender].betAmount);\r\n            emit FlipResult (msg.sender, true, betAmount * 2);\r\n            \r\n        }\r\n        else if (!player[msg.sender].hasWon && betType[msg.sender] == 1) {\r\n            emit FlipResult (msg.sender, true, betAmount * 2);\r\n            \r\n        }\r\n\r\n        //delete player result for fresh new bet\r\n        //delete player oracle querey for fresh bet als\r\n        isActive[msg.sender] = false;\r\n\r\n        // emit balanceUpdated(msg.sender, playerbalance[msg.sender], oldPlayerBalance);\r\n        emit balanceUpdated(address(this), contratcBalance[address(this)], oldContractBalance);\r\n        \r\n        \r\n    }\r\n\r\n\r\n\r\n    // *************************************************************************************************\r\n    // *            -------------------DEPOSIT/WITHDRAWABLE FUNCTIONS--------------------------        *                                                                            *\r\n    // *************************************************************************************************\r\n\r\n    function withdraw() public payable isOwner  {\r\n       \r\n        msg.sender.transfer(contratcBalance[address(this)]);\r\n        contratcBalance[address(this)]-= contratcBalance[address(this)];\r\n\r\n        emit withdrawMade(msg.sender, contratcBalance[address(this)]);\r\n\r\n    }\r\n    \r\n\r\n    function deposit() public payable isOwner {\r\n        // playerbalance[msg.sender] += msg.value;\r\n        contratcBalance[address(this)] += msg.value;\r\n\r\n        emit depositMade(msg.sender, msg.value);\r\n    }\r\n\r\n\r\n    // *************************************************************************************************\r\n    // *            ------------------_HELPER FUNCTIONS--------------------------                      *                                                                            *\r\n    // *************************************************************************************************\r\n    \r\n    \r\n     function Flipped() public view returns (bool) {\r\n        return flipped[msg.sender];\r\n    }\r\n    \r\n    \r\n    function notWaiting() public returns (bool) {\r\n        waitingForOracle[msg.sender] = false;\r\n        return waitingForOracle[msg.sender];\r\n        \r\n    }\r\n\r\n    \r\n    function chooseBetType(uint typeOfBet) public returns (uint) {\r\n        \r\n        require(isActive[msg.sender] == false);\r\n        \r\n        if(typeOfBet == 1) {\r\n            betType[msg.sender] = 1;\r\n        }else {\r\n            betType[msg.sender] = 0;\r\n        }\r\n        \r\n        return betType[msg.sender];\r\n    }\r\n    \r\n     function canCelBet() public {\r\n        \r\n        require(betLog.length > 0);\r\n        require(isActive[msg.sender] == true);\r\n        require(flipped[msg.sender] == false);\r\n        require(waitingForOracle[msg.sender] == false);\r\n        isActive[msg.sender] = false;\r\n        \r\n        contratcBalance[address(this)] -= player[msg.sender].betAmount;\r\n        msg.sender.transfer(player[msg.sender].betAmount);\r\n        \r\n        delete(betLog);\r\n        \r\n    }\r\n    \r\n    function getBetTyp() public view returns (uint) {\r\n        return betType[msg.sender];\r\n    }\r\n   \r\n\r\n    //get Bet status, is player playing or not\r\n    function getRandomNumber() public view returns(uint) {\r\n        return RandomResult;\r\n    }\r\n\r\n    function getBetStatus() public view returns(bool) {\r\n        return isActive[msg.sender];\r\n    }\r\n    \r\n     function getQueryLog() public view returns(OracleQuery[] memory) {\r\n        return queryLog;\r\n    }\r\n  \r\n\r\n    function hasWon() public view returns(bool) {\r\n        return player[msg.sender].hasWon;\r\n    }\r\n\r\n    //return msg.sender\r\n    function getPlayer() public view returns(address) {\r\n      \r\n        return msg.sender;\r\n    }\r\n    \r\n    //get contraqtc bal\r\n    function getContratcBalance() public view returns(uint) {\r\n      \r\n        return contratcBalance[address(this)];\r\n    }\r\n \r\n    \r\n    //return the players bet\r\n    function getCurrentBet() public view returns(uint) {\r\n        return player[msg.sender].betAmount;\r\n    }\r\n    \r\n    //return the bet Log of all bet histroys    \r\n    function getActiveBets() public view returns(Player[] memory) {\r\n        return betLog;\r\n    }\r\n}\r\n",
  "sourcePath": "C:/Users/evanm/OneDrive/Documents/EthereumProgramming/Solidity-201/CoinFlipDapp/BackEnd/contracts/CoinFlip.sol",
  "compiler": {
    "name": "solc",
    "version": "0.6.6+commit.6c089d02.Emscripten.clang"
  },
  "schemaVersion": "3.3.4",
  "updatedAt": "2021-06-10T21:55:15.243Z",
  "networkType": "ethereum",
  "devdoc": {
    "methods": {
      "changeOwner(address)": {
        "details": "Change owner",
        "params": {
          "newOwner": "address of new owner"
        }
      },
      "getOwner()": {
        "details": "Return owner address",
        "returns": {
          "_0": "address of owner"
        }
      }
    }
  },
  "userdoc": {
    "methods": {}
  }
}