{
  "contractName": "CoinFlip",
  "abi": [
    {
      "inputs": [],
      "payable": false,
      "stateMutability": "nonpayable",
      "type": "constructor"
    },
    {
      "constant": true,
      "inputs": [],
      "name": "getBetStatus",
      "outputs": [
        {
          "name": "",
          "type": "bool"
        }
      ],
      "payable": false,
      "stateMutability": "view",
      "type": "function"
    },
    {
      "constant": true,
      "inputs": [],
      "name": "getPlayer",
      "outputs": [
        {
          "name": "",
          "type": "address"
        }
      ],
      "payable": false,
      "stateMutability": "view",
      "type": "function"
    },
    {
      "constant": true,
      "inputs": [],
      "name": "getContratcBalance",
      "outputs": [
        {
          "name": "",
          "type": "uint256"
        }
      ],
      "payable": false,
      "stateMutability": "view",
      "type": "function"
    },
    {
      "constant": true,
      "inputs": [],
      "name": "getPlayerBalance",
      "outputs": [
        {
          "name": "",
          "type": "uint256"
        }
      ],
      "payable": false,
      "stateMutability": "view",
      "type": "function"
    },
    {
      "constant": true,
      "inputs": [],
      "name": "random",
      "outputs": [
        {
          "name": "",
          "type": "uint256"
        }
      ],
      "payable": false,
      "stateMutability": "view",
      "type": "function"
    },
    {
      "constant": true,
      "inputs": [],
      "name": "getCurrentBet",
      "outputs": [
        {
          "name": "",
          "type": "uint256"
        }
      ],
      "payable": false,
      "stateMutability": "view",
      "type": "function"
    },
    {
      "constant": true,
      "inputs": [],
      "name": "getPlayerId",
      "outputs": [
        {
          "name": "",
          "type": "uint256"
        }
      ],
      "payable": false,
      "stateMutability": "view",
      "type": "function"
    },
    {
      "constant": true,
      "inputs": [],
      "name": "getActiveBets",
      "outputs": [
        {
          "components": [
            {
              "name": "playerAddress",
              "type": "address"
            },
            {
              "name": "betAmount",
              "type": "uint256"
            },
            {
              "name": "balance",
              "type": "uint256"
            },
            {
              "name": "isActive",
              "type": "bool"
            },
            {
              "name": "hasWon",
              "type": "bool"
            },
            {
              "name": "id",
              "type": "uint256"
            }
          ],
          "name": "",
          "type": "tuple[]"
        }
      ],
      "payable": false,
      "stateMutability": "view",
      "type": "function"
    },
    {
      "constant": false,
      "inputs": [],
      "name": "deposit",
      "outputs": [],
      "payable": true,
      "stateMutability": "payable",
      "type": "function"
    },
    {
      "constant": false,
      "inputs": [
        {
          "name": "amount",
          "type": "uint256"
        }
      ],
      "name": "setBet",
      "outputs": [],
      "payable": false,
      "stateMutability": "nonpayable",
      "type": "function"
    },
    {
      "constant": true,
      "inputs": [],
      "name": "flipCoin",
      "outputs": [
        {
          "name": "",
          "type": "bool"
        }
      ],
      "payable": false,
      "stateMutability": "view",
      "type": "function"
    },
    {
      "constant": false,
      "inputs": [
        {
          "name": "randomSeed",
          "type": "bool"
        }
      ],
      "name": "settleBet",
      "outputs": [],
      "payable": false,
      "stateMutability": "nonpayable",
      "type": "function"
    },
    {
      "constant": false,
      "inputs": [
        {
          "name": "amount",
          "type": "uint256"
        }
      ],
      "name": "withdraw",
      "outputs": [],
      "payable": true,
      "stateMutability": "payable",
      "type": "function"
    }
  ],
  "bytecode": "0x608060405234801561001057600080fd5b50678ac7230489e80000600360003073ffffffffffffffffffffffffffffffffffffffff1673ffffffffffffffffffffffffffffffffffffffff168152602001908152602001600020819055506112788061006c6000396000f3fe6080604052600436106100bf576000357c0100000000000000000000000000000000000000000000000000000000900480630b01517c146100c45780631fa859e8146100ef5780632e1a7d4d1461011a5780633308f42d146101365780635ec01e4d14610161578063799ae2231461018c578063ac436660146101b7578063ada73020146101e2578063b78974851461020d578063c227609014610238578063d0e30db014610261578063d9b37faf1461026b578063e8399cc614610296575b600080fd5b3480156100d057600080fd5b506100d96102bf565b6040516100e691906111a0565b60405180910390f35b3480156100fb57600080fd5b50610104610306565b6040516101119190611185565b60405180910390f35b610134600480360361012f919081019061101c565b61035c565b005b34801561014257600080fd5b5061014b6104eb565b6040516101589190611148565b60405180910390f35b34801561016d57600080fd5b506101766104f3565b60405161018391906111a0565b60405180910390f35b34801561019857600080fd5b506101a1610507565b6040516101ae9190611185565b60405180910390f35b3480156101c357600080fd5b506101cc610596565b6040516101d991906111a0565b60405180910390f35b3480156101ee57600080fd5b506101f76105df565b6040516102049190611163565b60405180910390f35b34801561021957600080fd5b506102226106e9565b60405161022f91906111a0565b60405180910390f35b34801561024457600080fd5b5061025f600480360361025a9190810190610ff3565b610732565b005b610269610b81565b005b34801561027757600080fd5b50610280610bd0565b60405161028d91906111a0565b60405180910390f35b3480156102a257600080fd5b506102bd60048036036102b8919081019061101c565b610c17565b005b6000600260003373ffffffffffffffffffffffffffffffffffffffff1673ffffffffffffffffffffffffffffffffffffffff16815260200190815260200160002054905090565b60008060003373ffffffffffffffffffffffffffffffffffffffff1673ffffffffffffffffffffffffffffffffffffffff16815260200190815260200160002060030160009054906101000a900460ff16905090565b6000600260003373ffffffffffffffffffffffffffffffffffffffff1673ffffffffffffffffffffffffffffffffffffffff16815260200190815260200160002054141515156103ab57600080fd5b670de0b6b3a764000081029050806000803373ffffffffffffffffffffffffffffffffffffffff1673ffffffffffffffffffffffffffffffffffffffff1681526020019081526020016000206002016000828254039250508190555080600260003373ffffffffffffffffffffffffffffffffffffffff1673ffffffffffffffffffffffffffffffffffffffff1681526020019081526020016000206000828254039250508190555080600360003073ffffffffffffffffffffffffffffffffffffffff1673ffffffffffffffffffffffffffffffffffffffff168152602001908152602001600020600082825403925050819055503373ffffffffffffffffffffffffffffffffffffffff166108fc829081150290604051600060405180830381858888f193505050501580156104e7573d6000803e3d6000fd5b5050565b600033905090565b600060024281151561050157fe5b06905090565b6000600115156000803373ffffffffffffffffffffffffffffffffffffffff1673ffffffffffffffffffffffffffffffffffffffff16815260200190815260200160002060030160009054906101000a900460ff16151514151561056a57600080fd5b6000806105756104f3565b90506001811415610589576001915061058e565b600091505b819250505090565b60008060003373ffffffffffffffffffffffffffffffffffffffff1673ffffffffffffffffffffffffffffffffffffffff16815260200190815260200160002060040154905090565b60606001805480602002602001604051908101604052809291908181526020016000905b828210156106e0578382906000526020600020906005020160c060405190810160405290816000820160009054906101000a900473ffffffffffffffffffffffffffffffffffffffff1673ffffffffffffffffffffffffffffffffffffffff1673ffffffffffffffffffffffffffffffffffffffff16815260200160018201548152602001600282015481526020016003820160009054906101000a900460ff161515151581526020016003820160019054906101000a900460ff1615151515815260200160048201548152505081526020019060010190610603565b50505050905090565b60008060003373ffffffffffffffffffffffffffffffffffffffff1673ffffffffffffffffffffffffffffffffffffffff16815260200190815260200160002060010154905090565b60008060003373ffffffffffffffffffffffffffffffffffffffff1673ffffffffffffffffffffffffffffffffffffffff16815260200190815260200160002060010154905081156108b85760016000803373ffffffffffffffffffffffffffffffffffffffff1673ffffffffffffffffffffffffffffffffffffffff16815260200190815260200160002060030160016101000a81548160ff02191690831515021790555080600360003073ffffffffffffffffffffffffffffffffffffffff1673ffffffffffffffffffffffffffffffffffffffff168152602001908152602001600020600082825403925050819055506000803373ffffffffffffffffffffffffffffffffffffffff1673ffffffffffffffffffffffffffffffffffffffff16815260200190815260200160002060020154600260003373ffffffffffffffffffffffffffffffffffffffff1673ffffffffffffffffffffffffffffffffffffffff168152602001908152602001600020600082825401925050819055506109ee565b60008060003373ffffffffffffffffffffffffffffffffffffffff1673ffffffffffffffffffffffffffffffffffffffff16815260200190815260200160002060030160016101000a81548160ff02191690831515021790555080600360003073ffffffffffffffffffffffffffffffffffffffff1673ffffffffffffffffffffffffffffffffffffffff168152602001908152602001600020600082825401925050819055506000803373ffffffffffffffffffffffffffffffffffffffff1673ffffffffffffffffffffffffffffffffffffffff16815260200190815260200160002060020154600260003373ffffffffffffffffffffffffffffffffffffffff1673ffffffffffffffffffffffffffffffffffffffff168152602001908152602001600020600082825403925050819055505b60008060003373ffffffffffffffffffffffffffffffffffffffff1673ffffffffffffffffffffffffffffffffffffffff16815260200190815260200160002060030160006101000a81548160ff0219169083151502179055506000803373ffffffffffffffffffffffffffffffffffffffff1673ffffffffffffffffffffffffffffffffffffffff168152602001908152602001600020600080820160006101000a81549073ffffffffffffffffffffffffffffffffffffffff0219169055600182016000905560028201600090556003820160006101000a81549060ff02191690556003820160016101000a81549060ff02191690556004820160009055505060018054801515610afd57fe5b6001900381819060005260206000209060050201600080820160006101000a81549073ffffffffffffffffffffffffffffffffffffffff0219169055600182016000905560028201600090556003820160006101000a81549060ff02191690556003820160016101000a81549060ff02191690556004820160009055505090555050565b34600260003373ffffffffffffffffffffffffffffffffffffffff1673ffffffffffffffffffffffffffffffffffffffff16815260200190815260200160002060008282540192505081905550565b6000600360003073ffffffffffffffffffffffffffffffffffffffff1673ffffffffffffffffffffffffffffffffffffffff16815260200190815260200160002054905090565b6000809050336000803373ffffffffffffffffffffffffffffffffffffffff1673ffffffffffffffffffffffffffffffffffffffff16815260200190815260200160002060000160006101000a81548173ffffffffffffffffffffffffffffffffffffffff021916908373ffffffffffffffffffffffffffffffffffffffff160217905550816000803373ffffffffffffffffffffffffffffffffffffffff1673ffffffffffffffffffffffffffffffffffffffff16815260200190815260200160002060010181905550600260003373ffffffffffffffffffffffffffffffffffffffff1673ffffffffffffffffffffffffffffffffffffffff168152602001908152602001600020546000803373ffffffffffffffffffffffffffffffffffffffff1673ffffffffffffffffffffffffffffffffffffffff1681526020019081526020016000206002018190555060016000803373ffffffffffffffffffffffffffffffffffffffff1673ffffffffffffffffffffffffffffffffffffffff16815260200190815260200160002060030160006101000a81548160ff02191690831515021790555060008060003373ffffffffffffffffffffffffffffffffffffffff1673ffffffffffffffffffffffffffffffffffffffff16815260200190815260200160002060030160016101000a81548160ff021916908315150217905550806000803373ffffffffffffffffffffffffffffffffffffffff1673ffffffffffffffffffffffffffffffffffffffff16815260200190815260200160002060040181905550600160c0604051908101604052803373ffffffffffffffffffffffffffffffffffffffff168152602001848152602001600260003373ffffffffffffffffffffffffffffffffffffffff1673ffffffffffffffffffffffffffffffffffffffff168152602001908152602001600020548152602001600115158152602001600015158152602001838152509080600181540180825580915050906001820390600052602060002090600502016000909192909190915060008201518160000160006101000a81548173ffffffffffffffffffffffffffffffffffffffff021916908373ffffffffffffffffffffffffffffffffffffffff160217905550602082015181600101556040820151816002015560608201518160030160006101000a81548160ff02191690831515021790555060808201518160030160016101000a81548160ff02191690831515021790555060a0820151816004015550505080806001019150505050565b6000610fd78235611228565b905092915050565b6000610feb8235611234565b905092915050565b60006020828403121561100557600080fd5b600061101384828501610fcb565b91505092915050565b60006020828403121561102e57600080fd5b600061103c84828501610fdf565b91505092915050565b61104e816111e0565b82525050565b600061105f826111c8565b808452602084019350611071836111bb565b60005b828110156110a3576110878683516110be565b611090826111d3565b915060c086019550600181019050611074565b50849250505092915050565b6110b8816111f2565b82525050565b60c0820160008201516110d46000850182611045565b5060208201516110e76020850182611139565b5060408201516110fa6040850182611139565b50606082015161110d60608501826110af565b50608082015161112060808501826110af565b5060a082015161113360a0850182611139565b50505050565b6111428161121e565b82525050565b600060208201905061115d6000830184611045565b92915050565b6000602082019050818103600083015261117d8184611054565b905092915050565b600060208201905061119a60008301846110af565b92915050565b60006020820190506111b56000830184611139565b92915050565b6000602082019050919050565b600081519050919050565b6000602082019050919050565b60006111eb826111fe565b9050919050565b60008115159050919050565b600073ffffffffffffffffffffffffffffffffffffffff82169050919050565b6000819050919050565b60008115159050919050565b600081905091905056fea265627a7a72305820e1556c23c35be7b2bdd4cddef61d9d7e83f0dcd521ee1746d1ad9ef9d7fc32466c6578706572696d656e74616cf50037",
  "source": "// SPDX-License-Identifier: MIT\r\npragma solidity >=0.4.22 <0.9.0;\r\npragma experimental ABIEncoderV2;\r\n\r\ncontract CoinFlip {\r\n\r\n    \r\n    struct Player {\r\n        address playerAddress;\r\n        uint256 betAmount;\r\n        uint256 balance;\r\n        bool isActive;\r\n        bool hasWon;\r\n        // bool isWithdrawable;\r\n        uint id;\r\n    }\r\n    \r\n    mapping(address => Player) player;\r\n    Player[] betLog;\r\n    mapping(address => uint256) playerbalance;\r\n    mapping(address => uint256) contratcBalance;\r\n    \r\n    constructor() public {\r\n       \r\n        contratcBalance[address(this)] = 10000000000000000000;\r\n\r\n    }\r\n    \r\n    modifier betConditions {\r\n        // require(msg.value >= 0.001 ether, \"Insuffisant amount, please increase your bet!\");\r\n        //require(msg.value <= getContractBalance()/2, \"You can't bet more than half the contract's balance!\");\r\n        // require(player[msg.sender].isActive == false, \"A bet is already ongoing with this address.\");\r\n        _;\r\n    }\r\n    \r\n\r\n    function getBetStatus() public view returns(bool) {\r\n        return player[msg.sender].isActive;\r\n    }\r\n\r\n    function getPlayer() public view returns(address) {\r\n      \r\n        return msg.sender;\r\n    }\r\n    \r\n     \r\n    function getContratcBalance() public view returns(uint) {\r\n      \r\n        return contratcBalance[address(this)];\r\n    }\r\n    \r\n     \r\n    function getPlayerBalance() public view returns(uint) {\r\n        return playerbalance[msg.sender];\r\n    }\r\n    \r\n    function random() public view returns(uint) {\r\n        return block.timestamp % 2;\r\n    }\r\n    \r\n    function getCurrentBet() public view returns(uint) {\r\n        return player[msg.sender].betAmount;\r\n    }\r\n    \r\n     function getPlayerId() public view returns(uint) {\r\n        return player[msg.sender].id;\r\n    }\r\n    \r\n    function getActiveBets() public view returns(Player[] memory) {\r\n        return betLog;\r\n    }\r\n\r\n    function deposit() public payable {\r\n        playerbalance[msg.sender] += msg.value;\r\n    }\r\n    \r\n    function setBet(uint amount) public betConditions {\r\n        uint  _id = 0;\r\n        \r\n        // for (uint i = 0; i < betLog.length; i++)\r\n        // {\r\n        //     require(betLog[i].playerAddress != msg.sender, \"Already registered\");\r\n        // }\r\n       \r\n        player[msg.sender].playerAddress = msg.sender;\r\n        player[msg.sender].betAmount = amount;\r\n        player[msg.sender].balance = playerbalance[msg.sender];\r\n        player[msg.sender].isActive = true;\r\n        player[msg.sender].hasWon = false;\r\n        player[msg.sender].id = _id;\r\n        \r\n        betLog.push(Player(msg.sender, amount, playerbalance[msg.sender], true, false, _id));\r\n        _id++;\r\n        \r\n       \r\n    }\r\n   \r\n    //update tomorrow to have the flip function update struct values\r\n    //have another funcion which is then called that puts into play the effects\r\n    function flipCoin() public view returns(bool) {\r\n        \r\n        require(player[msg.sender].isActive == true);\r\n        // uint user_index = player[msg.sender].id;\r\n        bool betWin;\r\n        uint randomSeed = random();\r\n        if (randomSeed == 1) {\r\n            betWin = true;\r\n        }\r\n        else {\r\n            betWin = false;\r\n        }\r\n      \r\n        return(betWin);\r\n    }\r\n\r\n    function settleBet(bool randomSeed) public {\r\n\r\n        // bool randomSeed;\r\n       uint betAmount = player[msg.sender].betAmount;\r\n        if(randomSeed) {\r\n           player[msg.sender].hasWon = true;\r\n        //   player[msg.sender].balance = betAmount;\r\n           contratcBalance[address(this)] -= betAmount;\r\n           playerbalance[msg.sender] += player[msg.sender].balance;\r\n        }   \r\n        else {\r\n            player[msg.sender].hasWon = false;\r\n            // player[msg.sender].balance -= betAmount ;\r\n            contratcBalance[address(this)] += betAmount;\r\n            playerbalance[msg.sender] -= player[msg.sender].balance;\r\n            \r\n        }\r\n\r\n        player[msg.sender].isActive = false;\r\n        delete(player[msg.sender]);\r\n        betLog.pop();\r\n        \r\n    }\r\n\r\n    function withdraw(uint amount) public payable {\r\n        require(playerbalance[msg.sender] != 0);\r\n        amount = amount * 10 ** 18;\r\n        \r\n        // uint256 withdrawAmount = amount;\r\n        player[msg.sender].balance -= amount;\r\n        playerbalance[msg.sender] -= amount;\r\n        contratcBalance[address(this)] -= amount;\r\n        // address payable playerAddress = payable(msg.sender);\r\n        msg.sender.transfer(amount);\r\n\r\n       \r\n\r\n\r\n    }\r\n}\r\n",
  "sourcePath": "C:/Users/evanm/OneDrive/Documents/EthereumProgramming/Solidity-201/CoinFlipDapp/BackEnd/contracts/CoinFlip.sol",
  "compiler": {
    "name": "solc",
    "version": "0.5.1+commit.c8a2cb62.Emscripten.clang"
  },
  "schemaVersion": "3.3.4",
  "updatedAt": "2021-06-03T16:43:08.968Z",
  "networkType": "ethereum",
  "devdoc": {
    "methods": {}
  },
  "userdoc": {
    "methods": {}
  }
}