{
  "contractName": "CoinFlip",
  "abi": [
    {
      "inputs": [],
      "payable": false,
      "stateMutability": "nonpayable",
      "type": "constructor"
    },
    {
      "constant": true,
      "inputs": [],
      "name": "getBetStatus",
      "outputs": [
        {
          "internalType": "bool",
          "name": "",
          "type": "bool"
        }
      ],
      "payable": false,
      "stateMutability": "view",
      "type": "function"
    },
    {
      "constant": true,
      "inputs": [],
      "name": "getPlayer",
      "outputs": [
        {
          "internalType": "address",
          "name": "",
          "type": "address"
        }
      ],
      "payable": false,
      "stateMutability": "view",
      "type": "function"
    },
    {
      "constant": true,
      "inputs": [],
      "name": "getContratcBalance",
      "outputs": [
        {
          "internalType": "uint256",
          "name": "",
          "type": "uint256"
        }
      ],
      "payable": false,
      "stateMutability": "view",
      "type": "function"
    },
    {
      "constant": true,
      "inputs": [],
      "name": "getPlayerBalance",
      "outputs": [
        {
          "internalType": "uint256",
          "name": "",
          "type": "uint256"
        }
      ],
      "payable": false,
      "stateMutability": "view",
      "type": "function"
    },
    {
      "constant": true,
      "inputs": [],
      "name": "random",
      "outputs": [
        {
          "internalType": "uint256",
          "name": "",
          "type": "uint256"
        }
      ],
      "payable": false,
      "stateMutability": "view",
      "type": "function"
    },
    {
      "constant": true,
      "inputs": [],
      "name": "getCurrentBet",
      "outputs": [
        {
          "internalType": "uint256",
          "name": "",
          "type": "uint256"
        }
      ],
      "payable": false,
      "stateMutability": "view",
      "type": "function"
    },
    {
      "constant": true,
      "inputs": [],
      "name": "getPlayerId",
      "outputs": [
        {
          "internalType": "uint256",
          "name": "",
          "type": "uint256"
        }
      ],
      "payable": false,
      "stateMutability": "view",
      "type": "function"
    },
    {
      "constant": true,
      "inputs": [],
      "name": "getActiveBets",
      "outputs": [
        {
          "components": [
            {
              "internalType": "address",
              "name": "playerAddress",
              "type": "address"
            },
            {
              "internalType": "uint256",
              "name": "betAmount",
              "type": "uint256"
            },
            {
              "internalType": "uint256",
              "name": "balance",
              "type": "uint256"
            },
            {
              "internalType": "bool",
              "name": "isActive",
              "type": "bool"
            },
            {
              "internalType": "bool",
              "name": "hasWon",
              "type": "bool"
            },
            {
              "internalType": "uint256",
              "name": "id",
              "type": "uint256"
            }
          ],
          "internalType": "struct CoinFlip.Player[]",
          "name": "",
          "type": "tuple[]"
        }
      ],
      "payable": false,
      "stateMutability": "view",
      "type": "function"
    },
    {
      "constant": false,
      "inputs": [],
      "name": "setBet",
      "outputs": [],
      "payable": true,
      "stateMutability": "payable",
      "type": "function"
    },
    {
      "constant": true,
      "inputs": [],
      "name": "flipCoin",
      "outputs": [
        {
          "internalType": "bool",
          "name": "",
          "type": "bool"
        }
      ],
      "payable": false,
      "stateMutability": "view",
      "type": "function"
    },
    {
      "constant": false,
      "inputs": [
        {
          "internalType": "bool",
          "name": "randomSeed",
          "type": "bool"
        }
      ],
      "name": "settleBet",
      "outputs": [],
      "payable": false,
      "stateMutability": "nonpayable",
      "type": "function"
    },
    {
      "constant": false,
      "inputs": [],
      "name": "withdraw",
      "outputs": [],
      "payable": true,
      "stateMutability": "payable",
      "type": "function"
    }
  ],
  "bytecode": "0x608060405234801561001057600080fd5b50678ac7230489e80000600360003073ffffffffffffffffffffffffffffffffffffffff1673ffffffffffffffffffffffffffffffffffffffff168152602001908152602001600020819055506111eb8061006c6000396000f3fe6080604052600436106100a75760003560e01c8063ac43666011610064578063ac4366601461018d578063ada73020146101b8578063b7897485146101e3578063b84aa0651461020e578063c227609014610218578063d9b37faf14610241576100a7565b80630b01517c146100ac5780631fa859e8146100d75780633308f42d146101025780633ccfd60b1461012d5780635ec01e4d14610137578063799ae22314610162575b600080fd5b3480156100b857600080fd5b506100c161026c565b6040516100ce91906110f5565b60405180910390f35b3480156100e357600080fd5b506100ec6102b3565b6040516100f991906110da565b60405180910390f35b34801561010e57600080fd5b50610117610309565b604051610124919061109d565b60405180910390f35b610135610311565b005b34801561014357600080fd5b5061014c6104ce565b60405161015991906110f5565b60405180910390f35b34801561016e57600080fd5b506101776104e0565b60405161018491906110da565b60405180910390f35b34801561019957600080fd5b506101a261056d565b6040516101af91906110f5565b60405180910390f35b3480156101c457600080fd5b506101cd6105b6565b6040516101da91906110b8565b60405180910390f35b3480156101ef57600080fd5b506101f86106bf565b60405161020591906110f5565b60405180910390f35b610216610708565b005b34801561022457600080fd5b5061023f600480360361023a9190810190610f29565b610a80565b005b34801561024d57600080fd5b50610256610ecd565b60405161026391906110f5565b60405180910390f35b6000600260003373ffffffffffffffffffffffffffffffffffffffff1673ffffffffffffffffffffffffffffffffffffffff16815260200190815260200160002054905090565b60008060003373ffffffffffffffffffffffffffffffffffffffff1673ffffffffffffffffffffffffffffffffffffffff16815260200190815260200160002060030160009054906101000a900460ff16905090565b600033905090565b6000600260003373ffffffffffffffffffffffffffffffffffffffff1673ffffffffffffffffffffffffffffffffffffffff16815260200190815260200160002054141561035e57600080fd5b600060028060003373ffffffffffffffffffffffffffffffffffffffff1673ffffffffffffffffffffffffffffffffffffffff16815260200190815260200160002054816103a857fe5b04905060008060003373ffffffffffffffffffffffffffffffffffffffff1673ffffffffffffffffffffffffffffffffffffffff168152602001908152602001600020600201819055506000600260003373ffffffffffffffffffffffffffffffffffffffff1673ffffffffffffffffffffffffffffffffffffffff1681526020019081526020016000208190555080600360003073ffffffffffffffffffffffffffffffffffffffff1673ffffffffffffffffffffffffffffffffffffffff168152602001908152602001600020600082825403925050819055503373ffffffffffffffffffffffffffffffffffffffff166108fc829081150290604051600060405180830381858888f193505050501580156104ca573d6000803e3d6000fd5b5050565b6000600242816104da57fe5b06905090565b6000600115156000803373ffffffffffffffffffffffffffffffffffffffff1673ffffffffffffffffffffffffffffffffffffffff16815260200190815260200160002060030160009054906101000a900460ff1615151461054157600080fd5b60008061054c6104ce565b905060018114156105605760019150610565565b600091505b819250505090565b60008060003373ffffffffffffffffffffffffffffffffffffffff1673ffffffffffffffffffffffffffffffffffffffff16815260200190815260200160002060040154905090565b60606001805480602002602001604051908101604052809291908181526020016000905b828210156106b657838290600052602060002090600502016040518060c00160405290816000820160009054906101000a900473ffffffffffffffffffffffffffffffffffffffff1673ffffffffffffffffffffffffffffffffffffffff1673ffffffffffffffffffffffffffffffffffffffff16815260200160018201548152602001600282015481526020016003820160009054906101000a900460ff161515151581526020016003820160019054906101000a900460ff16151515158152602001600482015481525050815260200190600101906105da565b50505050905090565b60008060003373ffffffffffffffffffffffffffffffffffffffff1673ffffffffffffffffffffffffffffffffffffffff16815260200190815260200160002060010154905090565b6000809050336000803373ffffffffffffffffffffffffffffffffffffffff1673ffffffffffffffffffffffffffffffffffffffff16815260200190815260200160002060000160006101000a81548173ffffffffffffffffffffffffffffffffffffffff021916908373ffffffffffffffffffffffffffffffffffffffff160217905550346000803373ffffffffffffffffffffffffffffffffffffffff1673ffffffffffffffffffffffffffffffffffffffff16815260200190815260200160002060010181905550346000803373ffffffffffffffffffffffffffffffffffffffff1673ffffffffffffffffffffffffffffffffffffffff1681526020019081526020016000206002018190555060016000803373ffffffffffffffffffffffffffffffffffffffff1673ffffffffffffffffffffffffffffffffffffffff16815260200190815260200160002060030160006101000a81548160ff02191690831515021790555060008060003373ffffffffffffffffffffffffffffffffffffffff1673ffffffffffffffffffffffffffffffffffffffff16815260200190815260200160002060030160016101000a81548160ff021916908315150217905550806000803373ffffffffffffffffffffffffffffffffffffffff1673ffffffffffffffffffffffffffffffffffffffff1681526020019081526020016000206004018190555034600260003373ffffffffffffffffffffffffffffffffffffffff1673ffffffffffffffffffffffffffffffffffffffff1681526020019081526020016000208190555060016040518060c001604052803373ffffffffffffffffffffffffffffffffffffffff168152602001348152602001348152602001600115158152602001600015158152602001838152509080600181540180825580915050906001820390600052602060002090600502016000909192909190915060008201518160000160006101000a81548173ffffffffffffffffffffffffffffffffffffffff021916908373ffffffffffffffffffffffffffffffffffffffff160217905550602082015181600101556040820151816002015560608201518160030160006101000a81548160ff02191690831515021790555060808201518160030160016101000a81548160ff02191690831515021790555060a08201518160040155505050808060010191505050565b60008060003373ffffffffffffffffffffffffffffffffffffffff1673ffffffffffffffffffffffffffffffffffffffff1681526020019081526020016000206001015490508115610c065760016000803373ffffffffffffffffffffffffffffffffffffffff1673ffffffffffffffffffffffffffffffffffffffff16815260200190815260200160002060030160016101000a81548160ff02191690831515021790555080600360003073ffffffffffffffffffffffffffffffffffffffff1673ffffffffffffffffffffffffffffffffffffffff168152602001908152602001600020600082825403925050819055506000803373ffffffffffffffffffffffffffffffffffffffff1673ffffffffffffffffffffffffffffffffffffffff16815260200190815260200160002060020154600260003373ffffffffffffffffffffffffffffffffffffffff1673ffffffffffffffffffffffffffffffffffffffff16815260200190815260200160002060008282540192505081905550610d3c565b60008060003373ffffffffffffffffffffffffffffffffffffffff1673ffffffffffffffffffffffffffffffffffffffff16815260200190815260200160002060030160016101000a81548160ff02191690831515021790555080600360003073ffffffffffffffffffffffffffffffffffffffff1673ffffffffffffffffffffffffffffffffffffffff168152602001908152602001600020600082825401925050819055506000803373ffffffffffffffffffffffffffffffffffffffff1673ffffffffffffffffffffffffffffffffffffffff16815260200190815260200160002060020154600260003373ffffffffffffffffffffffffffffffffffffffff1673ffffffffffffffffffffffffffffffffffffffff168152602001908152602001600020600082825403925050819055505b60008060003373ffffffffffffffffffffffffffffffffffffffff1673ffffffffffffffffffffffffffffffffffffffff16815260200190815260200160002060030160006101000a81548160ff0219169083151502179055506000803373ffffffffffffffffffffffffffffffffffffffff1673ffffffffffffffffffffffffffffffffffffffff168152602001908152602001600020600080820160006101000a81549073ffffffffffffffffffffffffffffffffffffffff0219169055600182016000905560028201600090556003820160006101000a81549060ff02191690556003820160016101000a81549060ff0219169055600482016000905550506001805480610e4957fe5b6001900381819060005260206000209060050201600080820160006101000a81549073ffffffffffffffffffffffffffffffffffffffff0219169055600182016000905560028201600090556003820160006101000a81549060ff02191690556003820160016101000a81549060ff02191690556004820160009055505090555050565b6000600360003073ffffffffffffffffffffffffffffffffffffffff1673ffffffffffffffffffffffffffffffffffffffff16815260200190815260200160002054905090565b600081359050610f2381611191565b92915050565b600060208284031215610f3b57600080fd5b6000610f4984828501610f14565b91505092915050565b6000610f5e8383611004565b60c08301905092915050565b610f7381611149565b82525050565b610f8281611149565b82525050565b6000610f9382611120565b610f9d8185611138565b9350610fa883611110565b8060005b83811015610fd9578151610fc08882610f52565b9750610fcb8361112b565b925050600181019050610fac565b5085935050505092915050565b610fef8161115b565b82525050565b610ffe8161115b565b82525050565b60c08201600082015161101a6000850182610f6a565b50602082015161102d602085018261107f565b506040820151611040604085018261107f565b5060608201516110536060850182610fe6565b5060808201516110666080850182610fe6565b5060a082015161107960a085018261107f565b50505050565b61108881611187565b82525050565b61109781611187565b82525050565b60006020820190506110b26000830184610f79565b92915050565b600060208201905081810360008301526110d28184610f88565b905092915050565b60006020820190506110ef6000830184610ff5565b92915050565b600060208201905061110a600083018461108e565b92915050565b6000819050602082019050919050565b600081519050919050565b6000602082019050919050565b600082825260208201905092915050565b600061115482611167565b9050919050565b60008115159050919050565b600073ffffffffffffffffffffffffffffffffffffffff82169050919050565b6000819050919050565b61119a8161115b565b81146111a557600080fd5b5056fea365627a7a723158207cc2717e5c568d0d90f15b7e39b26b099528eadfde0e6f2742c37b69375666f86c6578706572696d656e74616cf564736f6c63430005100040",
  "source": "// SPDX-License-Identifier: MIT\r\npragma solidity >=0.4.22 <0.9.0;\r\npragma experimental ABIEncoderV2;\r\n\r\ncontract CoinFlip {\r\n\r\n    \r\n    struct Player {\r\n        address playerAddress;\r\n        uint256 betAmount;\r\n        uint256 balance;\r\n        bool isActive;\r\n        bool hasWon;\r\n        // bool isWithdrawable;\r\n        uint id;\r\n    }\r\n    \r\n    mapping(address => Player) player;\r\n    Player[] betLog;\r\n    mapping(address => uint256) playerbalance;\r\n    mapping(address => uint256) contratcBalance;\r\n    \r\n    constructor() public {\r\n       \r\n        contratcBalance[address(this)] = 10000000000000000000;\r\n\r\n    }\r\n    \r\n    modifier betConditions {\r\n        // require(msg.value >= 0.001 ether, \"Insuffisant amount, please increase your bet!\");\r\n        //require(msg.value <= getContractBalance()/2, \"You can't bet more than half the contract's balance!\");\r\n        // require(player[msg.sender].isActive == false, \"A bet is already ongoing with this address.\");\r\n        _;\r\n    }\r\n    \r\n\r\n    function getBetStatus() public view returns(bool) {\r\n        return player[msg.sender].isActive;\r\n    }\r\n\r\n    function getPlayer() public view returns(address) {\r\n      \r\n        return msg.sender;\r\n    }\r\n    \r\n     \r\n    function getContratcBalance() public view returns(uint) {\r\n      \r\n        return contratcBalance[address(this)];\r\n    }\r\n    \r\n     \r\n    function getPlayerBalance() public view returns(uint) {\r\n        return playerbalance[msg.sender];\r\n    }\r\n    \r\n    function random() public view returns(uint) {\r\n        return block.timestamp % 2;\r\n    }\r\n    \r\n    function getCurrentBet() public view returns(uint) {\r\n        return player[msg.sender].betAmount;\r\n    }\r\n    \r\n     function getPlayerId() public view returns(uint) {\r\n        return player[msg.sender].id;\r\n    }\r\n    \r\n    function getActiveBets() public view returns(Player[] memory) {\r\n        return betLog;\r\n    }\r\n    \r\n    function setBet() public payable betConditions {\r\n        uint  _id = 0;\r\n        \r\n        // for (uint i = 0; i < betLog.length; i++)\r\n        // {\r\n        //     require(betLog[i].playerAddress != msg.sender, \"Already registered\");\r\n        // }\r\n       \r\n        player[msg.sender].playerAddress = msg.sender;\r\n        player[msg.sender].betAmount = msg.value;\r\n        player[msg.sender].balance = msg.value;\r\n        player[msg.sender].isActive = true;\r\n        player[msg.sender].hasWon = false;\r\n        player[msg.sender].id = _id;\r\n        playerbalance[msg.sender] = msg.value;\r\n        betLog.push(Player(msg.sender, msg.value, msg.value, true, false, _id));\r\n        _id++;\r\n        \r\n       \r\n    }\r\n   \r\n    //update tomorrow to have the flip function update struct values\r\n    //have another funcion which is then called that puts into play the effects\r\n    function flipCoin() public view returns(bool) {\r\n        \r\n        require(player[msg.sender].isActive == true);\r\n        // uint user_index = player[msg.sender].id;\r\n        bool betWin;\r\n        uint randomSeed = random();\r\n        if (randomSeed == 1) {\r\n            betWin = true;\r\n        }\r\n        else {\r\n            betWin = false;\r\n        }\r\n      \r\n        return(betWin);\r\n    }\r\n\r\n    function settleBet(bool randomSeed) public {\r\n\r\n        // bool randomSeed;\r\n       uint betAmount = player[msg.sender].betAmount;\r\n        if(randomSeed) {\r\n           player[msg.sender].hasWon = true;\r\n        //   player[msg.sender].balance = betAmount;\r\n           contratcBalance[address(this)] -= betAmount;\r\n           playerbalance[msg.sender] += player[msg.sender].balance;\r\n        }   \r\n        else {\r\n            player[msg.sender].hasWon = false;\r\n            // player[msg.sender].balance -= betAmount ;\r\n            contratcBalance[address(this)] += betAmount;\r\n            playerbalance[msg.sender] -= player[msg.sender].balance;\r\n            \r\n        }\r\n\r\n        player[msg.sender].isActive = false;\r\n        delete(player[msg.sender]);\r\n        betLog.pop();\r\n        \r\n    }\r\n\r\n    function withdraw() public payable {\r\n        require(playerbalance[msg.sender] != 0);\r\n\r\n        uint256 withdrawAmount = playerbalance[msg.sender] / 2;\r\n        player[msg.sender].balance = 0;\r\n        playerbalance[msg.sender] = 0;\r\n        contratcBalance[address(this)] -= withdrawAmount;\r\n        // address payable playerAddress = payable(msg.sender);\r\n        msg.sender.transfer(withdrawAmount);\r\n\r\n       \r\n\r\n\r\n    }\r\n}\r\n",
  "sourcePath": "C:/Users/evanm/OneDrive/Documents/EthereumProgramming/Solidity-201/CoinFlipDapp/BackEnd/contracts/CoinFlip.sol",
  "compiler": {
    "name": "solc",
    "version": "0.5.16+commit.9c3226ce.Emscripten.clang"
  },
  "schemaVersion": "3.3.4",
  "updatedAt": "2021-06-02T23:59:05.797Z",
  "devdoc": {
    "methods": {}
  },
  "userdoc": {
    "methods": {}
  }
}