{
  "contractName": "CoinFlip",
  "abi": [
    {
      "inputs": [],
      "stateMutability": "nonpayable",
      "type": "constructor"
    },
    {
      "anonymous": false,
      "inputs": [
        {
          "indexed": true,
          "internalType": "address",
          "name": "player",
          "type": "address"
        },
        {
          "indexed": false,
          "internalType": "bool",
          "name": "won",
          "type": "bool"
        },
        {
          "indexed": false,
          "internalType": "uint256",
          "name": "amountWon",
          "type": "uint256"
        }
      ],
      "name": "FlipResult",
      "type": "event"
    },
    {
      "anonymous": false,
      "inputs": [
        {
          "indexed": true,
          "internalType": "address",
          "name": "player",
          "type": "address"
        }
      ],
      "name": "LogNewProvableQuery",
      "type": "event"
    },
    {
      "anonymous": false,
      "inputs": [
        {
          "indexed": true,
          "internalType": "address",
          "name": "oldOwner",
          "type": "address"
        },
        {
          "indexed": true,
          "internalType": "address",
          "name": "newOwner",
          "type": "address"
        }
      ],
      "name": "OwnerSet",
      "type": "event"
    },
    {
      "anonymous": false,
      "inputs": [
        {
          "indexed": false,
          "internalType": "address",
          "name": "player",
          "type": "address"
        },
        {
          "indexed": false,
          "internalType": "uint256",
          "name": "newBalance",
          "type": "uint256"
        },
        {
          "indexed": false,
          "internalType": "uint256",
          "name": "oldBalance",
          "type": "uint256"
        }
      ],
      "name": "balanceUpdated",
      "type": "event"
    },
    {
      "anonymous": false,
      "inputs": [
        {
          "indexed": false,
          "internalType": "address",
          "name": "player_address",
          "type": "address"
        },
        {
          "indexed": false,
          "internalType": "uint256",
          "name": "amount",
          "type": "uint256"
        },
        {
          "indexed": false,
          "internalType": "uint256",
          "name": "betId",
          "type": "uint256"
        }
      ],
      "name": "betInitialized",
      "type": "event"
    },
    {
      "anonymous": false,
      "inputs": [
        {
          "indexed": false,
          "internalType": "address",
          "name": "playerAddress",
          "type": "address"
        },
        {
          "indexed": false,
          "internalType": "uint256",
          "name": "result",
          "type": "uint256"
        },
        {
          "indexed": false,
          "internalType": "uint256",
          "name": "betId",
          "type": "uint256"
        },
        {
          "indexed": false,
          "internalType": "bool",
          "name": "hasWon",
          "type": "bool"
        }
      ],
      "name": "coinFlipped",
      "type": "event"
    },
    {
      "anonymous": false,
      "inputs": [
        {
          "indexed": false,
          "internalType": "address",
          "name": "depositedBy",
          "type": "address"
        },
        {
          "indexed": false,
          "internalType": "uint256",
          "name": "amount",
          "type": "uint256"
        }
      ],
      "name": "depositMade",
      "type": "event"
    },
    {
      "anonymous": false,
      "inputs": [
        {
          "indexed": false,
          "internalType": "uint256",
          "name": "randomNumber",
          "type": "uint256"
        }
      ],
      "name": "generatedRandomNumber",
      "type": "event"
    },
    {
      "anonymous": false,
      "inputs": [
        {
          "indexed": false,
          "internalType": "address",
          "name": "withdrawedBy",
          "type": "address"
        },
        {
          "indexed": false,
          "internalType": "uint256",
          "name": "amount",
          "type": "uint256"
        }
      ],
      "name": "withdrawMade",
      "type": "event"
    },
    {
      "inputs": [],
      "name": "RandomResult",
      "outputs": [
        {
          "internalType": "uint256",
          "name": "",
          "type": "uint256"
        }
      ],
      "stateMutability": "view",
      "type": "function",
      "constant": true
    },
    {
      "inputs": [
        {
          "internalType": "address",
          "name": "newOwner",
          "type": "address"
        }
      ],
      "name": "changeOwner",
      "outputs": [],
      "stateMutability": "nonpayable",
      "type": "function"
    },
    {
      "inputs": [],
      "name": "getOwner",
      "outputs": [
        {
          "internalType": "address",
          "name": "",
          "type": "address"
        }
      ],
      "stateMutability": "view",
      "type": "function",
      "constant": true
    },
    {
      "inputs": [
        {
          "internalType": "uint256",
          "name": "",
          "type": "uint256"
        }
      ],
      "name": "playerOracleqQuerey",
      "outputs": [
        {
          "internalType": "bytes32",
          "name": "id",
          "type": "bytes32"
        },
        {
          "internalType": "address",
          "name": "playerAddress",
          "type": "address"
        }
      ],
      "stateMutability": "view",
      "type": "function",
      "constant": true
    },
    {
      "inputs": [
        {
          "internalType": "bytes32",
          "name": "requestId",
          "type": "bytes32"
        },
        {
          "internalType": "uint256",
          "name": "randomness",
          "type": "uint256"
        }
      ],
      "name": "rawFulfillRandomness",
      "outputs": [],
      "stateMutability": "nonpayable",
      "type": "function"
    },
    {
      "inputs": [],
      "name": "setBet",
      "outputs": [],
      "stateMutability": "payable",
      "type": "function",
      "payable": true
    },
    {
      "inputs": [],
      "name": "flipCoin",
      "outputs": [
        {
          "internalType": "bool",
          "name": "",
          "type": "bool"
        }
      ],
      "stateMutability": "nonpayable",
      "type": "function"
    },
    {
      "inputs": [
        {
          "internalType": "bool",
          "name": "randomSeed",
          "type": "bool"
        }
      ],
      "name": "settleBet",
      "outputs": [],
      "stateMutability": "payable",
      "type": "function",
      "payable": true
    },
    {
      "inputs": [],
      "name": "withdraw",
      "outputs": [],
      "stateMutability": "payable",
      "type": "function",
      "payable": true
    },
    {
      "inputs": [],
      "name": "deposit",
      "outputs": [],
      "stateMutability": "payable",
      "type": "function",
      "payable": true
    },
    {
      "inputs": [],
      "name": "getRandomNumber",
      "outputs": [
        {
          "internalType": "uint256",
          "name": "",
          "type": "uint256"
        }
      ],
      "stateMutability": "view",
      "type": "function",
      "constant": true
    },
    {
      "inputs": [],
      "name": "getBetStatus",
      "outputs": [
        {
          "internalType": "bool",
          "name": "",
          "type": "bool"
        }
      ],
      "stateMutability": "view",
      "type": "function",
      "constant": true
    },
    {
      "inputs": [],
      "name": "getQueryLog",
      "outputs": [
        {
          "components": [
            {
              "internalType": "bytes32",
              "name": "id",
              "type": "bytes32"
            },
            {
              "internalType": "address",
              "name": "playerAddress",
              "type": "address"
            }
          ],
          "internalType": "struct CoinFlip.OracleQuery[]",
          "name": "",
          "type": "tuple[]"
        }
      ],
      "stateMutability": "view",
      "type": "function",
      "constant": true
    },
    {
      "inputs": [],
      "name": "hasWon",
      "outputs": [
        {
          "internalType": "bool",
          "name": "",
          "type": "bool"
        }
      ],
      "stateMutability": "view",
      "type": "function",
      "constant": true
    },
    {
      "inputs": [],
      "name": "getPlayer",
      "outputs": [
        {
          "internalType": "address",
          "name": "",
          "type": "address"
        }
      ],
      "stateMutability": "view",
      "type": "function",
      "constant": true
    },
    {
      "inputs": [],
      "name": "getContratcBalance",
      "outputs": [
        {
          "internalType": "uint256",
          "name": "",
          "type": "uint256"
        }
      ],
      "stateMutability": "view",
      "type": "function",
      "constant": true
    },
    {
      "inputs": [],
      "name": "getPlayerBalance",
      "outputs": [
        {
          "internalType": "uint256",
          "name": "",
          "type": "uint256"
        }
      ],
      "stateMutability": "view",
      "type": "function",
      "constant": true
    },
    {
      "inputs": [],
      "name": "random",
      "outputs": [
        {
          "internalType": "uint256",
          "name": "",
          "type": "uint256"
        }
      ],
      "stateMutability": "view",
      "type": "function",
      "constant": true
    },
    {
      "inputs": [],
      "name": "getCurrentBet",
      "outputs": [
        {
          "internalType": "uint256",
          "name": "",
          "type": "uint256"
        }
      ],
      "stateMutability": "view",
      "type": "function",
      "constant": true
    },
    {
      "inputs": [],
      "name": "getActiveBets",
      "outputs": [
        {
          "components": [
            {
              "internalType": "address",
              "name": "playerAddress",
              "type": "address"
            },
            {
              "internalType": "uint256",
              "name": "betAmount",
              "type": "uint256"
            },
            {
              "internalType": "bool",
              "name": "hasWon",
              "type": "bool"
            },
            {
              "internalType": "uint256",
              "name": "id",
              "type": "uint256"
            }
          ],
          "internalType": "struct CoinFlip.Player[]",
          "name": "",
          "type": "tuple[]"
        }
      ],
      "stateMutability": "view",
      "type": "function",
      "constant": true
    }
  ],
  "bytecode": "0x60c06040526000600a5534801561001557600080fd5b5073dd3782915140c8f3b190b5d67eac6dc5760c46e973a36085f69e2889c224210f603d836748e7dc00888173ffffffffffffffffffffffffffffffffffffffff1660a08173ffffffffffffffffffffffffffffffffffffffff1660601b815250508073ffffffffffffffffffffffffffffffffffffffff1660808173ffffffffffffffffffffffffffffffffffffffff1660601b81525050505033600160006101000a81548173ffffffffffffffffffffffffffffffffffffffff021916908373ffffffffffffffffffffffffffffffffffffffff160217905550600160009054906101000a900473ffffffffffffffffffffffffffffffffffffffff1673ffffffffffffffffffffffffffffffffffffffff16600073ffffffffffffffffffffffffffffffffffffffff167f342827c97908e5e2f71151c08502a66d44b6f758e3ac2f1de95f02eb95f0a73560405160405180910390a36000600860003073ffffffffffffffffffffffffffffffffffffffff1673ffffffffffffffffffffffffffffffffffffffff168152602001908152602001600020819055507f6c3699283bda56ad74f6b855546325b68d482e983852a7a82979cc4807b641f460001b600c8190555067016345785d8a0000600d8190555060805160601c60a05160601c61264a61021f60003980610965528061195a52508061181c528061191e525061264a6000f3fe60806040526004361061011f5760003560e01c806394985ddd116100a0578063c227609011610064578063c227609014610363578063d0e30db01461037f578063d9b37faf14610389578063dbdff2c1146103b4578063e271af17146103df5761011f565b806394985ddd146102b1578063a6f9dae1146102da578063ada7302014610303578063b78974851461032e578063b84aa065146103595761011f565b80633ccfd60b116100e75780633ccfd60b146101fb57806347fd79f1146102055780635ec01e4d14610230578063799ae2231461025b578063893d20e8146102865761011f565b80630b01517c146101245780631fa859e81461014f57806320a9158d1461017a5780633308f42d146101a55780633a506992146101d0575b600080fd5b34801561013057600080fd5b5061013961041d565b60405161014691906123c9565b60405180910390f35b34801561015b57600080fd5b50610164610464565b6040516101719190612245565b60405180910390f35b34801561018657600080fd5b5061018f6104b8565b60405161019c9190612245565b60405180910390f35b3480156101b157600080fd5b506101ba61050f565b6040516101c791906120cc565b60405180910390f35b3480156101dc57600080fd5b506101e5610517565b6040516101f29190612201565b60405180910390f35b6102036105d6565b005b34801561021157600080fd5b5061021a610762565b60405161022791906123c9565b60405180910390f35b34801561023c57600080fd5b50610245610768565b60405161025291906123c9565b60405180910390f35b34801561026757600080fd5b5061027061077a565b60405161027d9190612245565b60405180910390f35b34801561029257600080fd5b5061029b610939565b6040516102a891906120cc565b60405180910390f35b3480156102bd57600080fd5b506102d860048036038101906102d39190611c3c565b610963565b005b3480156102e657600080fd5b5061030160048036038101906102fc9190611bc1565b6109ff565b005b34801561030f57600080fd5b50610318610b4f565b6040516103259190612223565b60405180910390f35b34801561033a57600080fd5b50610343610c33565b60405161035091906123c9565b60405180910390f35b610361610c7d565b005b61037d60048036038101906103789190611bea565b61107c565b005b610387611466565b005b34801561039557600080fd5b5061039e61153b565b6040516103ab91906123c9565b60405180910390f35b3480156103c057600080fd5b506103c9611582565b6040516103d691906123c9565b60405180910390f35b3480156103eb57600080fd5b5061040660048036038101906104019190611c78565b61158c565b6040516104149291906122b2565b60405180910390f35b6000600860003073ffffffffffffffffffffffffffffffffffffffff1673ffffffffffffffffffffffffffffffffffffffff16815260200190815260200160002054905090565b6000600460003373ffffffffffffffffffffffffffffffffffffffff1673ffffffffffffffffffffffffffffffffffffffff16815260200190815260200160002060009054906101000a900460ff16905090565b6000600660003373ffffffffffffffffffffffffffffffffffffffff1673ffffffffffffffffffffffffffffffffffffffff16815260200190815260200160002060020160009054906101000a900460ff16905090565b600033905090565b6060600f805480602002602001604051908101604052809291908181526020016000905b828210156105cd5783829060005260206000209060020201604051806040016040529081600082015481526020016001820160009054906101000a900473ffffffffffffffffffffffffffffffffffffffff1673ffffffffffffffffffffffffffffffffffffffff1673ffffffffffffffffffffffffffffffffffffffff16815250508152602001906001019061053b565b50505050905090565b3373ffffffffffffffffffffffffffffffffffffffff166108fc600860003073ffffffffffffffffffffffffffffffffffffffff1673ffffffffffffffffffffffffffffffffffffffff168152602001908152602001600020549081150290604051600060405180830381858888f1935050505015801561065b573d6000803e3d6000fd5b50600860003073ffffffffffffffffffffffffffffffffffffffff1673ffffffffffffffffffffffffffffffffffffffff16815260200190815260200160002054600860003073ffffffffffffffffffffffffffffffffffffffff1673ffffffffffffffffffffffffffffffffffffffff168152602001908152602001600020600082825403925050819055507f45a5602c79d2f9db9cdf3d61199b5f0176590cbc0fdb04e0734f97a000b9796733600860003073ffffffffffffffffffffffffffffffffffffffff1673ffffffffffffffffffffffffffffffffffffffff168152602001908152602001600020546040516107589291906120e7565b60405180910390a1565b60095481565b60006002428161077457fe5b06905090565b60008060056000600660003373ffffffffffffffffffffffffffffffffffffffff1673ffffffffffffffffffffffffffffffffffffffff16815260200190815260200160002060030154815260200190815260200160002060010160009054906101000a900473ffffffffffffffffffffffffffffffffffffffff169050600060011515600660008473ffffffffffffffffffffffffffffffffffffffff1673ffffffffffffffffffffffffffffffffffffffff16815260200190815260200160002060020160009054906101000a900460ff161515141561085f5760019050610864565b600090505b7f408a54741eea17c5431cb434a9a3238f367c922c516a6338caea36fdd73321c433600954600660003373ffffffffffffffffffffffffffffffffffffffff1673ffffffffffffffffffffffffffffffffffffffff16815260200190815260200160002060030154600460008773ffffffffffffffffffffffffffffffffffffffff1673ffffffffffffffffffffffffffffffffffffffff16815260200190815260200160002060009054906101000a900460ff166040516109299493929190612147565b60405180910390a1809250505090565b6000600160009054906101000a900473ffffffffffffffffffffffffffffffffffffffff16905090565b7f000000000000000000000000000000000000000000000000000000000000000073ffffffffffffffffffffffffffffffffffffffff163373ffffffffffffffffffffffffffffffffffffffff16146109f1576040517f08c379a00000000000000000000000000000000000000000000000000000000081526004016109e8906123a9565b60405180910390fd5b6109fb82826115d0565b5050565b600160009054906101000a900473ffffffffffffffffffffffffffffffffffffffff1673ffffffffffffffffffffffffffffffffffffffff163373ffffffffffffffffffffffffffffffffffffffff1614610a8f576040517f08c379a0000000000000000000000000000000000000000000000000000000008152600401610a8690612349565b60405180910390fd5b8073ffffffffffffffffffffffffffffffffffffffff16600160009054906101000a900473ffffffffffffffffffffffffffffffffffffffff1673ffffffffffffffffffffffffffffffffffffffff167f342827c97908e5e2f71151c08502a66d44b6f758e3ac2f1de95f02eb95f0a73560405160405180910390a380600160006101000a81548173ffffffffffffffffffffffffffffffffffffffff021916908373ffffffffffffffffffffffffffffffffffffffff16021790555050565b6060600e805480602002602001604051908101604052809291908181526020016000905b82821015610c2a57838290600052602060002090600402016040518060800160405290816000820160009054906101000a900473ffffffffffffffffffffffffffffffffffffffff1673ffffffffffffffffffffffffffffffffffffffff1673ffffffffffffffffffffffffffffffffffffffff168152602001600182015481526020016002820160009054906101000a900460ff1615151515815260200160038201548152505081526020019060010190610b73565b50505050905090565b6000600660003373ffffffffffffffffffffffffffffffffffffffff1673ffffffffffffffffffffffffffffffffffffffff16815260200190815260200160002060010154905090565b33600660003373ffffffffffffffffffffffffffffffffffffffff1673ffffffffffffffffffffffffffffffffffffffff16815260200190815260200160002060000160006101000a81548173ffffffffffffffffffffffffffffffffffffffff021916908373ffffffffffffffffffffffffffffffffffffffff16021790555034600660003373ffffffffffffffffffffffffffffffffffffffff1673ffffffffffffffffffffffffffffffffffffffff168152602001908152602001600020600101819055506000600660003373ffffffffffffffffffffffffffffffffffffffff1673ffffffffffffffffffffffffffffffffffffffff16815260200190815260200160002060020160006101000a81548160ff021916908315150217905550600a54600660003373ffffffffffffffffffffffffffffffffffffffff1673ffffffffffffffffffffffffffffffffffffffff16815260200190815260200160002060030181905550600e60405180608001604052803373ffffffffffffffffffffffffffffffffffffffff168152602001348152602001600015158152602001600a54815250908060018154018082558091505060019003906000526020600020906004020160009091909190915060008201518160000160006101000a81548173ffffffffffffffffffffffffffffffffffffffff021916908373ffffffffffffffffffffffffffffffffffffffff1602179055506020820151816001015560408201518160020160006101000a81548160ff0219169083151502179055506060820151816003015550506001600360003373ffffffffffffffffffffffffffffffffffffffff1673ffffffffffffffffffffffffffffffffffffffff16815260200190815260200160002060006101000a81548160ff021916908315150217905550600660003373ffffffffffffffffffffffffffffffffffffffff1673ffffffffffffffffffffffffffffffffffffffff16815260200190815260200160002060010154600860003073ffffffffffffffffffffffffffffffffffffffff1673ffffffffffffffffffffffffffffffffffffffff16815260200190815260200160002060008282540192505081905550600a60008154809291906001019190505550610ffa3342604051602001610fdc929190612074565b6040516020818303038152906040528051906020012060001c611815565b507fac9d43fa410f8a3a6ed7172f9b2457ef415c56d30b4aaabf64a6a8e632772b5733600660003373ffffffffffffffffffffffffffffffffffffffff1673ffffffffffffffffffffffffffffffffffffffff16815260200190815260200160002060010154600a5460405161107293929190612110565b60405180910390a1565b6000600760003373ffffffffffffffffffffffffffffffffffffffff1673ffffffffffffffffffffffffffffffffffffffff1681526020019081526020016000205490506000600860003073ffffffffffffffffffffffffffffffffffffffff1673ffffffffffffffffffffffffffffffffffffffff168152602001908152602001600020549050600060056000600660003373ffffffffffffffffffffffffffffffffffffffff1673ffffffffffffffffffffffffffffffffffffffff16815260200190815260200160002060030154815260200190815260200160002060010160009054906101000a900473ffffffffffffffffffffffffffffffffffffffff1690506000600660008373ffffffffffffffffffffffffffffffffffffffff1673ffffffffffffffffffffffffffffffffffffffff16815260200190815260200160002060010154905084156112c15780600202600860003073ffffffffffffffffffffffffffffffffffffffff1673ffffffffffffffffffffffffffffffffffffffff168152602001908152602001600020600082825403925050819055503373ffffffffffffffffffffffffffffffffffffffff166108fc826002029081150290604051600060405180830381858888f19350505050158015611267573d6000803e3d6000fd5b503373ffffffffffffffffffffffffffffffffffffffff167f1f2ff94143ec2e58ace01e22de3975718247435e2d23d05b66eb402230d8281e6001600284026040516112b4929190612289565b60405180910390a2611313565b3373ffffffffffffffffffffffffffffffffffffffff167f1f2ff94143ec2e58ace01e22de3975718247435e2d23d05b66eb402230d8281e60008060405161130a929190612260565b60405180910390a25b6000600460003373ffffffffffffffffffffffffffffffffffffffff1673ffffffffffffffffffffffffffffffffffffffff16815260200190815260200160002060006101000a81548160ff0219169083151502179055507f92133653a2c523cb4f9d23d7f48803ba3f3cc68ff25f728d0fe190d067598bee33600760003373ffffffffffffffffffffffffffffffffffffffff1673ffffffffffffffffffffffffffffffffffffffff16815260200190815260200160002054866040516113dd93929190612110565b60405180910390a17f92133653a2c523cb4f9d23d7f48803ba3f3cc68ff25f728d0fe190d067598bee30600860003073ffffffffffffffffffffffffffffffffffffffff1673ffffffffffffffffffffffffffffffffffffffff1681526020019081526020016000205485604051611457939291906121ca565b60405180910390a15050505050565b34600760003373ffffffffffffffffffffffffffffffffffffffff1673ffffffffffffffffffffffffffffffffffffffff1681526020019081526020016000206000828254019250508190555034600860003073ffffffffffffffffffffffffffffffffffffffff1673ffffffffffffffffffffffffffffffffffffffff168152602001908152602001600020600082825401925050819055507f14558f60a55f03caac2b3dabdda0b51b20b0e22ce09a2c28cd1dc18e873578e833346040516115319291906120e7565b60405180910390a1565b6000600860003073ffffffffffffffffffffffffffffffffffffffff1673ffffffffffffffffffffffffffffffffffffffff16815260200190815260200160002054905090565b6000600954905090565b60056020528060005260406000206000915090508060000154908060010160009054906101000a900473ffffffffffffffffffffffffffffffffffffffff16905082565b6000600360003373ffffffffffffffffffffffffffffffffffffffff1673ffffffffffffffffffffffffffffffffffffffff16815260200190815260200160002060006101000a81548160ff02191690831515021790555081600260003373ffffffffffffffffffffffffffffffffffffffff1673ffffffffffffffffffffffffffffffffffffffff168152602001908152602001600020819055503360056000600660003373ffffffffffffffffffffffffffffffffffffffff1673ffffffffffffffffffffffffffffffffffffffff16815260200190815260200160002060030154815260200190815260200160002060010160006101000a81548173ffffffffffffffffffffffffffffffffffffffff021916908373ffffffffffffffffffffffffffffffffffffffff1602179055508160056000600660003373ffffffffffffffffffffffffffffffffffffffff1673ffffffffffffffffffffffffffffffffffffffff168152602001908152602001600020600301548152602001908152602001600020600001819055506002818161176a57fe5b06600981905550600160095414156117d8576001600660003373ffffffffffffffffffffffffffffffffffffffff1673ffffffffffffffffffffffffffffffffffffffff16815260200190815260200160002060020160006101000a81548160ff0219169083151502179055505b7fc13d60fe9dffdb6908d2d446cd18134373a51db0738ee04f296eeb9128121cbc60095460405161180991906123c9565b60405180910390a15050565b6000600d547f000000000000000000000000000000000000000000000000000000000000000073ffffffffffffffffffffffffffffffffffffffff166370a08231306040518263ffffffff1660e01b815260040161187391906120cc565b60206040518083038186803b15801561188b57600080fd5b505afa15801561189f573d6000803e3d6000fd5b505050506040513d601f19601f820116820180604052508101906118c39190611ca1565b1015611904576040517f08c379a00000000000000000000000000000000000000000000000000000000081526004016118fb90612389565b60405180910390fd5b611913600c54600d548461191a565b9050919050565b60007f000000000000000000000000000000000000000000000000000000000000000073ffffffffffffffffffffffffffffffffffffffff16634000aea07f000000000000000000000000000000000000000000000000000000000000000085878660405160200161198d9291906122db565b6040516020818303038152906040526040518463ffffffff1660e01b81526004016119ba9392919061218c565b602060405180830381600087803b1580156119d457600080fd5b505af11580156119e8573d6000803e3d6000fd5b505050506040513d601f19601f82011682018060405250810190611a0c9190611c13565b506000611a2d8584306000808a815260200190815260200160002054611a7f565b9050611a55600160008088815260200190815260200160002054611abb90919063ffffffff16565b60008087815260200190815260200160002081905550611a758582611b10565b9150509392505050565b600084848484604051602001611a989493929190612304565b6040516020818303038152906040528051906020012060001c9050949350505050565b600080828401905083811015611b06576040517f08c379a0000000000000000000000000000000000000000000000000000000008152600401611afd90612369565b60405180910390fd5b8091505092915050565b60008282604051602001611b259291906120a0565b60405160208183030381529060405280519060200120905092915050565b600081359050611b52816125b8565b92915050565b600081359050611b67816125cf565b92915050565b600081519050611b7c816125cf565b92915050565b600081359050611b91816125e6565b92915050565b600081359050611ba6816125fd565b92915050565b600081519050611bbb816125fd565b92915050565b600060208284031215611bd357600080fd5b6000611be184828501611b43565b91505092915050565b600060208284031215611bfc57600080fd5b6000611c0a84828501611b58565b91505092915050565b600060208284031215611c2557600080fd5b6000611c3384828501611b6d565b91505092915050565b60008060408385031215611c4f57600080fd5b6000611c5d85828601611b82565b9250506020611c6e85828601611b97565b9150509250929050565b600060208284031215611c8a57600080fd5b6000611c9884828501611b97565b91505092915050565b600060208284031215611cb357600080fd5b6000611cc184828501611bac565b91505092915050565b6000611cd68383611fbb565b60408301905092915050565b6000611cee8383611fea565b60808301905092915050565b611d03816124e7565b82525050565b611d1a611d1582612495565b612562565b82525050565b611d2981612483565b82525050565b611d3881612483565b82525050565b6000611d4982612404565b611d53818561243f565b9350611d5e836123e4565b8060005b83811015611d8f578151611d768882611cca565b9750611d8183612425565b925050600181019050611d62565b5085935050505092915050565b6000611da78261240f565b611db18185612450565b9350611dbc836123f4565b8060005b83811015611ded578151611dd48882611ce2565b9750611ddf83612432565b925050600181019050611dc0565b5085935050505092915050565b611e03816124a7565b82525050565b611e12816124a7565b82525050565b611e21816124b3565b82525050565b611e30816124b3565b82525050565b611e47611e42826124b3565b612574565b82525050565b6000611e588261241a565b611e628185612461565b9350611e7281856020860161252f565b611e7b8161259a565b840191505092915050565b611e8f816124f9565b82525050565b6000611ea2601383612472565b91507f43616c6c6572206973206e6f74206f776e6572000000000000000000000000006000830152602082019050919050565b6000611ee2601b83612472565b91507f536166654d6174683a206164646974696f6e206f766572666c6f7700000000006000830152602082019050919050565b6000611f22602b83612472565b91507f4e6f7420656e6f756768204c494e4b202d2066696c6c20636f6e74726163742060008301527f77697468206661756365740000000000000000000000000000000000000000006020830152604082019050919050565b6000611f88601f83612472565b91507f4f6e6c7920565246436f6f7264696e61746f722063616e2066756c66696c6c006000830152602082019050919050565b604082016000820151611fd16000850182611e18565b506020820151611fe46020850182611d20565b50505050565b6080820160008201516120006000850182611d20565b506020820151612013602085018261203f565b5060408201516120266040850182611dfa565b506060820151612039606085018261203f565b50505050565b612048816124dd565b82525050565b612057816124dd565b82525050565b61206e612069826124dd565b612590565b82525050565b60006120808285611d09565b601482019150612090828461205d565b6020820191508190509392505050565b60006120ac8285611e36565b6020820191506120bc828461205d565b6020820191508190509392505050565b60006020820190506120e16000830184611d2f565b92915050565b60006040820190506120fc6000830185611cfa565b612109602083018461204e565b9392505050565b60006060820190506121256000830186611cfa565b612132602083018561204e565b61213f604083018461204e565b949350505050565b600060808201905061215c6000830187611cfa565b612169602083018661204e565b612176604083018561204e565b6121836060830184611e09565b95945050505050565b60006060820190506121a16000830186611d2f565b6121ae602083018561204e565b81810360408301526121c08184611e4d565b9050949350505050565b60006060820190506121df6000830186611d2f565b6121ec602083018561204e565b6121f9604083018461204e565b949350505050565b6000602082019050818103600083015261221b8184611d3e565b905092915050565b6000602082019050818103600083015261223d8184611d9c565b905092915050565b600060208201905061225a6000830184611e09565b92915050565b60006040820190506122756000830185611e09565b6122826020830184611e86565b9392505050565b600060408201905061229e6000830185611e09565b6122ab602083018461204e565b9392505050565b60006040820190506122c76000830185611e27565b6122d46020830184611d2f565b9392505050565b60006040820190506122f06000830185611e27565b6122fd602083018461204e565b9392505050565b60006080820190506123196000830187611e27565b612326602083018661204e565b6123336040830185611d2f565b612340606083018461204e565b95945050505050565b6000602082019050818103600083015261236281611e95565b9050919050565b6000602082019050818103600083015261238281611ed5565b9050919050565b600060208201905081810360008301526123a281611f15565b9050919050565b600060208201905081810360008301526123c281611f7b565b9050919050565b60006020820190506123de600083018461204e565b92915050565b6000819050602082019050919050565b6000819050602082019050919050565b600081519050919050565b600081519050919050565b600081519050919050565b6000602082019050919050565b6000602082019050919050565b600082825260208201905092915050565b600082825260208201905092915050565b600082825260208201905092915050565b600082825260208201905092915050565b600061248e826124bd565b9050919050565b60006124a0826124bd565b9050919050565b60008115159050919050565b6000819050919050565b600073ffffffffffffffffffffffffffffffffffffffff82169050919050565b6000819050919050565b60006124f28261250b565b9050919050565b6000612504826124dd565b9050919050565b60006125168261251d565b9050919050565b6000612528826124bd565b9050919050565b60005b8381101561254d578082015181840152602081019050612532565b8381111561255c576000848401525b50505050565b600061256d8261257e565b9050919050565b6000819050919050565b6000612589826125ab565b9050919050565b6000819050919050565b6000601f19601f8301169050919050565b60008160601b9050919050565b6125c181612483565b81146125cc57600080fd5b50565b6125d8816124a7565b81146125e357600080fd5b50565b6125ef816124b3565b81146125fa57600080fd5b50565b612606816124dd565b811461261157600080fd5b5056fea26469706673582212209fbbbe1e8b7ade5e338abb2e37441323e5ea42f35dce4b0cd3fe07da1a6d668064736f6c63430006060033",
  "immutableReferences": {
    "1076": [
      {
        "length": 32,
        "start": 6172
      },
      {
        "length": 32,
        "start": 6430
      }
    ],
    "1078": [
      {
        "length": 32,
        "start": 2405
      },
      {
        "length": 32,
        "start": 6490
      }
    ]
  },
  "source": "\r\n\r\n// SPDX-License-Identifier: MIT\r\npragma solidity >=0.4.22 <0.9.0;\r\npragma experimental ABIEncoderV2;\r\n\r\n\r\nimport \"./VRFConsumerBase.sol\";\r\nimport \"./OnlyOwner.sol\";\r\n\r\n\r\n//make deosit contract function\r\n//change withdrawal function to withdraw all and set to onlyOwner\r\n//change the setBet function to payable and depsoit in amount\r\n//when bet is set update contract balance to inrease by bet amount\r\n//set flip function to payable so we can do a transfer. if the\r\n//bet is a win subtratc 2 * betAmount from conract balance\r\n//and transfer 2 * betAmount to player address\r\ncontract CoinFlip is VRFConsumerBase, Owner{\r\n\r\n\r\n    // *************************************************************************************************\r\n    // *            -------------------CONTRACT EVENTS--------------------------                       *                                                                            *\r\n    // *************************************************************************************************\r\n\r\n    event depositMade(address depositedBy, uint amount);\r\n    event withdrawMade(address withdrawedBy, uint amount);\r\n    event betInitialized(address player_address, uint amount, uint betId);\r\n    event coinFlipped(address playerAddress, uint result, uint betId, bool hasWon);\r\n    event FlipResult(address indexed player, bool won, uint amountWon);\r\n    event LogNewProvableQuery(address indexed player);\r\n    event balanceUpdated(address player, uint newBalance, uint oldBalance);\r\n    event  generatedRandomNumber(uint256 randomNumber);\r\n\r\n\r\n    // *************************************************************************************************\r\n    // *            -------------------DATA STRUCTURES--------------------------                       *                                                                            *\r\n    // *************************************************************************************************\r\n\r\n    struct Player {\r\n        address playerAddress;\r\n        uint256 betAmount;\r\n        bool hasWon;\r\n        uint id;\r\n    }\r\n\r\n    struct OracleQuery {\r\n        bytes32 id;\r\n        address playerAddress;\r\n  }\r\n    \r\n    mapping(address => bytes32) oracleQuereyID;\r\n    mapping(address => bool) waitingForOracle;          //stores result of the oracle RN fetch request for a player true/false\r\n    mapping(address => bool) isActive;                    //stores the result of the oracles random number for a player\r\n    mapping(uint => OracleQuery) public playerOracleqQuerey;     //oracle querey\r\n    mapping(address => Player) player;                  //player struct has attributes such as address, betAmount, player ID etc\r\n    mapping(address => uint256) playerbalance;          //player balance mapping\r\n    mapping(address => uint256) contratcBalance;        //contratc balance mappping\r\n\r\n\r\n    //initial vars set id globally increment each time a player is made\r\n    //NUM random bytes is how much bytes we request from the oracle 1 = range(0, 256) bytes\r\n    //initilaise Player array which will store each instance of a player bet for lookups\r\n    uint256 public RandomResult;\r\n    uint  private _id = 0;\r\n    uint private contractBalance;\r\n    bytes32 internal keyHash;\r\n    uint256 internal fee;\r\n    Player[] betLog;\r\n    OracleQuery[] queryLog;\r\n    \r\n\r\n    // *************************************************************************************************\r\n    // *            -------------------CONSTRUCTORS & MODIFIERS--------------------------                       *                                                                            *\r\n    // *************************************************************************************************\r\n\r\n    //init contratc balance to 0\r\n    constructor() VRFConsumerBase( 0xdD3782915140c8f3b190B5D67eAc6dc5760C46E9, 0xa36085F69e2889c224210F603D836748e7dC0088) public {\r\n        \r\n       \r\n        contratcBalance[address(this)] = 0;\r\n        {\r\n        keyHash = 0x6c3699283bda56ad74f6b855546325b68d482e983852a7a82979cc4807b641f4;\r\n        fee = 0.1 * 10 ** 18; // 0.1 LINK (Varies by network)\r\n        }\r\n    \r\n\r\n    }\r\n    \r\n    // modifier for the bet Conditions function. cannot create a bet smaller than 0.01 eth\r\n    // the betAmiunt must be less thatn half of the contratc bal or else they payout is not possible\r\n    // no player can have more than one bet ongoing handle this with an isActive attribute\r\n    modifier betConditions {\r\n        // require(msg.value >= 0.001 ether, \"Insuffisant amount, please increase your bet!\");\r\n        // // require(msg.value <= contratcBalance[address(this)] / 2, \"You can't bet more than half the contracts bal\");\r\n        // require(isActive[msg.sender] = false, \"Cannot have more than one active bet at a time\");\r\n        _;\r\n    }\r\n    \r\n\r\n    // *************************************************************************************************\r\n    // *            -------------------COINFLIP ALGORITHM--------------------------                    *                                                                            *\r\n    // *************************************************************************************************\r\n\r\n    \r\n    \r\n    function setBet() public payable  {\r\n\r\n        //initalize a player\r\n        player[msg.sender].playerAddress = msg.sender;\r\n        player[msg.sender].betAmount = msg.value;\r\n        player[msg.sender].hasWon = false;\r\n        player[msg.sender].id = _id;\r\n\r\n        //push the player to the betLog\r\n        betLog.push(Player(msg.sender, msg.value, false, _id));\r\n\r\n        //set waiting for oracle result to true\r\n        //and update balances / id accordingly\r\n    \twaitingForOracle[msg.sender] = true;\r\n        contratcBalance[address(this)] += player[msg.sender].betAmount;\r\n        // contratcBalance[address(this)] += player[msg.sender].betAmount;\r\n        _id++;\r\n\r\n        //call the update function which is responsible for handlu=ing the\r\n        //oracle querey request to get a external trully random number\r\n        getRandomNumber(uint256(keccak256(abi.encodePacked(msg.sender, block.timestamp))));\r\n        \r\n        emit betInitialized(msg.sender, player[msg.sender].betAmount, _id);\r\n    }\r\n\r\n\r\n     // *************************************************************************************************\r\n    // *       -------------------CHAINLINK ORACLE FUNCS FOR RANDOMNESS--------------------------       *                                                                            *\r\n    // **************************************************************************************************\r\n\r\n   \r\n    function getRandomNumber(uint256 userProvidedSeed) private returns (bytes32 requestId) {\r\n        require(LINK.balanceOf(address(this)) >= fee, \"Not enough LINK - fill contract with faucet\");\r\n        return requestRandomness(keyHash, fee, userProvidedSeed);\r\n    }\r\n\r\n    /**\r\n     * Callback function used by VRF Coordinator\r\n     */\r\n    function fulfillRandomness(bytes32 requestId, uint256 randomness) internal override {\r\n        \r\n        waitingForOracle[msg.sender] = false;\r\n        oracleQuereyID[msg.sender] = requestId;\r\n        playerOracleqQuerey[player[msg.sender].id].playerAddress = msg.sender;\r\n        playerOracleqQuerey[player[msg.sender].id].id = requestId;\r\n        RandomResult = randomness % 2;\r\n\r\n        if (RandomResult == 1) {\r\n            player[msg.sender].hasWon = true;\r\n        }\r\n        \r\n       \r\n       \r\n        emit  generatedRandomNumber(RandomResult);\r\n    }\r\n    \r\n    //update tomorrow to have the flip function update struct values\r\n    //have another funcion which is then called that puts into play the effects\r\n    function flipCoin() public returns(bool) {\r\n        \r\n        //cannot flip the coin if the player is still waiting for the \r\n        //oracles result handle that here\r\n        address playerAddress = playerOracleqQuerey[player[msg.sender].id].playerAddress;\r\n        // require(player[playerAddress].isActive == true);\r\n        // require(waitingForOracle[playerAddress] == false);\r\n        bool betWin;\r\n        \r\n        //finalise flip\r\n        if (player[playerAddress].hasWon == true) {\r\n            betWin = true;\r\n        }\r\n        else {\r\n            betWin = false;\r\n        }\r\n\r\n        emit coinFlipped(msg.sender, RandomResult, player[msg.sender].id, isActive[playerAddress]);\r\n      \r\n        return(betWin);\r\n    }\r\n\r\n    \r\n    //this function takes the result from the flipCoin function and settles the bet\r\n    //decreases player balance if coinflip is 0 and increases player bal in the\r\n    //coinFlip result is 1\r\n    function settleBet(bool randomSeed) public payable {\r\n\r\n        //store old player balance for events\r\n        uint256 oldPlayerBalance = playerbalance[msg.sender];\r\n        uint256 oldContractBalance = contratcBalance[address(this)];\r\n\r\n        // bytes32 quereyId = qid[msg.sender];\r\n        // address playerAddress = playerOracleqQuerey[quereyId].playerAddress;\r\n        address playerAddress = playerOracleqQuerey[player[msg.sender].id].playerAddress;\r\n        uint betAmount = player[playerAddress].betAmount;\r\n\r\n        //update player balances respectively depending\r\n        //on the coinflip result\r\n        if(randomSeed) {\r\n            \r\n        // contratcBalance[address(this)] -= 2 * betAmount;\r\n           contratcBalance[address(this)] -= 2 * betAmount;\r\n           msg.sender.transfer(2 * betAmount);\r\n           emit FlipResult (msg.sender, true, betAmount * 2);\r\n        }   \r\n        else {\r\n            \r\n            emit FlipResult (msg.sender, false, 0);\r\n        }\r\n\r\n        //delete player result for fresh new bet\r\n        //delete player oracle querey for fresh bet als\r\n        isActive[msg.sender] = false;\r\n\r\n        emit balanceUpdated(msg.sender, playerbalance[msg.sender], oldPlayerBalance);\r\n        emit balanceUpdated(address(this), contratcBalance[address(this)], oldContractBalance);\r\n        \r\n    }\r\n\r\n\r\n    // *************************************************************************************************\r\n    // *            -------------------DEPOSIT/WITHDRAWABLE FUNCTIONS--------------------------        *                                                                            *\r\n    // *************************************************************************************************\r\n\r\n    function withdraw() public payable  {\r\n\r\n        // require(playerbalance[msg.sender] != 0);\r\n        // msg.value = 1 + amount * 10 ** 18;\r\n        \r\n        //playerbalance[msg.sender] -= amount;\r\n       \r\n        msg.sender.transfer(contratcBalance[address(this)]);\r\n        contratcBalance[address(this)]-= contratcBalance[address(this)];\r\n\r\n        emit withdrawMade(msg.sender, contratcBalance[address(this)]);\r\n\r\n    }\r\n\r\n    function deposit() public payable {\r\n        playerbalance[msg.sender] += msg.value;\r\n        contratcBalance[address(this)] += msg.value;\r\n\r\n        emit depositMade(msg.sender, msg.value);\r\n    }\r\n\r\n\r\n    // *************************************************************************************************\r\n    // *            ------------------_HELPER FUNCTIONS--------------------------                      *                                                                            *\r\n    // *************************************************************************************************\r\n\r\n   \r\n\r\n    //get Bet status, is player playing or not\r\n    function getRandomNumber() public view returns(uint) {\r\n        return RandomResult;\r\n    }\r\n\r\n    function getBetStatus() public view returns(bool) {\r\n        return isActive[msg.sender];\r\n    }\r\n    \r\n     function getQueryLog() public view returns(OracleQuery[] memory) {\r\n        return queryLog;\r\n    }\r\n\r\n    function hasWon() public view returns(bool) {\r\n        return player[msg.sender].hasWon;\r\n    }\r\n\r\n    //return msg.sender\r\n    function getPlayer() public view returns(address) {\r\n      \r\n        return msg.sender;\r\n    }\r\n    \r\n    //get contraqtc bal\r\n    function getContratcBalance() public view returns(uint) {\r\n      \r\n        return contratcBalance[address(this)];\r\n    }\r\n    \r\n     //get player bal\r\n    function getPlayerBalance() public view returns(uint) {\r\n        return contratcBalance[address(this)];\r\n    }\r\n    \r\n    //old random generater function\r\n    function random() public view returns(uint) {\r\n        return block.timestamp % 2;\r\n    }\r\n    \r\n    //return the players bet\r\n    function getCurrentBet() public view returns(uint) {\r\n        return player[msg.sender].betAmount;\r\n    }\r\n    \r\n    //return the bet Log of all bet histroys    \r\n    function getActiveBets() public view returns(Player[] memory) {\r\n        return betLog;\r\n    }\r\n}\r\n",
  "sourcePath": "C:/Users/evanm/OneDrive/Documents/EthereumProgramming/Solidity-201/CoinFlipDapp/BackEnd/contracts/CoinFlip.sol",
  "compiler": {
    "name": "solc",
    "version": "0.6.6+commit.6c089d02.Emscripten.clang"
  },
  "schemaVersion": "3.3.4",
  "updatedAt": "2021-06-08T23:15:50.489Z",
  "networkType": "ethereum",
  "devdoc": {
    "methods": {
      "changeOwner(address)": {
        "details": "Change owner",
        "params": {
          "newOwner": "address of new owner"
        }
      },
      "getOwner()": {
        "details": "Return owner address",
        "returns": {
          "_0": "address of owner"
        }
      }
    }
  },
  "userdoc": {
    "methods": {}
  }
}