{
  "contractName": "CoinFlip",
  "abi": [
    {
      "inputs": [],
      "stateMutability": "nonpayable",
      "type": "constructor"
    },
    {
      "anonymous": false,
      "inputs": [
        {
          "indexed": true,
          "internalType": "address",
          "name": "player",
          "type": "address"
        },
        {
          "indexed": false,
          "internalType": "bool",
          "name": "won",
          "type": "bool"
        },
        {
          "indexed": false,
          "internalType": "uint256",
          "name": "amountWon",
          "type": "uint256"
        }
      ],
      "name": "FlipResult",
      "type": "event"
    },
    {
      "anonymous": false,
      "inputs": [
        {
          "indexed": true,
          "internalType": "address",
          "name": "player",
          "type": "address"
        }
      ],
      "name": "LogNewProvableQuery",
      "type": "event"
    },
    {
      "anonymous": false,
      "inputs": [
        {
          "indexed": false,
          "internalType": "address",
          "name": "player",
          "type": "address"
        },
        {
          "indexed": false,
          "internalType": "uint256",
          "name": "newBalance",
          "type": "uint256"
        },
        {
          "indexed": false,
          "internalType": "uint256",
          "name": "oldBalance",
          "type": "uint256"
        }
      ],
      "name": "balanceUpdated",
      "type": "event"
    },
    {
      "anonymous": false,
      "inputs": [
        {
          "indexed": false,
          "internalType": "address",
          "name": "player_address",
          "type": "address"
        },
        {
          "indexed": false,
          "internalType": "uint256",
          "name": "amount",
          "type": "uint256"
        },
        {
          "indexed": false,
          "internalType": "uint256",
          "name": "betId",
          "type": "uint256"
        }
      ],
      "name": "betInitialized",
      "type": "event"
    },
    {
      "anonymous": false,
      "inputs": [
        {
          "indexed": false,
          "internalType": "address",
          "name": "playerAddress",
          "type": "address"
        },
        {
          "indexed": false,
          "internalType": "uint256",
          "name": "betId",
          "type": "uint256"
        },
        {
          "indexed": false,
          "internalType": "bool",
          "name": "hasWon",
          "type": "bool"
        }
      ],
      "name": "coinFlipped",
      "type": "event"
    },
    {
      "anonymous": false,
      "inputs": [
        {
          "indexed": false,
          "internalType": "address",
          "name": "depositedBy",
          "type": "address"
        },
        {
          "indexed": false,
          "internalType": "uint256",
          "name": "amount",
          "type": "uint256"
        }
      ],
      "name": "depositMade",
      "type": "event"
    },
    {
      "anonymous": false,
      "inputs": [
        {
          "indexed": false,
          "internalType": "uint256",
          "name": "randomNumber",
          "type": "uint256"
        }
      ],
      "name": "generatedRandomNumber",
      "type": "event"
    },
    {
      "anonymous": false,
      "inputs": [
        {
          "indexed": false,
          "internalType": "address",
          "name": "withdrawedBy",
          "type": "address"
        },
        {
          "indexed": false,
          "internalType": "uint256",
          "name": "amount",
          "type": "uint256"
        }
      ],
      "name": "withdrawMade",
      "type": "event"
    },
    {
      "inputs": [],
      "name": "RandomResult",
      "outputs": [
        {
          "internalType": "uint256",
          "name": "",
          "type": "uint256"
        }
      ],
      "stateMutability": "view",
      "type": "function",
      "constant": true
    },
    {
      "inputs": [
        {
          "internalType": "uint256",
          "name": "",
          "type": "uint256"
        }
      ],
      "name": "playerOracleqQuerey",
      "outputs": [
        {
          "internalType": "bytes32",
          "name": "id",
          "type": "bytes32"
        },
        {
          "internalType": "address",
          "name": "playerAddress",
          "type": "address"
        }
      ],
      "stateMutability": "view",
      "type": "function",
      "constant": true
    },
    {
      "inputs": [
        {
          "internalType": "bytes32",
          "name": "requestId",
          "type": "bytes32"
        },
        {
          "internalType": "uint256",
          "name": "randomness",
          "type": "uint256"
        }
      ],
      "name": "rawFulfillRandomness",
      "outputs": [],
      "stateMutability": "nonpayable",
      "type": "function"
    },
    {
      "inputs": [
        {
          "internalType": "uint256",
          "name": "_betType",
          "type": "uint256"
        }
      ],
      "name": "setBet",
      "outputs": [],
      "stateMutability": "payable",
      "type": "function",
      "payable": true
    },
    {
      "inputs": [],
      "name": "flipCoin",
      "outputs": [],
      "stateMutability": "nonpayable",
      "type": "function"
    },
    {
      "inputs": [],
      "name": "settleBet",
      "outputs": [],
      "stateMutability": "payable",
      "type": "function",
      "payable": true
    },
    {
      "inputs": [],
      "name": "withdraw",
      "outputs": [],
      "stateMutability": "payable",
      "type": "function",
      "payable": true
    },
    {
      "inputs": [],
      "name": "deposit",
      "outputs": [],
      "stateMutability": "payable",
      "type": "function",
      "payable": true
    },
    {
      "inputs": [],
      "name": "Flipped",
      "outputs": [
        {
          "internalType": "bool",
          "name": "",
          "type": "bool"
        }
      ],
      "stateMutability": "view",
      "type": "function",
      "constant": true
    },
    {
      "inputs": [],
      "name": "notWaiting",
      "outputs": [
        {
          "internalType": "bool",
          "name": "",
          "type": "bool"
        }
      ],
      "stateMutability": "nonpayable",
      "type": "function"
    },
    {
      "inputs": [],
      "name": "canCelBet",
      "outputs": [],
      "stateMutability": "nonpayable",
      "type": "function"
    },
    {
      "inputs": [],
      "name": "getBetType",
      "outputs": [
        {
          "internalType": "uint256",
          "name": "",
          "type": "uint256"
        }
      ],
      "stateMutability": "view",
      "type": "function",
      "constant": true
    },
    {
      "inputs": [],
      "name": "getRandomNumber",
      "outputs": [
        {
          "internalType": "uint256",
          "name": "",
          "type": "uint256"
        }
      ],
      "stateMutability": "view",
      "type": "function",
      "constant": true
    },
    {
      "inputs": [],
      "name": "getBetStatus",
      "outputs": [
        {
          "internalType": "bool",
          "name": "",
          "type": "bool"
        }
      ],
      "stateMutability": "view",
      "type": "function",
      "constant": true
    },
    {
      "inputs": [],
      "name": "getQueryLog",
      "outputs": [
        {
          "components": [
            {
              "internalType": "bytes32",
              "name": "id",
              "type": "bytes32"
            },
            {
              "internalType": "address",
              "name": "playerAddress",
              "type": "address"
            }
          ],
          "internalType": "struct CoinFlip.OracleQuery[]",
          "name": "",
          "type": "tuple[]"
        }
      ],
      "stateMutability": "view",
      "type": "function",
      "constant": true
    },
    {
      "inputs": [],
      "name": "hasWon",
      "outputs": [
        {
          "internalType": "bool",
          "name": "",
          "type": "bool"
        }
      ],
      "stateMutability": "view",
      "type": "function",
      "constant": true
    },
    {
      "inputs": [],
      "name": "getPlayer",
      "outputs": [
        {
          "internalType": "address",
          "name": "",
          "type": "address"
        }
      ],
      "stateMutability": "view",
      "type": "function",
      "constant": true
    },
    {
      "inputs": [],
      "name": "getContratcBalance",
      "outputs": [
        {
          "internalType": "uint256",
          "name": "",
          "type": "uint256"
        }
      ],
      "stateMutability": "view",
      "type": "function",
      "constant": true
    },
    {
      "inputs": [],
      "name": "getCurrentBet",
      "outputs": [
        {
          "internalType": "uint256",
          "name": "",
          "type": "uint256"
        }
      ],
      "stateMutability": "view",
      "type": "function",
      "constant": true
    },
    {
      "inputs": [],
      "name": "getActiveBets",
      "outputs": [
        {
          "components": [
            {
              "internalType": "address",
              "name": "playerAddress",
              "type": "address"
            },
            {
              "internalType": "uint256",
              "name": "betAmount",
              "type": "uint256"
            },
            {
              "internalType": "bool",
              "name": "hasWon",
              "type": "bool"
            },
            {
              "internalType": "string",
              "name": "bet_type",
              "type": "string"
            },
            {
              "internalType": "uint256",
              "name": "id",
              "type": "uint256"
            }
          ],
          "internalType": "struct CoinFlip.Player[]",
          "name": "",
          "type": "tuple[]"
        }
      ],
      "stateMutability": "view",
      "type": "function",
      "constant": true
    }
  ],
  "bytecode": "0x60c06040526000600b5534801561001557600080fd5b5073dd3782915140c8f3b190b5d67eac6dc5760c46e973a36085f69e2889c224210f603d836748e7dc00888173ffffffffffffffffffffffffffffffffffffffff1660a08173ffffffffffffffffffffffffffffffffffffffff1660601b815250508073ffffffffffffffffffffffffffffffffffffffff1660808173ffffffffffffffffffffffffffffffffffffffff1660601b8152505050506000600660003073ffffffffffffffffffffffffffffffffffffffff1673ffffffffffffffffffffffffffffffffffffffff168152602001908152602001600020819055507f6c3699283bda56ad74f6b855546325b68d482e983852a7a82979cc4807b641f460001b600d8190555067016345785d8a0000600e8190555060805160601c60a05160601c6135f96101616000398061164a528061262852508061225c52806125ec52506135f96000f3fe60806040526004361061011f5760003560e01c806380435e8f116100a0578063d0e30db011610064578063d0e30db01461033d578063d9b37faf14610347578063dbdff2c114610372578063e271af171461039d578063e8399cc6146103db5761011f565b806380435e8f146102895780638e4bf820146102b457806394985ddd146102be578063ada73020146102e7578063b7897485146103125761011f565b80633308f42d116100e75780633308f42d146101e75780633a506992146102125780633ccfd60b1461023d57806347fd79f114610247578063799ae223146102725761011f565b80630275b9531461012457806309c560231461014f5780630b20382a1461017a5780631fa859e81461019157806320a9158d146101bc575b600080fd5b34801561013057600080fd5b506101396103f7565b60405161014691906131ca565b60405180910390f35b34801561015b57600080fd5b506101646104a2565b6040516101719190613385565b60405180910390f35b34801561018657600080fd5b5061018f6104e9565b005b34801561019d57600080fd5b506101a6610792565b6040516101b391906131ca565b60405180910390f35b3480156101c857600080fd5b506101d16107e6565b6040516101de91906131ca565b60405180910390f35b3480156101f357600080fd5b506101fc61083d565b604051610209919061305f565b60405180910390f35b34801561021e57600080fd5b50610227610845565b6040516102349190613186565b60405180910390f35b610245610904565b005b34801561025357600080fd5b5061025c610a90565b6040516102699190613385565b60405180910390f35b34801561027e57600080fd5b50610287610a96565b005b34801561029557600080fd5b5061029e610d00565b6040516102ab91906131ca565b60405180910390f35b6102bc610d54565b005b3480156102ca57600080fd5b506102e560048036038101906102e09190612a19565b611648565b005b3480156102f357600080fd5b506102fc6116e4565b60405161030991906131a8565b60405180910390f35b34801561031e57600080fd5b5061032761186a565b6040516103349190613385565b60405180910390f35b6103456118b4565b005b34801561035357600080fd5b5061035c61193c565b6040516103699190613385565b60405180910390f35b34801561037e57600080fd5b50610387611983565b6040516103949190613385565b60405180910390f35b3480156103a957600080fd5b506103c460048036038101906103bf9190612a55565b61198d565b6040516103d292919061320e565b60405180910390f35b6103f560048036038101906103f09190612a55565b6119d1565b005b600080600260003373ffffffffffffffffffffffffffffffffffffffff1673ffffffffffffffffffffffffffffffffffffffff16815260200190815260200160002060006101000a81548160ff021916908315150217905550600260003373ffffffffffffffffffffffffffffffffffffffff1673ffffffffffffffffffffffffffffffffffffffff16815260200190815260200160002060009054906101000a900460ff16905090565b6000600760003373ffffffffffffffffffffffffffffffffffffffff1673ffffffffffffffffffffffffffffffffffffffff16815260200190815260200160002054905090565b6000600f80549050116104fb57600080fd5b60011515600360003373ffffffffffffffffffffffffffffffffffffffff1673ffffffffffffffffffffffffffffffffffffffff16815260200190815260200160002060009054906101000a900460ff1615151461055857600080fd5b60001515600860003373ffffffffffffffffffffffffffffffffffffffff1673ffffffffffffffffffffffffffffffffffffffff16815260200190815260200160002060009054906101000a900460ff161515146105b557600080fd5b60001515600260003373ffffffffffffffffffffffffffffffffffffffff1673ffffffffffffffffffffffffffffffffffffffff16815260200190815260200160002060009054906101000a900460ff1615151461061257600080fd5b6000600360003373ffffffffffffffffffffffffffffffffffffffff1673ffffffffffffffffffffffffffffffffffffffff16815260200190815260200160002060006101000a81548160ff021916908315150217905550600560003373ffffffffffffffffffffffffffffffffffffffff1673ffffffffffffffffffffffffffffffffffffffff16815260200190815260200160002060010154600660003073ffffffffffffffffffffffffffffffffffffffff1673ffffffffffffffffffffffffffffffffffffffff168152602001908152602001600020600082825403925050819055503373ffffffffffffffffffffffffffffffffffffffff166108fc600560003373ffffffffffffffffffffffffffffffffffffffff1673ffffffffffffffffffffffffffffffffffffffff168152602001908152602001600020600101549081150290604051600060405180830381858888f19350505050158015610781573d6000803e3d6000fd5b50600f60006107909190612811565b565b6000600360003373ffffffffffffffffffffffffffffffffffffffff1673ffffffffffffffffffffffffffffffffffffffff16815260200190815260200160002060009054906101000a900460ff16905090565b6000600560003373ffffffffffffffffffffffffffffffffffffffff1673ffffffffffffffffffffffffffffffffffffffff16815260200190815260200160002060020160009054906101000a900460ff16905090565b600033905090565b60606010805480602002602001604051908101604052809291908181526020016000905b828210156108fb5783829060005260206000209060020201604051806040016040529081600082015481526020016001820160009054906101000a900473ffffffffffffffffffffffffffffffffffffffff1673ffffffffffffffffffffffffffffffffffffffff1673ffffffffffffffffffffffffffffffffffffffff168152505081526020019060010190610869565b50505050905090565b3373ffffffffffffffffffffffffffffffffffffffff166108fc600660003073ffffffffffffffffffffffffffffffffffffffff1673ffffffffffffffffffffffffffffffffffffffff168152602001908152602001600020549081150290604051600060405180830381858888f19350505050158015610989573d6000803e3d6000fd5b50600660003073ffffffffffffffffffffffffffffffffffffffff1673ffffffffffffffffffffffffffffffffffffffff16815260200190815260200160002054600660003073ffffffffffffffffffffffffffffffffffffffff1673ffffffffffffffffffffffffffffffffffffffff168152602001908152602001600020600082825403925050819055507f45a5602c79d2f9db9cdf3d61199b5f0176590cbc0fdb04e0734f97a000b9796733600660003073ffffffffffffffffffffffffffffffffffffffff1673ffffffffffffffffffffffffffffffffffffffff16815260200190815260200160002054604051610a8692919061307a565b60405180910390a1565b600a5481565b60011515600360003373ffffffffffffffffffffffffffffffffffffffff1673ffffffffffffffffffffffffffffffffffffffff16815260200190815260200160002060009054906101000a900460ff16151514610af357600080fd5b60001515600260003373ffffffffffffffffffffffffffffffffffffffff1673ffffffffffffffffffffffffffffffffffffffff16815260200190815260200160002060009054906101000a900460ff16151514610b5057600080fd5b6001600260003373ffffffffffffffffffffffffffffffffffffffff1673ffffffffffffffffffffffffffffffffffffffff16815260200190815260200160002060006101000a81548160ff0219169083151502179055506001600860003373ffffffffffffffffffffffffffffffffffffffff1673ffffffffffffffffffffffffffffffffffffffff16815260200190815260200160002060006101000a81548160ff021916908315150217905550610c343342604051602001610c16929190613007565b6040516020818303038152906040528051906020012060001c612255565b507fd6389208150097bf0cf1ab325675a453d742e9f5fff1167dc44b983fade37d0533600560003373ffffffffffffffffffffffffffffffffffffffff1673ffffffffffffffffffffffffffffffffffffffff16815260200190815260200160002060040154600360003373ffffffffffffffffffffffffffffffffffffffff1673ffffffffffffffffffffffffffffffffffffffff16815260200190815260200160002060009054906101000a900460ff16604051610cf6939291906130a3565b60405180910390a1565b6000600860003373ffffffffffffffffffffffffffffffffffffffff1673ffffffffffffffffffffffffffffffffffffffff16815260200190815260200160002060009054906101000a900460ff16905090565b60011515600860003373ffffffffffffffffffffffffffffffffffffffff1673ffffffffffffffffffffffffffffffffffffffff16815260200190815260200160002060009054906101000a900460ff16151514610db157600080fd5b600360003373ffffffffffffffffffffffffffffffffffffffff1673ffffffffffffffffffffffffffffffffffffffff16815260200190815260200160002060009054906101000a900460ff16610e0757600080fd5b6001600a541415610e6e576001600560003373ffffffffffffffffffffffffffffffffffffffff1673ffffffffffffffffffffffffffffffffffffffff16815260200190815260200160002060020160006101000a81548160ff0219169083151502179055505b6000600660003073ffffffffffffffffffffffffffffffffffffffff1673ffffffffffffffffffffffffffffffffffffffff1681526020019081526020016000205490506000600560003373ffffffffffffffffffffffffffffffffffffffff1673ffffffffffffffffffffffffffffffffffffffff168152602001908152602001600020600101549050600560003373ffffffffffffffffffffffffffffffffffffffff1673ffffffffffffffffffffffffffffffffffffffff16815260200190815260200160002060020160009054906101000a900460ff168015610f9457506000600760003373ffffffffffffffffffffffffffffffffffffffff1673ffffffffffffffffffffffffffffffffffffffff16815260200190815260200160002054145b1561111057600560003373ffffffffffffffffffffffffffffffffffffffff1673ffffffffffffffffffffffffffffffffffffffff16815260200190815260200160002060010154600202600660003073ffffffffffffffffffffffffffffffffffffffff1673ffffffffffffffffffffffffffffffffffffffff168152602001908152602001600020600082825403925050819055503373ffffffffffffffffffffffffffffffffffffffff166108fc600560003373ffffffffffffffffffffffffffffffffffffffff1673ffffffffffffffffffffffffffffffffffffffff168152602001908152602001600020600101546002029081150290604051600060405180830381858888f193505050501580156110b6573d6000803e3d6000fd5b503373ffffffffffffffffffffffffffffffffffffffff167f1f2ff94143ec2e58ace01e22de3975718247435e2d23d05b66eb402230d8281e6001600284026040516111039291906131e5565b60405180910390a261151a565b600560003373ffffffffffffffffffffffffffffffffffffffff1673ffffffffffffffffffffffffffffffffffffffff16815260200190815260200160002060020160009054906101000a900460ff161580156111ac57506000600760003373ffffffffffffffffffffffffffffffffffffffff1673ffffffffffffffffffffffffffffffffffffffff16815260200190815260200160002054145b1561120a573373ffffffffffffffffffffffffffffffffffffffff167f1f2ff94143ec2e58ace01e22de3975718247435e2d23d05b66eb402230d8281e6001600284026040516111fd9291906131e5565b60405180910390a2611519565b600560003373ffffffffffffffffffffffffffffffffffffffff1673ffffffffffffffffffffffffffffffffffffffff16815260200190815260200160002060020160009054906101000a900460ff1680156112a557506001600760003373ffffffffffffffffffffffffffffffffffffffff1673ffffffffffffffffffffffffffffffffffffffff16815260200190815260200160002054145b1561142157600560003373ffffffffffffffffffffffffffffffffffffffff1673ffffffffffffffffffffffffffffffffffffffff16815260200190815260200160002060010154600402600660003073ffffffffffffffffffffffffffffffffffffffff1673ffffffffffffffffffffffffffffffffffffffff168152602001908152602001600020600082825403925050819055503373ffffffffffffffffffffffffffffffffffffffff166108fc600560003373ffffffffffffffffffffffffffffffffffffffff1673ffffffffffffffffffffffffffffffffffffffff168152602001908152602001600020600101546004029081150290604051600060405180830381858888f193505050501580156113c7573d6000803e3d6000fd5b503373ffffffffffffffffffffffffffffffffffffffff167f1f2ff94143ec2e58ace01e22de3975718247435e2d23d05b66eb402230d8281e6001600284026040516114149291906131e5565b60405180910390a2611518565b600560003373ffffffffffffffffffffffffffffffffffffffff1673ffffffffffffffffffffffffffffffffffffffff16815260200190815260200160002060020160009054906101000a900460ff161580156114bd57506001600760003373ffffffffffffffffffffffffffffffffffffffff1673ffffffffffffffffffffffffffffffffffffffff16815260200190815260200160002054145b15611517573373ffffffffffffffffffffffffffffffffffffffff167f1f2ff94143ec2e58ace01e22de3975718247435e2d23d05b66eb402230d8281e60016002840260405161150e9291906131e5565b60405180910390a25b5b5b5b6000600260003373ffffffffffffffffffffffffffffffffffffffff1673ffffffffffffffffffffffffffffffffffffffff16815260200190815260200160002060006101000a81548160ff0219169083151502179055506000600360003373ffffffffffffffffffffffffffffffffffffffff1673ffffffffffffffffffffffffffffffffffffffff16815260200190815260200160002060006101000a81548160ff0219169083151502179055507f92133653a2c523cb4f9d23d7f48803ba3f3cc68ff25f728d0fe190d067598bee30600660003073ffffffffffffffffffffffffffffffffffffffff1673ffffffffffffffffffffffffffffffffffffffff168152602001908152602001600020548460405161163c9392919061314f565b60405180910390a15050565b7f000000000000000000000000000000000000000000000000000000000000000073ffffffffffffffffffffffffffffffffffffffff163373ffffffffffffffffffffffffffffffffffffffff16146116d6576040517f08c379a00000000000000000000000000000000000000000000000000000000081526004016116cd90613325565b60405180910390fd5b6116e0828261235a565b5050565b6060600f805480602002602001604051908101604052809291908181526020016000905b8282101561186157838290600052602060002090600502016040518060a00160405290816000820160009054906101000a900473ffffffffffffffffffffffffffffffffffffffff1673ffffffffffffffffffffffffffffffffffffffff1673ffffffffffffffffffffffffffffffffffffffff168152602001600182015481526020016002820160009054906101000a900460ff16151515158152602001600382018054600181600116156101000203166002900480601f01602080910402602001604051908101604052809291908181526020018280546001816001161561010002031660029004801561183f5780601f106118145761010080835404028352916020019161183f565b820191906000526020600020905b81548152906001019060200180831161182257829003601f168201915b5050505050815260200160048201548152505081526020019060010190611708565b50505050905090565b6000600560003373ffffffffffffffffffffffffffffffffffffffff1673ffffffffffffffffffffffffffffffffffffffff16815260200190815260200160002060010154905090565b34600660003073ffffffffffffffffffffffffffffffffffffffff1673ffffffffffffffffffffffffffffffffffffffff168152602001908152602001600020600082825401925050819055507f14558f60a55f03caac2b3dabdda0b51b20b0e22ce09a2c28cd1dc18e873578e8333460405161193292919061307a565b60405180910390a1565b6000600660003073ffffffffffffffffffffffffffffffffffffffff1673ffffffffffffffffffffffffffffffffffffffff16815260200190815260200160002054905090565b6000600a54905090565b60046020528060005260406000206000915090508060000154908060010160009054906101000a900473ffffffffffffffffffffffffffffffffffffffff16905082565b66038d7ea4c68000341015611a1b576040517f08c379a0000000000000000000000000000000000000000000000000000000008152600401611a1290613365565b60405180910390fd5b60001515600360003373ffffffffffffffffffffffffffffffffffffffff1673ffffffffffffffffffffffffffffffffffffffff16815260200190815260200160002060009054906101000a900460ff16151514611aae576040517f08c379a0000000000000000000000000000000000000000000000000000000008152600401611aa5906132a5565b60405180910390fd5b6001600760003373ffffffffffffffffffffffffffffffffffffffff1673ffffffffffffffffffffffffffffffffffffffff168152602001908152602001600020541415611b87576002600660003073ffffffffffffffffffffffffffffffffffffffff1673ffffffffffffffffffffffffffffffffffffffff1681526020019081526020016000205481611b3f57fe5b04341115611b82576040517f08c379a0000000000000000000000000000000000000000000000000000000008152600401611b7990613305565b60405180910390fd5b611c14565b6004600660003073ffffffffffffffffffffffffffffffffffffffff1673ffffffffffffffffffffffffffffffffffffffff1681526020019081526020016000205481611bd057fe5b04341115611c13576040517f08c379a0000000000000000000000000000000000000000000000000000000008152600401611c0a90613345565b60405180910390fd5b5b60606001821415611ca1576040518060400160405280600581526020017f486561647300000000000000000000000000000000000000000000000000000081525090506001600760003373ffffffffffffffffffffffffffffffffffffffff1673ffffffffffffffffffffffffffffffffffffffff16815260200190815260200160002081905550611d1f565b6040518060400160405280600581526020017f5461696c7300000000000000000000000000000000000000000000000000000081525090506000600760003373ffffffffffffffffffffffffffffffffffffffff1673ffffffffffffffffffffffffffffffffffffffff168152602001908152602001600020819055505b33600560003373ffffffffffffffffffffffffffffffffffffffff1673ffffffffffffffffffffffffffffffffffffffff16815260200190815260200160002060000160006101000a81548173ffffffffffffffffffffffffffffffffffffffff021916908373ffffffffffffffffffffffffffffffffffffffff16021790555034600560003373ffffffffffffffffffffffffffffffffffffffff1673ffffffffffffffffffffffffffffffffffffffff168152602001908152602001600020600101819055506000600560003373ffffffffffffffffffffffffffffffffffffffff1673ffffffffffffffffffffffffffffffffffffffff16815260200190815260200160002060020160006101000a81548160ff02191690831515021790555080600560003373ffffffffffffffffffffffffffffffffffffffff1673ffffffffffffffffffffffffffffffffffffffff1681526020019081526020016000206003019080519060200190611e98929190612835565b50600b54600560003373ffffffffffffffffffffffffffffffffffffffff1673ffffffffffffffffffffffffffffffffffffffff16815260200190815260200160002060040181905550600f6040518060a001604052803373ffffffffffffffffffffffffffffffffffffffff168152602001348152602001600015158152602001838152602001600b54815250908060018154018082558091505060019003906000526020600020906005020160009091909190915060008201518160000160006101000a81548173ffffffffffffffffffffffffffffffffffffffff021916908373ffffffffffffffffffffffffffffffffffffffff1602179055506020820151816001015560408201518160020160006101000a81548160ff0219169083151502179055506060820151816003019080519060200190611fdc929190612835565b506080820151816004015550506001600360003373ffffffffffffffffffffffffffffffffffffffff1673ffffffffffffffffffffffffffffffffffffffff16815260200190815260200160002060006101000a81548160ff0219169083151502179055506000600860003373ffffffffffffffffffffffffffffffffffffffff1673ffffffffffffffffffffffffffffffffffffffff16815260200190815260200160002060006101000a81548160ff0219169083151502179055506000600260003373ffffffffffffffffffffffffffffffffffffffff1673ffffffffffffffffffffffffffffffffffffffff16815260200190815260200160002060006101000a81548160ff021916908315150217905550600560003373ffffffffffffffffffffffffffffffffffffffff1673ffffffffffffffffffffffffffffffffffffffff16815260200190815260200160002060010154600660003073ffffffffffffffffffffffffffffffffffffffff1673ffffffffffffffffffffffffffffffffffffffff16815260200190815260200160002060008282540192505081905550600b600081548092919060010191905055507fac9d43fa410f8a3a6ed7172f9b2457ef415c56d30b4aaabf64a6a8e632772b5733600560003373ffffffffffffffffffffffffffffffffffffffff1673ffffffffffffffffffffffffffffffffffffffff16815260200190815260200160002060010154600560003373ffffffffffffffffffffffffffffffffffffffff1673ffffffffffffffffffffffffffffffffffffffff16815260200190815260200160002060040154604051612249939291906130da565b60405180910390a15050565b6000600e547f000000000000000000000000000000000000000000000000000000000000000073ffffffffffffffffffffffffffffffffffffffff166370a08231306040518263ffffffff1660e01b81526004016122b3919061305f565b60206040518083038186803b1580156122cb57600080fd5b505afa1580156122df573d6000803e3d6000fd5b505050506040513d601f19601f820116820180604052508101906123039190612a7e565b1015612344576040517f08c379a000000000000000000000000000000000000000000000000000000000815260040161233b906132e5565b60405180910390fd5b612353600d54600e54846125e8565b9050919050565b81600160003373ffffffffffffffffffffffffffffffffffffffff1673ffffffffffffffffffffffffffffffffffffffff168152602001908152602001600020819055503360046000600560003373ffffffffffffffffffffffffffffffffffffffff1673ffffffffffffffffffffffffffffffffffffffff16815260200190815260200160002060040154815260200190815260200160002060010160006101000a81548173ffffffffffffffffffffffffffffffffffffffff021916908373ffffffffffffffffffffffffffffffffffffffff1602179055508160046000600560003373ffffffffffffffffffffffffffffffffffffffff1673ffffffffffffffffffffffffffffffffffffffff16815260200190815260200160002060040154815260200190815260200160002060000181905550601060405180604001604052808481526020013373ffffffffffffffffffffffffffffffffffffffff1681525090806001815401808255809150506001900390600052602060002090600202016000909190919091506000820151816000015560208201518160010160006101000a81548173ffffffffffffffffffffffffffffffffffffffff021916908373ffffffffffffffffffffffffffffffffffffffff16021790555050506000600760003373ffffffffffffffffffffffffffffffffffffffff1673ffffffffffffffffffffffffffffffffffffffff168152602001908152602001600020541415612599576002818161258d57fe5b06600a819055506125ab565b600481816125a357fe5b06600a819055505b7fc13d60fe9dffdb6908d2d446cd18134373a51db0738ee04f296eeb9128121cbc600a546040516125dc9190613385565b60405180910390a15050565b60007f000000000000000000000000000000000000000000000000000000000000000073ffffffffffffffffffffffffffffffffffffffff16634000aea07f000000000000000000000000000000000000000000000000000000000000000085878660405160200161265b929190613237565b6040516020818303038152906040526040518463ffffffff1660e01b815260040161268893929190613111565b602060405180830381600087803b1580156126a257600080fd5b505af11580156126b6573d6000803e3d6000fd5b505050506040513d601f19601f820116820180604052508101906126da91906129f0565b5060006126fb8584306000808a81526020019081526020016000205461274d565b905061272360016000808881526020019081526020016000205461278990919063ffffffff16565b6000808781526020019081526020016000208190555061274385826127de565b9150509392505050565b6000848484846040516020016127669493929190613260565b6040516020818303038152906040528051906020012060001c9050949350505050565b6000808284019050838110156127d4576040517f08c379a00000000000000000000000000000000000000000000000000000000081526004016127cb906132c5565b60405180910390fd5b8091505092915050565b600082826040516020016127f3929190613033565b60405160208183030381529060405280519060200120905092915050565b508054600082556005029060005260206000209081019061283291906128b5565b50565b828054600181600116156101000203166002900490600052602060002090601f016020900481019282601f1061287657805160ff19168380011785556128a4565b828001600101855582156128a4579182015b828111156128a3578251825591602001919060010190612888565b5b5090506128b1919061292f565b5090565b61292c91905b8082111561292857600080820160006101000a81549073ffffffffffffffffffffffffffffffffffffffff021916905560018201600090556002820160006101000a81549060ff02191690556003820160006129179190612954565b6004820160009055506005016128bb565b5090565b90565b61295191905b8082111561294d576000816000905550600101612935565b5090565b90565b50805460018160011615610100020316600290046000825580601f1061297a5750612999565b601f016020900490600052602060002090810190612998919061292f565b5b50565b6000815190506129ab8161357e565b92915050565b6000813590506129c081613595565b92915050565b6000813590506129d5816135ac565b92915050565b6000815190506129ea816135ac565b92915050565b600060208284031215612a0257600080fd5b6000612a108482850161299c565b91505092915050565b60008060408385031215612a2c57600080fd5b6000612a3a858286016129b1565b9250506020612a4b858286016129c6565b9150509250929050565b600060208284031215612a6757600080fd5b6000612a75848285016129c6565b91505092915050565b600060208284031215612a9057600080fd5b6000612a9e848285016129db565b91505092915050565b6000612ab38383612f2d565b60408301905092915050565b6000612acb8383612f5c565b905092915050565b612adc816134bf565b82525050565b612af3612aee8261346d565b613528565b82525050565b612b028161345b565b82525050565b612b118161345b565b82525050565b6000612b22826133c0565b612b2c8185613406565b9350612b37836133a0565b8060005b83811015612b68578151612b4f8882612aa7565b9750612b5a836133ec565b925050600181019050612b3b565b5085935050505092915050565b6000612b80826133cb565b612b8a8185613417565b935083602082028501612b9c856133b0565b8060005b85811015612bd85784840389528151612bb98582612abf565b9450612bc4836133f9565b925060208a01995050600181019050612ba0565b50829750879550505050505092915050565b612bf38161347f565b82525050565b612c028161347f565b82525050565b612c118161348b565b82525050565b612c208161348b565b82525050565b612c37612c328261348b565b61353a565b82525050565b6000612c48826133d6565b612c528185613428565b9350612c628185602086016134f5565b612c6b81613560565b840191505092915050565b6000612c81826133e1565b612c8b8185613439565b9350612c9b8185602086016134f5565b612ca481613560565b840191505092915050565b6000612cbc602e8361344a565b91507f43616e6e6f742068617665206d6f7265207468616e206f6e652061637469766560008301527f2062657420617420612074696d650000000000000000000000000000000000006020830152604082019050919050565b6000612d22601b8361344a565b91507f536166654d6174683a206164646974696f6e206f766572666c6f7700000000006000830152602082019050919050565b6000612d62602b8361344a565b91507f4e6f7420656e6f756768204c494e4b202d2066696c6c20636f6e74726163742060008301527f77697468206661756365740000000000000000000000000000000000000000006020830152604082019050919050565b6000612dc8602e8361344a565b91507f596f752063616e277420626574206d6f7265207468616e2068616c662074686560008301527f20636f6e7472616374732062616c0000000000000000000000000000000000006020830152604082019050919050565b6000612e2e601f8361344a565b91507f4f6e6c7920565246436f6f7264696e61746f722063616e2066756c66696c6c006000830152602082019050919050565b6000612e6e60338361344a565b91507f596f752063616e277420626574206d6f7265207468616e20312071756172746560008301527f722074686520636f6e7472616374732062616c000000000000000000000000006020830152604082019050919050565b6000612ed4602d8361344a565b91507f496e737566666973616e7420616d6f756e742c20706c6561736520696e63726560008301527f61736520796f75722062657421000000000000000000000000000000000000006020830152604082019050919050565b604082016000820151612f436000850182612c08565b506020820151612f566020850182612af9565b50505050565b600060a083016000830151612f746000860182612af9565b506020830151612f876020860182612fd2565b506040830151612f9a6040860182612bea565b5060608301518482036060860152612fb28282612c76565b9150506080830151612fc76080860182612fd2565b508091505092915050565b612fdb816134b5565b82525050565b612fea816134b5565b82525050565b613001612ffc826134b5565b613556565b82525050565b60006130138285612ae2565b6014820191506130238284612ff0565b6020820191508190509392505050565b600061303f8285612c26565b60208201915061304f8284612ff0565b6020820191508190509392505050565b60006020820190506130746000830184612b08565b92915050565b600060408201905061308f6000830185612ad3565b61309c6020830184612fe1565b9392505050565b60006060820190506130b86000830186612ad3565b6130c56020830185612fe1565b6130d26040830184612bf9565b949350505050565b60006060820190506130ef6000830186612ad3565b6130fc6020830185612fe1565b6131096040830184612fe1565b949350505050565b60006060820190506131266000830186612b08565b6131336020830185612fe1565b81810360408301526131458184612c3d565b9050949350505050565b60006060820190506131646000830186612b08565b6131716020830185612fe1565b61317e6040830184612fe1565b949350505050565b600060208201905081810360008301526131a08184612b17565b905092915050565b600060208201905081810360008301526131c28184612b75565b905092915050565b60006020820190506131df6000830184612bf9565b92915050565b60006040820190506131fa6000830185612bf9565b6132076020830184612fe1565b9392505050565b60006040820190506132236000830185612c17565b6132306020830184612b08565b9392505050565b600060408201905061324c6000830185612c17565b6132596020830184612fe1565b9392505050565b60006080820190506132756000830187612c17565b6132826020830186612fe1565b61328f6040830185612b08565b61329c6060830184612fe1565b95945050505050565b600060208201905081810360008301526132be81612caf565b9050919050565b600060208201905081810360008301526132de81612d15565b9050919050565b600060208201905081810360008301526132fe81612d55565b9050919050565b6000602082019050818103600083015261331e81612dbb565b9050919050565b6000602082019050818103600083015261333e81612e21565b9050919050565b6000602082019050818103600083015261335e81612e61565b9050919050565b6000602082019050818103600083015261337e81612ec7565b9050919050565b600060208201905061339a6000830184612fe1565b92915050565b6000819050602082019050919050565b6000819050602082019050919050565b600081519050919050565b600081519050919050565b600081519050919050565b600081519050919050565b6000602082019050919050565b6000602082019050919050565b600082825260208201905092915050565b600082825260208201905092915050565b600082825260208201905092915050565b600082825260208201905092915050565b600082825260208201905092915050565b600061346682613495565b9050919050565b600061347882613495565b9050919050565b60008115159050919050565b6000819050919050565b600073ffffffffffffffffffffffffffffffffffffffff82169050919050565b6000819050919050565b60006134ca826134d1565b9050919050565b60006134dc826134e3565b9050919050565b60006134ee82613495565b9050919050565b60005b838110156135135780820151818401526020810190506134f8565b83811115613522576000848401525b50505050565b600061353382613544565b9050919050565b6000819050919050565b600061354f82613571565b9050919050565b6000819050919050565b6000601f19601f8301169050919050565b60008160601b9050919050565b6135878161347f565b811461359257600080fd5b50565b61359e8161348b565b81146135a957600080fd5b50565b6135b5816134b5565b81146135c057600080fd5b5056fea264697066735822122059fc5230d1d426060062e0a0dc89c4f05ed89cd401027999e15374c549918c5f64736f6c63430006060033",
  "immutableReferences": {
    "1402": [
      {
        "length": 32,
        "start": 8796
      },
      {
        "length": 32,
        "start": 9708
      }
    ],
    "1404": [
      {
        "length": 32,
        "start": 5706
      },
      {
        "length": 32,
        "start": 9768
      }
    ]
  },
  "source": "// SPDX-License-Identifier: MIT\r\npragma solidity >=0.4.22 <0.9.0;\r\npragma experimental ABIEncoderV2;\r\n\r\n// import \"https://raw.githubusercontent.com/smartcontractkit/chainlink/master/evm-contracts/src/v0.6/VRFConsumerBase.sol\";\r\nimport \"./VRFConsumerBase.sol\";\r\nimport \"./OnlyOwner.sol\";\r\n\r\ncontract CoinFlip is VRFConsumerBase{\r\n\r\n\r\n    // *************************************************************************************************\r\n    // *            -------------------CONTRACT EVENTS--------------------------                       *                                                                            *\r\n    // *************************************************************************************************\r\n\r\n    event depositMade(address depositedBy, uint amount);\r\n    event withdrawMade(address withdrawedBy, uint amount);\r\n    event betInitialized(address player_address, uint amount, uint betId);\r\n    event coinFlipped(address playerAddress, uint betId, bool hasWon);\r\n    event FlipResult(address indexed player, bool won, uint amountWon);\r\n    event LogNewProvableQuery(address indexed player);\r\n    event balanceUpdated(address player, uint newBalance, uint oldBalance);\r\n    event  generatedRandomNumber(uint256 randomNumber);\r\n\r\n\r\n    // *************************************************************************************************\r\n    // *            -------------------DATA STRUCTURES--------------------------                       *                                                                            *\r\n    // *************************************************************************************************\r\n\r\n    struct Player {\r\n        address playerAddress;\r\n        uint256 betAmount;\r\n        bool hasWon;\r\n        string bet_type;\r\n        uint id;\r\n    }\r\n\r\n    struct OracleQuery {\r\n        bytes32 id;\r\n        address playerAddress;\r\n  }\r\n    \r\n    mapping(address => bytes32) oracleQuereyID;\r\n    mapping(address => bool) waitingForOracle;          //stores result of the oracle RN fetch request for a player true/false\r\n    mapping(address => bool) isActive;                    //stores the result of the oracles random number for a player\r\n    mapping(uint => OracleQuery) public playerOracleqQuerey;     //oracle querey\r\n    mapping(address => Player) player;                  //player struct has attributes such as address, betAmount, player ID\r\n    mapping(address => uint256) contratcBalance;        //contratc balance mappping\r\n    mapping(address => uint) betType;\r\n    mapping(address => bool) flipped; \r\n    mapping(address => uint) outcome;\r\n    \r\n\r\n    //initial vars set id globally increment each time a player is made\r\n    //NUM random bytes is how much bytes we request from the oracle 1 = range(0, 256) bytes\r\n    //initilaise Player array which will store each instance of a player bet for lookups\r\n    uint256 public RandomResult;\r\n    uint  private _id = 0;\r\n    uint private contractBalance;\r\n    bytes32 internal keyHash;\r\n    uint256 internal fee;\r\n    Player[] betLog;\r\n    OracleQuery[] queryLog;\r\n    \r\n\r\n    // *************************************************************************************************\r\n    // *            -------------------CONSTRUCTORS & MODIFIERS--------------------------                       *                                                                            *\r\n    // *************************************************************************************************\r\n\r\n    //init contratc balance to 0\r\n    constructor() VRFConsumerBase( 0xdD3782915140c8f3b190B5D67eAc6dc5760C46E9, 0xa36085F69e2889c224210F603D836748e7dC0088) public {\r\n        \r\n       \r\n        contratcBalance[address(this)] = 0;\r\n        \r\n        {\r\n        keyHash = 0x6c3699283bda56ad74f6b855546325b68d482e983852a7a82979cc4807b641f4;\r\n        fee = 0.1 * 10 ** 18; // 0.1 LINK (Varies by network)\r\n        }\r\n    \r\n\r\n    }\r\n    \r\n    // modifier for the bet Conditions function. cannot create a bet smaller than 0.01 eth\r\n    // the betAmiunt must be less thatn half of the contratc bal or else they payout is not possible\r\n    // no player can have more than one bet ongoing handle this with an isActive attribute\r\n    modifier betConditions {\r\n        require(msg.value >= 0.001 ether, \"Insuffisant amount, please increase your bet!\");\r\n        require(isActive[msg.sender] == false, \"Cannot have more than one active bet at a time\");\r\n        if(betType[msg.sender] == 1) {\r\n            require(msg.value <= contratcBalance[address(this)] / 2, \"You can't bet more than half the contracts bal\");\r\n        }\r\n        else {\r\n            require(msg.value <= contratcBalance[address(this)] / 4, \"You can't bet more than 1 quarter the contracts bal\");\r\n        }\r\n        \r\n        _;\r\n    }\r\n    \r\n    \r\n     // *************************************************************************************************\r\n    // *       -------------------CHAINLINK ORACLE FUNCS FOR RANDOMNESS--------------------------       *                                                                            *\r\n    // **************************************************************************************************\r\n    \r\n\r\n    //this function is called in the flip con fuctiom below. When this function is resolved by\r\n    //the chainlink oracle then the callback function (fullfil randomness) below is called and\r\n    //the random number is settled for use in the settleBet function which gets called after \r\n    //flipCoin()\r\n    function getRandomNumber(uint256 userProvidedSeed) private returns (bytes32 requestId) {\r\n        require(LINK.balanceOf(address(this)) >= fee, \"Not enough LINK - fill contract with faucet\");\r\n        return requestRandomness(keyHash, fee, userProvidedSeed);\r\n    }\r\n\r\n    /**\r\n     * Callback function used by VRF Coordinator\r\n     */\r\n    function fulfillRandomness(bytes32 requestId, uint256 randomness) internal override {\r\n        \r\n        // waitingForOracle[msg.sender] = true;\r\n        oracleQuereyID[msg.sender] = requestId;\r\n        playerOracleqQuerey[player[msg.sender].id].playerAddress = msg.sender;\r\n        playerOracleqQuerey[player[msg.sender].id].id = requestId;\r\n        queryLog.push(OracleQuery(requestId, msg.sender));\r\n        if (betType[msg.sender] == 0) {\r\n            RandomResult = randomness % 2;\r\n\r\n        }\r\n        else {\r\n            RandomResult = randomness % 4;\r\n\r\n        }\r\n        \r\n       \r\n\r\n        emit  generatedRandomNumber(RandomResult);\r\n    }\r\n    \r\n    \r\n    // *************************************************************************************************\r\n    // *            -------------------COINFLIP MAIN ALGORITHM--------------------------                    *                                                                            *\r\n    // *************************************************************************************************\r\n\r\n    \r\n    \r\n    function setBet(uint _betType) public betConditions payable  {\r\n\r\n        //initalize a player#\r\n        string memory result;\r\n        if(_betType == 1) {\r\n            result = \"Heads\";\r\n            betType[msg.sender] = 1;\r\n        }else {\r\n            result = \"Tails\";\r\n            betType[msg.sender] = 0;\r\n        }\r\n        \r\n        player[msg.sender].playerAddress = msg.sender;\r\n        player[msg.sender].betAmount = msg.value;\r\n        player[msg.sender].hasWon = false;\r\n        player[msg.sender].bet_type = result;\r\n        player[msg.sender].id = _id;\r\n\r\n        //push the player to the betLog\r\n        betLog.push(Player(msg.sender, msg.value, false, result, _id));\r\n        isActive[msg.sender] = true;\r\n        flipped[msg.sender] = false;\r\n        waitingForOracle[msg.sender] = false;\r\n\r\n        //set waiting for oracle result to true\r\n        //and update balances / id accordingly\r\n        contratcBalance[address(this)] += player[msg.sender].betAmount;\r\n        // contratcBalance[address(this)] += player[msg.sender].betAmount;\r\n        _id++;\r\n        \r\n        emit betInitialized(msg.sender, player[msg.sender].betAmount, player[msg.sender].id);\r\n       \r\n    }\r\n\r\n    \r\n    //update tomorrow to have the flip function update struct values\r\n    //have another funcion which is then called that puts into play the effects\r\n    function flipCoin() public {\r\n        \r\n        require(isActive[msg.sender] == true);\r\n        require(waitingForOracle[msg.sender] == false);\r\n        \r\n         //call the update function which is responsible for handlu=ing the\r\n        //oracle querey request to get a external trully random number\r\n        waitingForOracle[msg.sender] = true;\r\n        flipped[msg.sender] = true;\r\n        getRandomNumber(uint256(keccak256(abi.encodePacked(msg.sender, block.timestamp))));\r\n        \r\n        emit coinFlipped(msg.sender, player[msg.sender].id, isActive[msg.sender]);\r\n      \r\n    }\r\n\r\n    \r\n    //this function takes the result from the flipCoin function and settles the bet\r\n    //decreases player balance if coinflip is 0 and increases player bal in the\r\n    //coinFlip result is 1\r\n    function settleBet() public payable  {\r\n        \r\n        require(flipped[msg.sender] == true);\r\n        require(isActive[msg.sender]);\r\n        // require(waitingForOracle[msg.sender] == false);\r\n        // RandomResult = 1;\r\n        if (RandomResult == 1) {\r\n            player[msg.sender].hasWon = true;\r\n            // betLog[_id].hasWon = true;\r\n        }\r\n        \r\n        //store old player balance for events\r\n        // uint256 oldPlayerBalance = playerbalance[msg.sender];\r\n        uint256 oldContractBalance = contratcBalance[address(this)];\r\n        // uint256 betAmount = player[msg.sender].betAmount;\r\n\r\n     \r\n        // address playerAddress = playerOracleqQuerey[player[msg.sender].id].playerAddress;\r\n        uint betAmount = player[msg.sender].betAmount;\r\n\r\n        //update player balances respectively depending\r\n        if (player[msg.sender].hasWon && betType[msg.sender] == 0) {\r\n            \r\n            contratcBalance[address(this)] -= 2 * player[msg.sender].betAmount;\r\n            msg.sender.transfer(2 * player[msg.sender].betAmount);\r\n            emit FlipResult (msg.sender, true, betAmount * 2);\r\n            \r\n        }\r\n        else if (!player[msg.sender].hasWon && betType[msg.sender] == 0) {\r\n            emit FlipResult (msg.sender, true, betAmount * 2);\r\n            \r\n        }\r\n        else if (player[msg.sender].hasWon && betType[msg.sender] == 1) {\r\n            \r\n            contratcBalance[address(this)] -= 4 * player[msg.sender].betAmount;\r\n            msg.sender.transfer(4 * player[msg.sender].betAmount);\r\n            emit FlipResult (msg.sender, true, betAmount * 2);\r\n            \r\n        }\r\n        else if (!player[msg.sender].hasWon && betType[msg.sender] == 1) {\r\n            emit FlipResult (msg.sender, true, betAmount * 2);\r\n            \r\n        }\r\n\r\n        //delete player result for fresh new bet\r\n        //delete player oracle querey for fresh bet als\r\n        waitingForOracle[msg.sender] = false;\r\n        isActive[msg.sender] = false;\r\n\r\n        // emit balanceUpdated(msg.sender, playerbalance[msg.sender], oldPlayerBalance);\r\n        emit balanceUpdated(address(this), contratcBalance[address(this)], oldContractBalance);\r\n        \r\n        \r\n    }\r\n\r\n\r\n\r\n    // *************************************************************************************************\r\n    // *            -------------------DEPOSIT/WITHDRAWABLE FUNCTIONS--------------------------        *                                                                            *\r\n    // *************************************************************************************************\r\n\r\n    function withdraw() public payable  {\r\n       \r\n        msg.sender.transfer(contratcBalance[address(this)]);\r\n        contratcBalance[address(this)]-= contratcBalance[address(this)];\r\n\r\n        emit withdrawMade(msg.sender, contratcBalance[address(this)]);\r\n\r\n    }\r\n    \r\n\r\n    function deposit() public payable {\r\n        // playerbalance[msg.sender] += msg.value;\r\n        contratcBalance[address(this)] += msg.value;\r\n\r\n        emit depositMade(msg.sender, msg.value);\r\n    }\r\n\r\n\r\n    // *************************************************************************************************\r\n    // *            ------------------_HELPER FUNCTIONS--------------------------                      *                                                                            *\r\n    // *************************************************************************************************\r\n    \r\n    \r\n     function Flipped() public view returns (bool) {\r\n        return flipped[msg.sender];\r\n    }\r\n    \r\n    \r\n    function notWaiting() public returns (bool) {\r\n        waitingForOracle[msg.sender] = false;\r\n        return waitingForOracle[msg.sender];\r\n        \r\n    }\r\n\r\n    \r\n     function canCelBet() public {\r\n        \r\n        require(betLog.length > 0);\r\n        require(isActive[msg.sender] == true);\r\n        require(flipped[msg.sender] == false);\r\n        require(waitingForOracle[msg.sender] == false);\r\n        isActive[msg.sender] = false;\r\n        \r\n        contratcBalance[address(this)] -= player[msg.sender].betAmount;\r\n        msg.sender.transfer(player[msg.sender].betAmount);\r\n        \r\n        delete(betLog);\r\n        \r\n    }\r\n    \r\n    function getBetType() public view returns (uint) {\r\n        return betType[msg.sender];\r\n    }\r\n   \r\n\r\n    //get Bet status, is player playing or not\r\n    function getRandomNumber() public view returns(uint) {\r\n        return RandomResult;\r\n    }\r\n\r\n    function getBetStatus() public view returns(bool) {\r\n        return isActive[msg.sender];\r\n    }\r\n    \r\n     function getQueryLog() public view returns(OracleQuery[] memory) {\r\n        return queryLog;\r\n    }\r\n  \r\n\r\n    function hasWon() public view returns(bool) {\r\n        return player[msg.sender].hasWon;\r\n    }\r\n\r\n    //return msg.sender\r\n    function getPlayer() public view returns(address) {\r\n      \r\n        return msg.sender;\r\n    }\r\n    \r\n    //get contraqtc bal\r\n    function getContratcBalance() public view returns(uint) {\r\n      \r\n        return contratcBalance[address(this)];\r\n    }\r\n \r\n    \r\n    //return the players bet\r\n    function getCurrentBet() public view returns(uint) {\r\n        return player[msg.sender].betAmount;\r\n    }\r\n    \r\n    //return the bet Log of all bet histroys    \r\n    function getActiveBets() public view returns(Player[] memory) {\r\n        return betLog;\r\n    }\r\n}\r\n",
  "sourcePath": "C:/Users/evanm/OneDrive/Documents/EthereumProgramming/Solidity-201/CoinFlipDapp/BackEnd/contracts/CoinFlip.sol",
  "compiler": {
    "name": "solc",
    "version": "0.6.6+commit.6c089d02.Emscripten.clang"
  },
  "schemaVersion": "3.3.4",
  "updatedAt": "2021-06-11T13:39:34.798Z",
  "networkType": "ethereum",
  "devdoc": {
    "methods": {}
  },
  "userdoc": {
    "methods": {}
  }
}