{
  "contractName": "CoinFlip",
  "abi": [
    {
      "constant": true,
      "inputs": [
        {
          "name": "",
          "type": "bytes32"
        }
      ],
      "name": "playerOracleqQuerey",
      "outputs": [
        {
          "name": "id",
          "type": "bytes32"
        },
        {
          "name": "playerAddress",
          "type": "address"
        }
      ],
      "payable": false,
      "stateMutability": "view",
      "type": "function"
    },
    {
      "inputs": [],
      "payable": false,
      "stateMutability": "nonpayable",
      "type": "constructor"
    },
    {
      "anonymous": false,
      "inputs": [
        {
          "indexed": false,
          "name": "depositedBy",
          "type": "address"
        },
        {
          "indexed": false,
          "name": "amount",
          "type": "uint256"
        }
      ],
      "name": "depositMade",
      "type": "event"
    },
    {
      "anonymous": false,
      "inputs": [
        {
          "indexed": false,
          "name": "withdrawedBy",
          "type": "address"
        },
        {
          "indexed": false,
          "name": "amount",
          "type": "uint256"
        }
      ],
      "name": "withdrawMade",
      "type": "event"
    },
    {
      "anonymous": false,
      "inputs": [
        {
          "indexed": false,
          "name": "player_address",
          "type": "address"
        },
        {
          "indexed": false,
          "name": "amount",
          "type": "uint256"
        },
        {
          "indexed": false,
          "name": "betId",
          "type": "uint256"
        }
      ],
      "name": "betInitialized",
      "type": "event"
    },
    {
      "anonymous": false,
      "inputs": [
        {
          "indexed": false,
          "name": "playerAddress",
          "type": "address"
        },
        {
          "indexed": false,
          "name": "result",
          "type": "uint256"
        },
        {
          "indexed": false,
          "name": "betId",
          "type": "uint256"
        },
        {
          "indexed": false,
          "name": "hasWon",
          "type": "bool"
        }
      ],
      "name": "coinFlipped",
      "type": "event"
    },
    {
      "anonymous": false,
      "inputs": [
        {
          "indexed": true,
          "name": "player",
          "type": "address"
        }
      ],
      "name": "newProvableQuerey",
      "type": "event"
    },
    {
      "anonymous": false,
      "inputs": [
        {
          "indexed": false,
          "name": "player",
          "type": "address"
        },
        {
          "indexed": false,
          "name": "newBalance",
          "type": "uint256"
        },
        {
          "indexed": false,
          "name": "oldBalance",
          "type": "uint256"
        }
      ],
      "name": "balanceUpdated",
      "type": "event"
    },
    {
      "anonymous": false,
      "inputs": [
        {
          "indexed": false,
          "name": "randomNumber",
          "type": "uint256"
        }
      ],
      "name": "generatedRandomNumber",
      "type": "event"
    },
    {
      "constant": false,
      "inputs": [
        {
          "name": "amount",
          "type": "uint256"
        }
      ],
      "name": "setBet",
      "outputs": [],
      "payable": false,
      "stateMutability": "nonpayable",
      "type": "function"
    },
    {
      "constant": false,
      "inputs": [
        {
          "name": "_myid",
          "type": "bytes32"
        },
        {
          "name": "_result",
          "type": "string"
        }
      ],
      "name": "__callback",
      "outputs": [],
      "payable": false,
      "stateMutability": "nonpayable",
      "type": "function"
    },
    {
      "constant": false,
      "inputs": [
        {
          "name": "_queryId",
          "type": "bytes32"
        },
        {
          "name": "_result",
          "type": "uint256"
        },
        {
          "name": "_proof",
          "type": "bytes"
        }
      ],
      "name": "__callback",
      "outputs": [
        {
          "name": "",
          "type": "uint256"
        }
      ],
      "payable": false,
      "stateMutability": "nonpayable",
      "type": "function"
    },
    {
      "constant": false,
      "inputs": [
        {
          "name": "_myid",
          "type": "bytes32"
        },
        {
          "name": "_result",
          "type": "string"
        },
        {
          "name": "_proof",
          "type": "bytes"
        }
      ],
      "name": "__callback",
      "outputs": [],
      "payable": false,
      "stateMutability": "nonpayable",
      "type": "function"
    },
    {
      "constant": false,
      "inputs": [],
      "name": "testRandom",
      "outputs": [
        {
          "name": "",
          "type": "bytes32"
        }
      ],
      "payable": false,
      "stateMutability": "nonpayable",
      "type": "function"
    },
    {
      "constant": true,
      "inputs": [
        {
          "name": "randomNumber",
          "type": "uint256"
        }
      ],
      "name": "flipCoin",
      "outputs": [
        {
          "name": "",
          "type": "bool"
        }
      ],
      "payable": false,
      "stateMutability": "view",
      "type": "function"
    },
    {
      "constant": false,
      "inputs": [
        {
          "name": "randomSeed",
          "type": "bool"
        }
      ],
      "name": "settleBet",
      "outputs": [],
      "payable": false,
      "stateMutability": "nonpayable",
      "type": "function"
    },
    {
      "constant": false,
      "inputs": [
        {
          "name": "amount",
          "type": "uint256"
        }
      ],
      "name": "withdraw",
      "outputs": [],
      "payable": true,
      "stateMutability": "payable",
      "type": "function"
    },
    {
      "constant": false,
      "inputs": [],
      "name": "deposit",
      "outputs": [],
      "payable": true,
      "stateMutability": "payable",
      "type": "function"
    },
    {
      "constant": true,
      "inputs": [],
      "name": "getResult",
      "outputs": [
        {
          "name": "",
          "type": "uint256"
        }
      ],
      "payable": false,
      "stateMutability": "view",
      "type": "function"
    },
    {
      "constant": true,
      "inputs": [],
      "name": "getBetStatus",
      "outputs": [
        {
          "name": "",
          "type": "bool"
        }
      ],
      "payable": false,
      "stateMutability": "view",
      "type": "function"
    },
    {
      "constant": true,
      "inputs": [],
      "name": "getPlayer",
      "outputs": [
        {
          "name": "",
          "type": "address"
        }
      ],
      "payable": false,
      "stateMutability": "view",
      "type": "function"
    },
    {
      "constant": true,
      "inputs": [],
      "name": "getContratcBalance",
      "outputs": [
        {
          "name": "",
          "type": "uint256"
        }
      ],
      "payable": false,
      "stateMutability": "view",
      "type": "function"
    },
    {
      "constant": true,
      "inputs": [],
      "name": "getPlayerBalance",
      "outputs": [
        {
          "name": "",
          "type": "uint256"
        }
      ],
      "payable": false,
      "stateMutability": "view",
      "type": "function"
    },
    {
      "constant": true,
      "inputs": [],
      "name": "random",
      "outputs": [
        {
          "name": "",
          "type": "uint256"
        }
      ],
      "payable": false,
      "stateMutability": "view",
      "type": "function"
    },
    {
      "constant": true,
      "inputs": [],
      "name": "getCurrentBet",
      "outputs": [
        {
          "name": "",
          "type": "uint256"
        }
      ],
      "payable": false,
      "stateMutability": "view",
      "type": "function"
    },
    {
      "constant": true,
      "inputs": [],
      "name": "getActiveBets",
      "outputs": [
        {
          "components": [
            {
              "name": "playerAddress",
              "type": "address"
            },
            {
              "name": "betAmount",
              "type": "uint256"
            },
            {
              "name": "isActive",
              "type": "bool"
            },
            {
              "name": "hasWon",
              "type": "bool"
            },
            {
              "name": "id",
              "type": "uint256"
            }
          ],
          "name": "",
          "type": "tuple[]"
        }
      ],
      "payable": false,
      "stateMutability": "view",
      "type": "function"
    }
  ],
  "bytecode": "0x60806040526000600c5534801561001557600080fd5b506000600b60003073ffffffffffffffffffffffffffffffffffffffff1673ffffffffffffffffffffffffffffffffffffffff16815260200190815260200160002081905550611d8c8061006a6000396000f3fe6080604052600436106100f6576000357c0100000000000000000000000000000000000000000000000000000000900480630b01517c146100fb5780631fa859e81461012657806327dc297e146101515780632e1a7d4d1461017a5780633031935e146101965780633308f42d146101d357806338bbfa50146101fe5780635ec01e4d146102275780635f5be1f4146102525780636b2671221461028f578063ada73020146102cd578063b7897485146102f8578063c227609014610323578063d0e30db01461034c578063d9b37faf14610356578063de29278914610381578063e8399cc6146103ac578063fbddd14b146103d5575b600080fd5b34801561010757600080fd5b50610110610400565b60405161011d9190611bd6565b60405180910390f35b34801561013257600080fd5b5061013b610447565b6040516101489190611b77565b60405180910390f35b34801561015d57600080fd5b5061017860048036036101739190810190611832565b61049e565b005b610194600480360361018f919081019061196c565b6104e1565b005b3480156101a257600080fd5b506101bd60048036036101b89190810190611905565b61065a565b6040516101ca9190611bd6565b60405180910390f35b3480156101df57600080fd5b506101e8610707565b6040516101f59190611aa3565b60405180910390f35b34801561020a57600080fd5b5061022560048036036102209190810190611886565b61070f565b005b34801561023357600080fd5b5061023c610733565b6040516102499190611bd6565b60405180910390f35b34801561025e57600080fd5b506102796004803603610274919081019061196c565b610747565b6040516102869190611b77565b60405180910390f35b34801561029b57600080fd5b506102b660048036036102b19190810190611809565b6108ac565b6040516102c4929190611bad565b60405180910390f35b3480156102d957600080fd5b506102e26108f0565b6040516102ef9190611b55565b60405180910390f35b34801561030457600080fd5b5061030d6109f0565b60405161031a9190611bd6565b60405180910390f35b34801561032f57600080fd5b5061034a600480360361034591908101906117e0565b610a3a565b005b610354610f13565b005b34801561036257600080fd5b5061036b610fe8565b6040516103789190611bd6565b60405180910390f35b34801561038d57600080fd5b5061039661102f565b6040516103a39190611bd6565b60405180910390f35b3480156103b857600080fd5b506103d360048036036103ce919081019061196c565b611076565b005b3480156103e157600080fd5b506103ea61156a565b6040516103f79190611b92565b60405180910390f35b6000600a60003373ffffffffffffffffffffffffffffffffffffffff1673ffffffffffffffffffffffffffffffffffffffff16815260200190815260200160002054905090565b6000600960003373ffffffffffffffffffffffffffffffffffffffff1673ffffffffffffffffffffffffffffffffffffffff16815260200190815260200160002060020160009054906101000a900460ff16905090565b6104dd828260006040519080825280601f01601f1916602001820160405280156104d75781602001600182028038833980820191505090505b5061070f565b5050565b6000600a60003373ffffffffffffffffffffffffffffffffffffffff1673ffffffffffffffffffffffffffffffffffffffff168152602001908152602001600020541415151561053057600080fd5b670de0b6b3a76400008102905080600a60003373ffffffffffffffffffffffffffffffffffffffff1673ffffffffffffffffffffffffffffffffffffffff1681526020019081526020016000206000828254039250508190555080600b60003073ffffffffffffffffffffffffffffffffffffffff1673ffffffffffffffffffffffffffffffffffffffff168152602001908152602001600020600082825403925050819055503373ffffffffffffffffffffffffffffffffffffffff166108fc829081150290604051600060405180830381858888f1935050505015801561061d573d6000803e3d6000fd5b507f45a5602c79d2f9db9cdf3d61199b5f0176590cbc0fdb04e0734f97a000b97967338260405161064f929190611abe565b60405180910390a150565b60008083905080600660003373ffffffffffffffffffffffffffffffffffffffff1673ffffffffffffffffffffffffffffffffffffffff168152602001908152602001600020819055506000600560003373ffffffffffffffffffffffffffffffffffffffff1673ffffffffffffffffffffffffffffffffffffffff16815260200190815260200160002060006101000a81548160ff021916908315150217905550809150509392505050565b600033905090565b60006001026003600080600102815260200190815260200160002081905550505050565b600060024281151561074157fe5b06905090565b600080600760003373ffffffffffffffffffffffffffffffffffffffff1673ffffffffffffffffffffffffffffffffffffffff16815260200190815260200160002054905060006008600083815260200190815260200160002060010160009054906101000a900473ffffffffffffffffffffffffffffffffffffffff16905060011515600960003373ffffffffffffffffffffffffffffffffffffffff1673ffffffffffffffffffffffffffffffffffffffff16815260200190815260200160002060020160009054906101000a900460ff16151514151561082957600080fd5b60001515600560008373ffffffffffffffffffffffffffffffffffffffff1673ffffffffffffffffffffffffffffffffffffffff16815260200190815260200160002060009054906101000a900460ff16151514151561088857600080fd5b6000600185141561089c57600190506108a1565b600090505b809350505050919050565b60086020528060005260406000206000915090508060000154908060010160009054906101000a900473ffffffffffffffffffffffffffffffffffffffff16905082565b6060600f805480602002602001604051908101604052809291908181526020016000905b828210156109e7578382906000526020600020906004020160a060405190810160405290816000820160009054906101000a900473ffffffffffffffffffffffffffffffffffffffff1673ffffffffffffffffffffffffffffffffffffffff1673ffffffffffffffffffffffffffffffffffffffff168152602001600182015481526020016002820160009054906101000a900460ff161515151581526020016002820160019054906101000a900460ff1615151515815260200160038201548152505081526020019060010190610914565b50505050905090565b6000600960003373ffffffffffffffffffffffffffffffffffffffff1673ffffffffffffffffffffffffffffffffffffffff16815260200190815260200160002060010154905090565b6000600a60003373ffffffffffffffffffffffffffffffffffffffff1673ffffffffffffffffffffffffffffffffffffffff1681526020019081526020016000205490506000600b60003073ffffffffffffffffffffffffffffffffffffffff1673ffffffffffffffffffffffffffffffffffffffff1681526020019081526020016000205490506000600760003373ffffffffffffffffffffffffffffffffffffffff1673ffffffffffffffffffffffffffffffffffffffff16815260200190815260200160002054905060006008600083815260200190815260200160002060010160009054906101000a900473ffffffffffffffffffffffffffffffffffffffff1690506000600960008373ffffffffffffffffffffffffffffffffffffffff1673ffffffffffffffffffffffffffffffffffffffff1681526020019081526020016000206001015490508515610c8b576001600960008473ffffffffffffffffffffffffffffffffffffffff1673ffffffffffffffffffffffffffffffffffffffff16815260200190815260200160002060020160016101000a81548160ff02191690831515021790555080600b60003073ffffffffffffffffffffffffffffffffffffffff1673ffffffffffffffffffffffffffffffffffffffff1681526020019081526020016000206000828254039250508190555080600202600a60008473ffffffffffffffffffffffffffffffffffffffff1673ffffffffffffffffffffffffffffffffffffffff16815260200190815260200160002060008282540192505081905550610d34565b6000600960008473ffffffffffffffffffffffffffffffffffffffff1673ffffffffffffffffffffffffffffffffffffffff16815260200190815260200160002060020160016101000a81548160ff02191690831515021790555080600b60003073ffffffffffffffffffffffffffffffffffffffff1673ffffffffffffffffffffffffffffffffffffffff168152602001908152602001600020600082825401925050819055505b600660003373ffffffffffffffffffffffffffffffffffffffff1673ffffffffffffffffffffffffffffffffffffffff16815260200190815260200160002060009055600860008481526020019081526020016000206000808201600090556001820160006101000a81549073ffffffffffffffffffffffffffffffffffffffff021916905550506000600960008473ffffffffffffffffffffffffffffffffffffffff1673ffffffffffffffffffffffffffffffffffffffff16815260200190815260200160002060020160006101000a81548160ff0219169083151502179055507f92133653a2c523cb4f9d23d7f48803ba3f3cc68ff25f728d0fe190d067598bee33600a60003373ffffffffffffffffffffffffffffffffffffffff1673ffffffffffffffffffffffffffffffffffffffff1681526020019081526020016000205487604051610e8993929190611ae7565b60405180910390a17f92133653a2c523cb4f9d23d7f48803ba3f3cc68ff25f728d0fe190d067598bee30600b60003073ffffffffffffffffffffffffffffffffffffffff1673ffffffffffffffffffffffffffffffffffffffff1681526020019081526020016000205486604051610f0393929190611b1e565b60405180910390a1505050505050565b34600a60003373ffffffffffffffffffffffffffffffffffffffff1673ffffffffffffffffffffffffffffffffffffffff1681526020019081526020016000206000828254019250508190555034600b60003073ffffffffffffffffffffffffffffffffffffffff1673ffffffffffffffffffffffffffffffffffffffff168152602001908152602001600020600082825401925050819055507f14558f60a55f03caac2b3dabdda0b51b20b0e22ce09a2c28cd1dc18e873578e83334604051610fde929190611abe565b60405180910390a1565b6000600b60003073ffffffffffffffffffffffffffffffffffffffff1673ffffffffffffffffffffffffffffffffffffffff16815260200190815260200160002054905090565b6000600660003373ffffffffffffffffffffffffffffffffffffffff1673ffffffffffffffffffffffffffffffffffffffff16815260200190815260200160002054905090565b33600960003373ffffffffffffffffffffffffffffffffffffffff1673ffffffffffffffffffffffffffffffffffffffff16815260200190815260200160002060000160006101000a81548173ffffffffffffffffffffffffffffffffffffffff021916908373ffffffffffffffffffffffffffffffffffffffff160217905550670de0b6b3a76400008102600960003373ffffffffffffffffffffffffffffffffffffffff1673ffffffffffffffffffffffffffffffffffffffff168152602001908152602001600020600101819055506001600960003373ffffffffffffffffffffffffffffffffffffffff1673ffffffffffffffffffffffffffffffffffffffff16815260200190815260200160002060020160006101000a81548160ff0219169083151502179055506000600960003373ffffffffffffffffffffffffffffffffffffffff1673ffffffffffffffffffffffffffffffffffffffff16815260200190815260200160002060020160016101000a81548160ff021916908315150217905550600c54600960003373ffffffffffffffffffffffffffffffffffffffff1673ffffffffffffffffffffffffffffffffffffffff16815260200190815260200160002060030181905550600f60a0604051908101604052803373ffffffffffffffffffffffffffffffffffffffff168152602001838152602001600115158152602001600015158152602001600c548152509080600181540180825580915050906001820390600052602060002090600402016000909192909190915060008201518160000160006101000a81548173ffffffffffffffffffffffffffffffffffffffff021916908373ffffffffffffffffffffffffffffffffffffffff1602179055506020820151816001015560408201518160020160006101000a81548160ff02191690831515021790555060608201518160020160016101000a81548160ff021916908315150217905550608082015181600301555050506001600560003373ffffffffffffffffffffffffffffffffffffffff1673ffffffffffffffffffffffffffffffffffffffff16815260200190815260200160002060006101000a81548160ff021916908315150217905550600960003373ffffffffffffffffffffffffffffffffffffffff1673ffffffffffffffffffffffffffffffffffffffff16815260200190815260200160002060010154600a60003373ffffffffffffffffffffffffffffffffffffffff1673ffffffffffffffffffffffffffffffffffffffff16815260200190815260200160002060008282540392505081905550600960003373ffffffffffffffffffffffffffffffffffffffff1673ffffffffffffffffffffffffffffffffffffffff16815260200190815260200160002060010154600b60003073ffffffffffffffffffffffffffffffffffffffff1673ffffffffffffffffffffffffffffffffffffffff16815260200190815260200160002060008282540192505081905550600c600081548092919060010191905055506114e8611626565b7fac9d43fa410f8a3a6ed7172f9b2457ef415c56d30b4aaabf64a6a8e632772b5733600960003373ffffffffffffffffffffffffffffffffffffffff1673ffffffffffffffffffffffffffffffffffffffff16815260200190815260200160002060010154600c5460405161155f93929190611ae7565b60405180910390a150565b600080611575610733565b9050600033604051602001808273ffffffffffffffffffffffffffffffffffffffff1673ffffffffffffffffffffffffffffffffffffffff166c0100000000000000000000000002815260140191505060405160208183030381529060405280519060200120905061161d81836040805190810160405280600481526020017f746573740000000000000000000000000000000000000000000000000000000081525061065a565b50809250505090565b6000809050600062030d409050600061163d61156a565b9050806008600083815260200190815260200160002060000181905550336008600083815260200190815260200160002060010160006101000a81548173ffffffffffffffffffffffffffffffffffffffff021916908373ffffffffffffffffffffffffffffffffffffffff16021790555080600760003373ffffffffffffffffffffffffffffffffffffffff1673ffffffffffffffffffffffffffffffffffffffff16815260200190815260200160002081905550505050565b60006117048235611ced565b905092915050565b60006117188235611cf9565b905092915050565b600082601f830112151561173357600080fd5b813561174661174182611c1e565b611bf1565b9150808252602083016020830185838301111561176257600080fd5b61176d838284611d43565b50505092915050565b600082601f830112151561178957600080fd5b813561179c61179782611c4a565b611bf1565b915080825260208301602083018583830111156117b857600080fd5b6117c3838284611d43565b50505092915050565b60006117d88235611d03565b905092915050565b6000602082840312156117f257600080fd5b6000611800848285016116f8565b91505092915050565b60006020828403121561181b57600080fd5b60006118298482850161170c565b91505092915050565b6000806040838503121561184557600080fd5b60006118538582860161170c565b925050602083013567ffffffffffffffff81111561187057600080fd5b61187c85828601611776565b9150509250929050565b60008060006060848603121561189b57600080fd5b60006118a98682870161170c565b935050602084013567ffffffffffffffff8111156118c657600080fd5b6118d286828701611776565b925050604084013567ffffffffffffffff8111156118ef57600080fd5b6118fb86828701611720565b9150509250925092565b60008060006060848603121561191a57600080fd5b60006119288682870161170c565b9350506020611939868287016117cc565b925050604084013567ffffffffffffffff81111561195657600080fd5b61196286828701611720565b9150509250925092565b60006020828403121561197e57600080fd5b600061198c848285016117cc565b91505092915050565b61199e81611d0d565b82525050565b6119ad81611c9b565b82525050565b60006119be82611c83565b8084526020840193506119d083611c76565b60005b82811015611a02576119e6868351611a2c565b6119ef82611c8e565b915060a0860195506001810190506119d3565b50849250505092915050565b611a1781611cad565b82525050565b611a2681611cb9565b82525050565b60a082016000820151611a4260008501826119a4565b506020820151611a556020850182611a94565b506040820151611a686040850182611a0e565b506060820151611a7b6060850182611a0e565b506080820151611a8e6080850182611a94565b50505050565b611a9d81611ce3565b82525050565b6000602082019050611ab860008301846119a4565b92915050565b6000604082019050611ad36000830185611995565b611ae06020830184611a94565b9392505050565b6000606082019050611afc6000830186611995565b611b096020830185611a94565b611b166040830184611a94565b949350505050565b6000606082019050611b3360008301866119a4565b611b406020830185611a94565b611b4d6040830184611a94565b949350505050565b60006020820190508181036000830152611b6f81846119b3565b905092915050565b6000602082019050611b8c6000830184611a0e565b92915050565b6000602082019050611ba76000830184611a1d565b92915050565b6000604082019050611bc26000830185611a1d565b611bcf60208301846119a4565b9392505050565b6000602082019050611beb6000830184611a94565b92915050565b6000604051905081810181811067ffffffffffffffff82111715611c1457600080fd5b8060405250919050565b600067ffffffffffffffff821115611c3557600080fd5b601f19601f8301169050602081019050919050565b600067ffffffffffffffff821115611c6157600080fd5b601f19601f8301169050602081019050919050565b6000602082019050919050565b600081519050919050565b6000602082019050919050565b6000611ca682611cc3565b9050919050565b60008115159050919050565b6000819050919050565b600073ffffffffffffffffffffffffffffffffffffffff82169050919050565b6000819050919050565b60008115159050919050565b6000819050919050565b6000819050919050565b6000611d1882611d1f565b9050919050565b6000611d2a82611d31565b9050919050565b6000611d3c82611cc3565b9050919050565b8281833760008383015250505056fea265627a7a723058207a590a129852634bd0e30e0e2818707cb74fee7ac02b4efe4e461463876d7b7a6c6578706572696d656e74616cf50037",
  "source": "// SPDX-License-Identifier: MIT\r\npragma solidity >=0.4.22 <0.9.0;\r\npragma experimental ABIEncoderV2;\r\n\r\nimport \"./ProovableABI.sol\";\r\n\r\ncontract CoinFlip is usingProvable {\r\n\r\n\r\n    // *************************************************************************************************\r\n    // *            -------------------CONTRACT EVENTS--------------------------                       *                                                                            *\r\n    // *************************************************************************************************\r\n\r\n    event depositMade(address depositedBy, uint amount);\r\n    event withdrawMade(address withdrawedBy, uint amount);\r\n    event betInitialized(address player_address, uint amount, uint betId);\r\n    event coinFlipped(address playerAddress, uint result, uint betId, bool hasWon);\r\n    event newProvableQuerey(address indexed player);\r\n    event balanceUpdated(address player, uint newBalance, uint oldBalance);\r\n    event generatedRandomNumber(uint randomNumber);\r\n\r\n\r\n    // *************************************************************************************************\r\n    // *            -------------------DATA STRUCTURES--------------------------                       *                                                                            *\r\n    // *************************************************************************************************\r\n\r\n    struct Player {\r\n        address playerAddress;\r\n        uint256 betAmount;\r\n        bool isActive;\r\n        bool hasWon;\r\n        uint id;\r\n    }\r\n\r\n    struct OracleQuery {\r\n        bytes32 id;\r\n        address playerAddress;\r\n  }\r\n    \r\n    mapping(address => bool) waitingForOracle;          //stores result of the oracle RN fetch request for a player true/false\r\n    mapping(address => uint) result;                    //stores the result of the oracles random number for a player\r\n    mapping(address => bytes32) qid;                    //stores the oracle querey iD for a player\r\n    mapping(bytes32 => OracleQuery) public playerOracleqQuerey;     //oracle querey\r\n    mapping(address => Player) player;                  //player struct has attributes such as address, betAmount, player ID etc\r\n    mapping(address => uint256) playerbalance;          //player balance mapping\r\n    mapping(address => uint256) contratcBalance;        //contratc balance mappping\r\n\r\n\r\n    //initial vars set id globally increment each time a player is made\r\n    //NUM random bytes is how much bytes we request from the oracle 1 = range(0, 256) bytes\r\n    //initilaise Player array which will store each instance of a player bet for lookups\r\n    uint  private _id = 0;\r\n    uint amt;\r\n    uint private constant NUM_RANDOM_BYTES_REQUESTED = 1;\r\n    uint private contractBalance;\r\n    Player[] betLog;\r\n    \r\n\r\n    // *************************************************************************************************\r\n    // *            -------------------CONSTRUCTORS & MODIFIERS--------------------------                       *                                                                            *\r\n    // *************************************************************************************************\r\n\r\n    //init contratc balance to 0\r\n    constructor() public {\r\n       \r\n        contratcBalance[address(this)] = 0;\r\n\r\n    }\r\n    \r\n    //modifier for the bet Conditions function. cannot create a bet smaller than 0.01 eth\r\n    //the betAmiunt must be less thatn half of the contratc bal or else they payout is not possible\r\n    //no player can have more than one bet ongoing handle this with an isActive attribute\r\n    // modifier betConditions {\r\n    //     require(amt >= 0.001 ether, \"Insuffisant amount, please increase your bet!\");\r\n    //     require(amt <= contratcBalance[address(this)] / 2, \"You can't bet more than half the contracts bal\");\r\n    //     _;\r\n    // }\r\n    \r\n\r\n    // *************************************************************************************************\r\n    // *            -------------------COINFLIP ALGORITHM--------------------------                    *                                                                            *\r\n    // *************************************************************************************************\r\n\r\n\r\n    \r\n    function setBet(uint amount) public  {\r\n\r\n        // require(playerbalance[msg.sender] > 0);\r\n        // require(amount >= 0.001 ether, \"Insuffisant amount, please increase your bet!\");\r\n        // require(amount <= contratcBalance[address(this)] / 2, \"You can't bet more than half the contracts bal\");\r\n\r\n        //initalize a player\r\n        player[msg.sender].playerAddress = msg.sender;\r\n        player[msg.sender].betAmount = amount * 10 ** 18;\r\n        player[msg.sender].isActive = true;\r\n        player[msg.sender].hasWon = false;\r\n        player[msg.sender].id = _id;\r\n\r\n        //push the player to the betLog\r\n        betLog.push(Player(msg.sender, amount, true, false, _id));\r\n\r\n        //set waiting for oracle result to true\r\n        //and update balances / id accordingly\r\n    \twaitingForOracle[msg.sender] = true;\r\n        playerbalance[msg.sender] -= player[msg.sender].betAmount;\r\n        contratcBalance[address(this)] += player[msg.sender].betAmount;\r\n        _id++;\r\n\r\n        //call the update function which is responsible for handlu=ing the\r\n        //oracle querey request to get a external trully random number\r\n        _update();\r\n        \r\n        emit betInitialized(msg.sender, player[msg.sender].betAmount, _id);\r\n    }\r\n\r\n    //update funcion\r\n    function _update() internal {\r\n\r\n        //set execution delay to 0 and set the gas required\r\n        //to pay for the oracle for submitting a querey\r\n        uint QUERY_EXECUTION_DELAY = 0;\r\n        uint GAS_FOR_CALLBACK =200000;\r\n\r\n        //submit the oracle querey, this function is called from\r\n        //the provableABI contratc\r\n        //bytes32 query_id = provable_newRandomDSQuery(QUERY_EXECUTION_DELAY, NUM_RANDOM_BYTES_REQUESTED, GAS_FOR_CALLBACK);\r\n        bytes32 query_id = testRandom();\r\n\r\n        //after the oracle querey is settled store the result in the player\r\n        //Oracle querey struct allows us to distingish between players\r\n        playerOracleqQuerey[query_id].id = query_id;\r\n        playerOracleqQuerey[query_id].playerAddress = msg.sender;\r\n        qid[msg.sender] = query_id;\r\n\r\n        //emit LogNewProvableQuery(msg.sender);\r\n    }\r\n\r\n    //call back function is called by the oracle once the querey has been settled. \r\n    //thia function is caled via the provableABI contract. It finalises the random result\r\n    function __callback(bytes32 _queryId, uint _result, bytes memory _proof) public returns(uint) {\r\n        //require(msg.sender == provable_cbAddress());\r\n\r\n        //store the oracle generated random num\r\n        //update the player result mapping accordingly\r\n        //set waiting for oracle to false\r\n        uint randomNumber = _result;\r\n        result[msg.sender] = randomNumber;\r\n        waitingForOracle[msg.sender] = false;\r\n        // if (provable_randomDS_proofVerify__returnCode(_queryId, _result, _proof) == 0){\r\n        // uint randomNumber = uint(keccak256(abi.encodePacked(_result)))%2;\r\n        // settleBet(randomNumber, _queryId);\r\n        // emit GeneratedRandomNumber(randomNumber);\r\n        //}\r\n        // flipCoin(randomNumber);\r\n        return(randomNumber);\r\n    }\r\n\r\n    //testing function which mimics the oracle querey func\r\n    function testRandom() public returns (bytes32) {\r\n\r\n        uint randomSeed = random();\r\n        bytes32 quereyId = bytes32(keccak256(abi.encodePacked(msg.sender)));\r\n        __callback(quereyId, randomSeed, bytes(\"test\"));\r\n        return quereyId;\r\n\r\n        emit  generatedRandomNumber(randomSeed); \r\n    }\r\n   \r\n    //update tomorrow to have the flip function update struct values\r\n    //have another funcion which is then called that puts into play the effects\r\n    function flipCoin(uint randomNumber) public view returns(bool) {\r\n        \r\n        //cannot flip the coin if the player is still waiting for the \r\n        //oracles result handle that here\r\n        bytes32 quereyId = qid[msg.sender];\r\n        address playerAddress = playerOracleqQuerey[quereyId].playerAddress;\r\n        require(player[msg.sender].isActive == true);\r\n        require(waitingForOracle[playerAddress] == false);\r\n        bool betWin;\r\n        \r\n        //finalise flip\r\n        if (randomNumber == 1) {\r\n            betWin = true;\r\n        }\r\n        else {\r\n            betWin = false;\r\n        }\r\n\r\n        // emit coinFlipped(msg.sender, randomNumber, player[msg.sender].id, player[msg.sender].hasWon);\r\n      \r\n        return(betWin);\r\n    }\r\n\r\n    \r\n    //this function takes the result from the flipCoin function and settles the bet\r\n    //decreases player balance if coinflip is 0 and increases player bal in the\r\n    //coinFlip result is 1\r\n    function settleBet(bool randomSeed) public {\r\n\r\n        //store old player balance for events\r\n        uint256 oldPlayerBalance = playerbalance[msg.sender];\r\n        uint256 oldContractBalance = contratcBalance[address(this)];\r\n\r\n        bytes32 quereyId = qid[msg.sender];\r\n        address playerAddress = playerOracleqQuerey[quereyId].playerAddress;\r\n        uint betAmount = player[playerAddress].betAmount;\r\n\r\n        //update player balances respectively depending\r\n        //on the coinflip result\r\n        if(randomSeed) {\r\n           player[playerAddress].hasWon = true;\r\n           contratcBalance[address(this)] -= betAmount;\r\n           playerbalance[playerAddress] += 2 * betAmount;\r\n        }   \r\n        else {\r\n            player[playerAddress].hasWon = false;\r\n            contratcBalance[address(this)] += betAmount;\r\n        }\r\n\r\n        //delete player result for fresh new bet\r\n        //delete player oracle querey for fresh bet also\r\n        delete(result[msg.sender]);\r\n        delete(playerOracleqQuerey[quereyId]);\r\n        player[playerAddress].isActive = false;\r\n\r\n        emit balanceUpdated(msg.sender, playerbalance[msg.sender], oldPlayerBalance);\r\n        emit balanceUpdated(address(this), contratcBalance[address(this)], oldContractBalance);\r\n\r\n        \r\n        \r\n    }\r\n\r\n\r\n    // *************************************************************************************************\r\n    // *            -------------------DEPOSIT/WITHDRAWABLE FUNCTIONS--------------------------        *                                                                            *\r\n    // *************************************************************************************************\r\n\r\n    function withdraw(uint amount) public payable {\r\n\r\n        require(playerbalance[msg.sender] != 0);\r\n        amount = amount * 10 ** 18;\r\n        \r\n        playerbalance[msg.sender] -= amount;\r\n        contratcBalance[address(this)] -= amount;\r\n        msg.sender.transfer(amount);\r\n\r\n        emit withdrawMade(msg.sender, amount);\r\n\r\n    }\r\n\r\n    function deposit() public payable {\r\n        playerbalance[msg.sender] += msg.value;\r\n        contratcBalance[address(this)] += msg.value;\r\n\r\n        emit depositMade(msg.sender, msg.value);\r\n    }\r\n\r\n\r\n    // *************************************************************************************************\r\n    // *            ------------------_HELPER FUNCTIONS--------------------------                      *                                                                            *\r\n    // *************************************************************************************************\r\n\r\n    //return oracle result\r\n    function getResult() public view returns (uint) {\r\n        return result[msg.sender];\r\n    }\r\n\r\n    //get Bet status, is player playing or not\r\n    function getBetStatus() public view returns(bool) {\r\n        return player[msg.sender].isActive;\r\n    }\r\n\r\n    //return msg.sender\r\n    function getPlayer() public view returns(address) {\r\n      \r\n        return msg.sender;\r\n    }\r\n    \r\n    //get contraqtc bal\r\n    function getContratcBalance() public view returns(uint) {\r\n      \r\n        return contratcBalance[address(this)];\r\n    }\r\n    \r\n     //get player bal\r\n    function getPlayerBalance() public view returns(uint) {\r\n        return playerbalance[msg.sender];\r\n    }\r\n    \r\n    //old random generater function\r\n    function random() public view returns(uint) {\r\n        return block.timestamp % 2;\r\n    }\r\n    \r\n    //return the players bet\r\n    function getCurrentBet() public view returns(uint) {\r\n        return player[msg.sender].betAmount;\r\n    }\r\n    \r\n    //return the bet Log of all bet histroys    \r\n    function getActiveBets() public view returns(Player[] memory) {\r\n        return betLog;\r\n    }\r\n}\r\n",
  "sourcePath": "C:/Users/evanm/OneDrive/Documents/EthereumProgramming/Solidity-201/CoinFlipDapp/BackEnd/contracts/CoinFlip.sol",
  "compiler": {
    "name": "solc",
    "version": "0.5.1+commit.c8a2cb62.Emscripten.clang"
  },
  "schemaVersion": "3.3.4",
  "updatedAt": "2021-06-04T15:24:43.685Z",
  "networkType": "ethereum",
  "devdoc": {
    "methods": {
      "__callback(bytes32,string)": {
        "details": "The following `__callback` functions are just placeholders ideally\r     meant to be defined in child contract when proofs are used.\r     The function bodies simply silence compiler warnings.\r"
      }
    }
  },
  "userdoc": {
    "methods": {}
  }
}